{
  "address": "0x4B7524a32bd1999a649cEF8aBc352C2971E8d1dc",
  "abi": [
    {
      "anonymous": false,
      "inputs": [
        {
          "indexed": true,
          "internalType": "address",
          "name": "cosaddr",
          "type": "address"
        },
        {
          "indexed": false,
          "internalType": "uint256",
          "name": "chainId",
          "type": "uint256"
        }
      ],
      "name": "CosignerAdded",
      "type": "event"
    },
    {
      "anonymous": false,
      "inputs": [
        {
          "indexed": true,
          "internalType": "address",
          "name": "cosaddr",
          "type": "address"
        },
        {
          "indexed": false,
          "internalType": "uint256",
          "name": "chainId",
          "type": "uint256"
        }
      ],
      "name": "CosignerRemoved",
      "type": "event"
    },
    {
      "anonymous": false,
      "inputs": [
        {
          "indexed": true,
          "internalType": "address",
          "name": "previousOwner",
          "type": "address"
        },
        {
          "indexed": true,
          "internalType": "address",
          "name": "newOwner",
          "type": "address"
        }
      ],
      "name": "OwnershipTransferred",
      "type": "event"
    },
    {
      "inputs": [],
      "name": "MIN_COSIGNER_REQUIRED",
      "outputs": [
        {
          "internalType": "uint8",
          "name": "",
          "type": "uint8"
        }
      ],
      "stateMutability": "view",
      "type": "function"
    },
    {
      "inputs": [
        {
          "internalType": "address",
          "name": "cosaddr",
          "type": "address"
        },
        {
          "internalType": "uint256",
          "name": "chainId",
          "type": "uint256"
        }
      ],
      "name": "addCosigner",
      "outputs": [],
      "stateMutability": "nonpayable",
      "type": "function"
    },
    {
      "inputs": [
        {
          "internalType": "address[]",
          "name": "cosaddrs",
          "type": "address[]"
        },
        {
          "internalType": "uint256",
          "name": "chainId",
          "type": "uint256"
        }
      ],
      "name": "addCosignerBatch",
      "outputs": [],
      "stateMutability": "nonpayable",
      "type": "function"
    },
    {
      "inputs": [
        {
          "internalType": "uint256",
          "name": "chainId",
          "type": "uint256"
        }
      ],
      "name": "getCosignCount",
      "outputs": [
        {
          "internalType": "uint8",
          "name": "",
          "type": "uint8"
        }
      ],
      "stateMutability": "view",
      "type": "function"
    },
    {
      "inputs": [
        {
          "internalType": "uint256",
          "name": "chainId",
          "type": "uint256"
        }
      ],
      "name": "getCosigners",
      "outputs": [
        {
          "internalType": "address[]",
          "name": "",
          "type": "address[]"
        }
      ],
      "stateMutability": "view",
      "type": "function"
    },
    {
      "inputs": [],
      "name": "owner",
      "outputs": [
        {
          "internalType": "address",
          "name": "",
          "type": "address"
        }
      ],
      "stateMutability": "view",
      "type": "function"
    },
    {
      "inputs": [
        {
          "internalType": "address",
          "name": "cosaddr",
          "type": "address"
        }
      ],
      "name": "removeCosigner",
      "outputs": [],
      "stateMutability": "nonpayable",
      "type": "function"
    },
    {
      "inputs": [
        {
          "internalType": "address[]",
          "name": "cosaddrs",
          "type": "address[]"
        }
      ],
      "name": "removeCosignerBatch",
      "outputs": [],
      "stateMutability": "nonpayable",
      "type": "function"
    },
    {
      "inputs": [],
      "name": "renounceOwnership",
      "outputs": [],
      "stateMutability": "nonpayable",
      "type": "function"
    },
    {
      "inputs": [
        {
          "internalType": "bytes4",
          "name": "interfaceId",
          "type": "bytes4"
        }
      ],
      "name": "supportsInterface",
      "outputs": [
        {
          "internalType": "bool",
          "name": "",
          "type": "bool"
        }
      ],
      "stateMutability": "view",
      "type": "function"
    },
    {
      "inputs": [
        {
          "internalType": "address",
          "name": "newOwner",
          "type": "address"
        }
      ],
      "name": "transferOwnership",
      "outputs": [],
      "stateMutability": "nonpayable",
      "type": "function"
    },
    {
      "inputs": [
        {
          "internalType": "bytes32",
          "name": "commitment",
          "type": "bytes32"
        },
        {
          "internalType": "uint256",
          "name": "chainId",
          "type": "uint256"
        },
        {
          "internalType": "bytes[]",
          "name": "signatures",
          "type": "bytes[]"
        }
      ],
      "name": "verify",
      "outputs": [
        {
          "internalType": "bool",
          "name": "",
          "type": "bool"
        }
      ],
      "stateMutability": "view",
      "type": "function"
    }
  ],
  "transactionHash": "0x8435c81e92c8928acc6f984405331e7040c6b0b4fb4331f57d025aeb36e1590a",
  "args": [],
  "solcInputHash": "4b226e48919e387d495ca981a6b5bf20",
  "bytecode": "0x608060405234801561001057600080fd5b5061001a3361001f565b61006f565b600080546001600160a01b038381166001600160a01b0319831681178455604051919092169283917f8be0079c531659141344cd1fd0a4f28419497f9722a3daafe3b4186f6b6457e09190a35050565b61154b8061007e6000396000f3fe608060405234801561001057600080fd5b50600436106100b45760003560e01c80637874e3bc116100715780637874e3bc146101565780638789b873146101695780638da5cb5b14610171578063c9807fd01461018c578063d371f9241461019f578063f2fde38b146101b257600080fd5b806301ffc9a7146100b957806318ffdbd3146100e15780633e6e8f68146100f657806345f251221461010957806358874d8f14610129578063715018a61461014e575b600080fd5b6100cc6100c736600461134f565b6101c5565b60405190151581526020015b60405180910390f35b6100f46100ef3660046112b4565b6101fc565b005b6100cc6101043660046112fe565b6102d0565b61011c610117366004611377565b6104a7565b6040516100d8919061138f565b61013c610137366004611377565b610513565b60405160ff90911681526020016100d8565b6100f461055a565b6100f461016436600461124b565b610590565b61013c600281565b6000546040516001600160a01b0390911681526020016100d8565b6100f461019a366004611274565b6107df565b6100f46101ad366004611231565b6108a4565b6100f46101c0366004611231565b610bd6565b60006001600160e01b03198216632cb096af60e11b14806101f657506301ffc9a760e01b6001600160e01b03198316145b92915050565b6000546001600160a01b0316331461022f5760405162461bcd60e51b8152600401610226906113dc565b60405180910390fd5b8161026f5760405162461bcd60e51b815260206004820152601060248201526f084869a74408a9aa0a8b2be8482a886960831b6044820152606401610226565b60005b828110156102ca576102b884848381811061029d57634e487b7160e01b600052603260045260246000fd5b90506020020160208101906102b29190611231565b83610590565b806102c2816114c4565b915050610272565b50505050565b6000806102dc85610513565b905060ff81168310156102f357600091505061049f565b60008367ffffffffffffffff81111561031c57634e487b7160e01b600052604160045260246000fd5b604051908082528060200260200182016040528015610345578160200160208202803683370190505b5090506000805b60ff81168611156104965760006103978a89898560ff1681811061038057634e487b7160e01b600052603260045260246000fd5b90506020028101906103929190611411565b610c71565b6001600160a01b0380821660009081526001602081815260409283902083516080810185528154909516855291820154908401526002810154918301919091526003015460ff16158015606083018190529293509091906103fb5750898160200151145b801561040e575061040c8583610cbe565b155b15610481578361041d816114df565b94505081858460ff168151811061044457634e487b7160e01b600052603260045260246000fd5b60200260200101906001600160a01b031690816001600160a01b0316815250508560ff168460ff161415610481576001965050505050505061049f565b5050808061048e906114df565b91505061034c565b50600093505050505b949350505050565b60008181526002602090815260409182902080548351818402810184019094528084526060939283018282801561050757602002820191906000526020600020905b81546001600160a01b031681526001909101906020018083116104e9575b50505050509050919050565b6000818152600260208190526040822054829160039161053291611484565b61053c9190611456565b905060ff8116600210156105505780610553565b60025b9392505050565b6000546001600160a01b031633146105845760405162461bcd60e51b8152600401610226906113dc565b61058e6000610d7e565b565b6000546001600160a01b031633146105ba5760405162461bcd60e51b8152600401610226906113dc565b6001600160a01b0380831660009081526001602081815260409283902083516080810185528154909516855291820154908401526002810154918301919091526003015460ff16158015606083015261064a5760405162461bcd60e51b81526020600482015260126024820152711090d34e881053149150511657d1561254d560721b6044820152606401610226565b6001600160a01b0383166106945760405162461bcd60e51b815260206004820152601160248201527042434d3a205a45524f5f4144445245535360781b6044820152606401610226565b46828114156106da5760405162461bcd60e51b81526020600482015260126024820152711090d34e8813d3931657d15615115493905360721b6044820152606401610226565b600083815260026020818152604080842080546001808201835582875284872090910180546001600160a01b0319166001600160a01b038c1690811790915583516080810185529081528085018a90529589905293909252905490830191610741916114ad565b8152600160209182018190526001600160a01b038781166000818152838552604090819020865181546001600160a01b031916941693909317835585850151938301939093558483015160028301556060909401516003909101805460ff1916911515919091179055518581527f0f0900314007cc69e519d583fb1873eba5aa4c24e2877bc4d2e44522dd73cd0e910160405180910390a250505050565b6000546001600160a01b031633146108095760405162461bcd60e51b8152600401610226906113dc565b801561084a5760405162461bcd60e51b815260206004820152601060248201526f084869a74408a9aa0a8b2be8482a886960831b6044820152606401610226565b60005b8181101561089f5761088d83838381811061087857634e487b7160e01b600052603260045260246000fd5b90506020020160208101906101ad9190611231565b80610897816114c4565b91505061084d565b505050565b6000546001600160a01b031633146108ce5760405162461bcd60e51b8152600401610226906113dc565b6001600160a01b0381166109185760405162461bcd60e51b815260206004820152601160248201527042434d3a205a45524f5f4144445245535360781b6044820152606401610226565b6001600160a01b0380821660009081526001602081815260409283902083516080810185528154909516855291820154908401526002810154918301919091526003015460ff161515606082018190526109a55760405162461bcd60e51b815260206004820152600e60248201526d1090d34e881393d517d1561254d560921b6044820152606401610226565b6020808201516000908152600290915260409020805460011015610b1157602080830151600090815260029091526040902081546109e5906001906114ad565b81548110610a0357634e487b7160e01b600052603260045260246000fd5b9060005260206000200160009054906101000a90046001600160a01b031681836040015181548110610a4557634e487b7160e01b600052603260045260246000fd5b9060005260206000200160006101000a8154816001600160a01b0302191690836001600160a01b0316021790555080805480610a9157634e487b7160e01b600052603160045260246000fd5b6001900381819060005260206000200160006101000a8154906001600160a01b0302191690559055600081836040015181548110610adf57634e487b7160e01b600052603260045260246000fd5b60009182526020808320909101546040808701516001600160a01b039092168452600190925291206002015550610b52565b80805480610b2f57634e487b7160e01b600052603160045260246000fd5b600082815260209020810160001990810180546001600160a01b03191690550190555b6001600160a01b03838116600090815260016020818152604080842080546001600160a01b031916815592830184905560028301939093556003909101805460ff191690558451858201519251928352909216917f61d7c9145a2e12d35dfb19f8fe0ff62e8eea82802cb7f5ddf745d3dc4bc32a23910160405180910390a2505050565b6000546001600160a01b03163314610c005760405162461bcd60e51b8152600401610226906113dc565b6001600160a01b038116610c655760405162461bcd60e51b815260206004820152602660248201527f4f776e61626c653a206e6577206f776e657220697320746865207a65726f206160448201526564647265737360d01b6064820152608401610226565b610c6e81610d7e565b50565b600061049f83838080601f016020809104026020016040519081016040528093929190818152602001838380828437600092019190915250610cb89250889150610dce9050565b90610e21565b6000805b83518160ff161015610d7757826001600160a01b0316848260ff1681518110610cfb57634e487b7160e01b600052603260045260246000fd5b60200260200101516001600160a01b03161415610d1b5760019150610d77565b60006001600160a01b0316848260ff1681518110610d4957634e487b7160e01b600052603260045260246000fd5b60200260200101516001600160a01b03161415610d6557610d77565b80610d6f816114df565b915050610cc2565b5092915050565b600080546001600160a01b038381166001600160a01b0319831681178455604051919092169283917f8be0079c531659141344cd1fd0a4f28419497f9722a3daafe3b4186f6b6457e09190a35050565b6040517f19457468657265756d205369676e6564204d6573736167653a0a3332000000006020820152603c8101829052600090605c01604051602081830303815290604052805190602001209050919050565b6000806000610e308585610e45565b91509150610e3d81610eb5565b509392505050565b600080825160411415610e7c5760208301516040840151606085015160001a610e70878285856110b6565b94509450505050610eae565b825160401415610ea65760208301516040840151610e9b8683836111a3565b935093505050610eae565b506000905060025b9250929050565b6000816004811115610ed757634e487b7160e01b600052602160045260246000fd5b1415610ee05750565b6001816004811115610f0257634e487b7160e01b600052602160045260246000fd5b1415610f505760405162461bcd60e51b815260206004820152601860248201527f45434453413a20696e76616c6964207369676e617475726500000000000000006044820152606401610226565b6002816004811115610f7257634e487b7160e01b600052602160045260246000fd5b1415610fc05760405162461bcd60e51b815260206004820152601f60248201527f45434453413a20696e76616c6964207369676e6174757265206c656e677468006044820152606401610226565b6003816004811115610fe257634e487b7160e01b600052602160045260246000fd5b141561103b5760405162461bcd60e51b815260206004820152602260248201527f45434453413a20696e76616c6964207369676e6174757265202773272076616c604482015261756560f01b6064820152608401610226565b600481600481111561105d57634e487b7160e01b600052602160045260246000fd5b1415610c6e5760405162461bcd60e51b815260206004820152602260248201527f45434453413a20696e76616c6964207369676e6174757265202776272076616c604482015261756560f01b6064820152608401610226565b6000807f7fffffffffffffffffffffffffffffff5d576e7357a4501ddfe92f46681b20a08311156110ed575060009050600361119a565b8460ff16601b1415801561110557508460ff16601c14155b15611116575060009050600461119a565b6040805160008082526020820180845289905260ff881692820192909252606081018690526080810185905260019060a0016020604051602081039080840390855afa15801561116a573d6000803e3d6000fd5b5050604051601f1901519150506001600160a01b0381166111935760006001925092505061119a565b9150600090505b94509492505050565b6000806001600160ff1b03831660ff84901c601b016111c4878288856110b6565b935093505050935093915050565b80356001600160a01b03811681146111e957600080fd5b919050565b60008083601f8401126111ff578182fd5b50813567ffffffffffffffff811115611216578182fd5b6020830191508360208260051b8501011115610eae57600080fd5b600060208284031215611242578081fd5b610553826111d2565b6000806040838503121561125d578081fd5b611266836111d2565b946020939093013593505050565b60008060208385031215611286578182fd5b823567ffffffffffffffff81111561129c578283fd5b6112a8858286016111ee565b90969095509350505050565b6000806000604084860312156112c8578081fd5b833567ffffffffffffffff8111156112de578182fd5b6112ea868287016111ee565b909790965060209590950135949350505050565b60008060008060608587031215611313578081fd5b8435935060208501359250604085013567ffffffffffffffff811115611337578182fd5b611343878288016111ee565b95989497509550505050565b600060208284031215611360578081fd5b81356001600160e01b031981168114610553578182fd5b600060208284031215611388578081fd5b5035919050565b6020808252825182820181905260009190848201906040850190845b818110156113d05783516001600160a01b0316835292840192918401916001016113ab565b50909695505050505050565b6020808252818101527f4f776e61626c653a2063616c6c6572206973206e6f7420746865206f776e6572604082015260600190565b6000808335601e19843603018112611427578283fd5b83018035915067ffffffffffffffff821115611441578283fd5b602001915036819003821315610eae57600080fd5b600060ff83168061147557634e487b7160e01b82526012600452602482fd5b8060ff84160491505092915050565b600060ff821660ff84168160ff04811182151516156114a5576114a56114ff565b029392505050565b6000828210156114bf576114bf6114ff565b500390565b60006000198214156114d8576114d86114ff565b5060010190565b600060ff821660ff8114156114f6576114f66114ff565b60010192915050565b634e487b7160e01b600052601160045260246000fdfea26469706673582212202cdf2930fe4191a9ea034d69cfbbb644bf3945be9bf7a10b52d1fac6ef3541d464736f6c63430008040033",
  "devdoc": {
    "kind": "dev",
    "methods": {
      "owner()": {
        "details": "Returns the address of the current owner."
      },
      "renounceOwnership()": {
        "details": "Leaves the contract without owner. It will not be possible to call `onlyOwner` functions anymore. Can only be called by the current owner. NOTE: Renouncing ownership will leave the contract without an owner, thereby removing any functionality that is only available to the owner."
      },
      "supportsInterface(bytes4)": {
        "details": "See {IERC165-supportsInterface}."
      },
      "transferOwnership(address)": {
        "details": "Transfers ownership of the contract to a new account (`newOwner`). Can only be called by the current owner."
      }
    },
    "version": 1
  },
  "userdoc": {
    "kind": "user",
    "methods": {},
    "version": 1
  },
  "storageLayout": {
    "storage": [
      {
        "astId": 1069,
        "contract": "contracts/managers/BridgeCosignerManager.sol:BridgeCosignerManager",
        "label": "_owner",
        "offset": 0,
        "slot": "0",
        "type": "t_address"
      },
      {
        "astId": 3973,
        "contract": "contracts/managers/BridgeCosignerManager.sol:BridgeCosignerManager",
        "label": "_cosigners",
        "offset": 0,
        "slot": "1",
        "type": "t_mapping(t_address,t_struct(Cosigner)2791_storage)"
      },
      {
        "astId": 3978,
        "contract": "contracts/managers/BridgeCosignerManager.sol:BridgeCosignerManager",
        "label": "_cosaddrs",
        "offset": 0,
        "slot": "2",
        "type": "t_mapping(t_uint256,t_array(t_address)dyn_storage)"
      }
    ],
    "types": {
      "t_address": {
        "encoding": "inplace",
        "label": "address",
        "numberOfBytes": "20"
      },
      "t_array(t_address)dyn_storage": {
        "base": "t_address",
        "encoding": "dynamic_array",
        "label": "address[]",
        "numberOfBytes": "32"
      },
      "t_bool": {
        "encoding": "inplace",
        "label": "bool",
        "numberOfBytes": "1"
      },
      "t_mapping(t_address,t_struct(Cosigner)2791_storage)": {
        "encoding": "mapping",
        "key": "t_address",
        "label": "mapping(address => struct IBridgeCosignerManager.Cosigner)",
        "numberOfBytes": "32",
        "value": "t_struct(Cosigner)2791_storage"
      },
      "t_mapping(t_uint256,t_array(t_address)dyn_storage)": {
        "encoding": "mapping",
        "key": "t_uint256",
        "label": "mapping(uint256 => address[])",
        "numberOfBytes": "32",
        "value": "t_array(t_address)dyn_storage"
      },
      "t_struct(Cosigner)2791_storage": {
        "encoding": "inplace",
        "label": "struct IBridgeCosignerManager.Cosigner",
        "members": [
          {
            "astId": 2784,
            "contract": "contracts/managers/BridgeCosignerManager.sol:BridgeCosignerManager",
            "label": "addr",
            "offset": 0,
            "slot": "0",
            "type": "t_address"
          },
          {
            "astId": 2786,
            "contract": "contracts/managers/BridgeCosignerManager.sol:BridgeCosignerManager",
            "label": "chainId",
            "offset": 0,
            "slot": "1",
            "type": "t_uint256"
          },
          {
            "astId": 2788,
            "contract": "contracts/managers/BridgeCosignerManager.sol:BridgeCosignerManager",
            "label": "index",
            "offset": 0,
            "slot": "2",
            "type": "t_uint256"
          },
          {
            "astId": 2790,
            "contract": "contracts/managers/BridgeCosignerManager.sol:BridgeCosignerManager",
            "label": "active",
            "offset": 0,
            "slot": "3",
            "type": "t_bool"
          }
        ],
        "numberOfBytes": "128"
      },
      "t_uint256": {
        "encoding": "inplace",
        "label": "uint256",
        "numberOfBytes": "32"
      }
    }
  }
}