{
  "address": "0xB059EaFd1a127A52eABA4CB9d697Ee4A19449965",
  "abi": [
    {
      "anonymous": false,
      "inputs": [
        {
          "indexed": true,
          "internalType": "address",
          "name": "owner",
          "type": "address"
        },
        {
          "indexed": true,
          "internalType": "address",
          "name": "spender",
          "type": "address"
        },
        {
          "indexed": false,
          "internalType": "uint256",
          "name": "value",
          "type": "uint256"
        }
      ],
      "name": "Approval",
      "type": "event"
    },
    {
      "anonymous": false,
      "inputs": [
        {
          "indexed": true,
          "internalType": "address",
          "name": "previousOwner",
          "type": "address"
        },
        {
          "indexed": true,
          "internalType": "address",
          "name": "newOwner",
          "type": "address"
        }
      ],
      "name": "OwnershipTransferred",
      "type": "event"
    },
    {
      "anonymous": false,
      "inputs": [
        {
          "indexed": true,
          "internalType": "address",
          "name": "from",
          "type": "address"
        },
        {
          "indexed": true,
          "internalType": "address",
          "name": "to",
          "type": "address"
        },
        {
          "indexed": false,
          "internalType": "uint256",
          "name": "value",
          "type": "uint256"
        }
      ],
      "name": "Transfer",
      "type": "event"
    },
    {
      "inputs": [],
      "name": "DOMAIN_SEPARATOR",
      "outputs": [
        {
          "internalType": "bytes32",
          "name": "",
          "type": "bytes32"
        }
      ],
      "stateMutability": "view",
      "type": "function"
    },
    {
      "inputs": [],
      "name": "PERMIT_TYPEHASH",
      "outputs": [
        {
          "internalType": "bytes32",
          "name": "",
          "type": "bytes32"
        }
      ],
      "stateMutability": "view",
      "type": "function"
    },
    {
      "inputs": [],
      "name": "VERSION",
      "outputs": [
        {
          "internalType": "uint8",
          "name": "",
          "type": "uint8"
        }
      ],
      "stateMutability": "view",
      "type": "function"
    },
    {
      "inputs": [
        {
          "internalType": "address",
          "name": "owner",
          "type": "address"
        },
        {
          "internalType": "address",
          "name": "spender",
          "type": "address"
        }
      ],
      "name": "allowance",
      "outputs": [
        {
          "internalType": "uint256",
          "name": "",
          "type": "uint256"
        }
      ],
      "stateMutability": "view",
      "type": "function"
    },
    {
      "inputs": [
        {
          "internalType": "address",
          "name": "spender",
          "type": "address"
        },
        {
          "internalType": "uint256",
          "name": "amount",
          "type": "uint256"
        }
      ],
      "name": "approve",
      "outputs": [
        {
          "internalType": "bool",
          "name": "",
          "type": "bool"
        }
      ],
      "stateMutability": "nonpayable",
      "type": "function"
    },
    {
      "inputs": [
        {
          "internalType": "address",
          "name": "account",
          "type": "address"
        }
      ],
      "name": "balanceOf",
      "outputs": [
        {
          "internalType": "uint256",
          "name": "",
          "type": "uint256"
        }
      ],
      "stateMutability": "view",
      "type": "function"
    },
    {
      "inputs": [
        {
          "internalType": "address",
          "name": "_from",
          "type": "address"
        },
        {
          "internalType": "uint256",
          "name": "_amnt",
          "type": "uint256"
        }
      ],
      "name": "burn",
      "outputs": [],
      "stateMutability": "nonpayable",
      "type": "function"
    },
    {
      "inputs": [],
      "name": "decimals",
      "outputs": [
        {
          "internalType": "uint8",
          "name": "",
          "type": "uint8"
        }
      ],
      "stateMutability": "view",
      "type": "function"
    },
    {
      "inputs": [
        {
          "internalType": "address",
          "name": "spender",
          "type": "address"
        },
        {
          "internalType": "uint256",
          "name": "subtractedValue",
          "type": "uint256"
        }
      ],
      "name": "decreaseAllowance",
      "outputs": [
        {
          "internalType": "bool",
          "name": "",
          "type": "bool"
        }
      ],
      "stateMutability": "nonpayable",
      "type": "function"
    },
    {
      "inputs": [
        {
          "internalType": "address",
          "name": "spender",
          "type": "address"
        },
        {
          "internalType": "uint256",
          "name": "addedValue",
          "type": "uint256"
        }
      ],
      "name": "increaseAllowance",
      "outputs": [
        {
          "internalType": "bool",
          "name": "",
          "type": "bool"
        }
      ],
      "stateMutability": "nonpayable",
      "type": "function"
    },
    {
      "inputs": [
        {
          "internalType": "string",
          "name": "_name",
          "type": "string"
        },
        {
          "internalType": "string",
          "name": "_symbol",
          "type": "string"
        },
        {
          "internalType": "uint8",
          "name": "_decimals",
          "type": "uint8"
        }
      ],
      "name": "initialize",
      "outputs": [],
      "stateMutability": "nonpayable",
      "type": "function"
    },
    {
      "inputs": [
        {
          "internalType": "address",
          "name": "_to",
          "type": "address"
        },
        {
          "internalType": "uint256",
          "name": "_amnt",
          "type": "uint256"
        }
      ],
      "name": "mint",
      "outputs": [],
      "stateMutability": "nonpayable",
      "type": "function"
    },
    {
      "inputs": [],
      "name": "name",
      "outputs": [
        {
          "internalType": "string",
          "name": "",
          "type": "string"
        }
      ],
      "stateMutability": "view",
      "type": "function"
    },
    {
      "inputs": [
        {
          "internalType": "address",
          "name": "_owner",
          "type": "address"
        }
      ],
      "name": "nonces",
      "outputs": [
        {
          "internalType": "uint256",
          "name": "",
          "type": "uint256"
        }
      ],
      "stateMutability": "view",
      "type": "function"
    },
    {
      "inputs": [],
      "name": "owner",
      "outputs": [
        {
          "internalType": "address",
          "name": "",
          "type": "address"
        }
      ],
      "stateMutability": "view",
      "type": "function"
    },
    {
      "inputs": [
        {
          "internalType": "address",
          "name": "_owner",
          "type": "address"
        },
        {
          "internalType": "address",
          "name": "_spender",
          "type": "address"
        },
        {
          "internalType": "uint256",
          "name": "_value",
          "type": "uint256"
        },
        {
          "internalType": "uint256",
          "name": "_deadline",
          "type": "uint256"
        },
        {
          "internalType": "uint8",
          "name": "_v",
          "type": "uint8"
        },
        {
          "internalType": "bytes32",
          "name": "_r",
          "type": "bytes32"
        },
        {
          "internalType": "bytes32",
          "name": "_s",
          "type": "bytes32"
        }
      ],
      "name": "permit",
      "outputs": [],
      "stateMutability": "nonpayable",
      "type": "function"
    },
    {
      "inputs": [],
      "name": "renounceOwnership",
      "outputs": [],
      "stateMutability": "nonpayable",
      "type": "function"
    },
    {
      "inputs": [],
      "name": "symbol",
      "outputs": [
        {
          "internalType": "string",
          "name": "",
          "type": "string"
        }
      ],
      "stateMutability": "view",
      "type": "function"
    },
    {
      "inputs": [],
      "name": "totalSupply",
      "outputs": [
        {
          "internalType": "uint256",
          "name": "",
          "type": "uint256"
        }
      ],
      "stateMutability": "view",
      "type": "function"
    },
    {
      "inputs": [
        {
          "internalType": "address",
          "name": "recipient",
          "type": "address"
        },
        {
          "internalType": "uint256",
          "name": "amount",
          "type": "uint256"
        }
      ],
      "name": "transfer",
      "outputs": [
        {
          "internalType": "bool",
          "name": "",
          "type": "bool"
        }
      ],
      "stateMutability": "nonpayable",
      "type": "function"
    },
    {
      "inputs": [
        {
          "internalType": "address",
          "name": "sender",
          "type": "address"
        },
        {
          "internalType": "address",
          "name": "recipient",
          "type": "address"
        },
        {
          "internalType": "uint256",
          "name": "amount",
          "type": "uint256"
        }
      ],
      "name": "transferFrom",
      "outputs": [
        {
          "internalType": "bool",
          "name": "",
          "type": "bool"
        }
      ],
      "stateMutability": "nonpayable",
      "type": "function"
    },
    {
      "inputs": [
        {
          "internalType": "address",
          "name": "newOwner",
          "type": "address"
        }
      ],
      "name": "transferOwnership",
      "outputs": [],
      "stateMutability": "nonpayable",
      "type": "function"
    },
    {
      "inputs": [
        {
          "internalType": "string",
          "name": "_newName",
          "type": "string"
        },
        {
          "internalType": "string",
          "name": "_newSymbol",
          "type": "string"
        },
        {
          "internalType": "uint8",
          "name": "_newDecimals",
          "type": "uint8"
        }
      ],
      "name": "updateTokenInfo",
      "outputs": [],
      "stateMutability": "nonpayable",
      "type": "function"
    }
  ],
  "transactionHash": "0x0f27401cc55b38816e3956548ebd05d8126a53925467dd8742ed18052f4dc72a",
  "args": [],
  "solcInputHash": "4b226e48919e387d495ca981a6b5bf20",
  "bytecode": "0x608060405234801561001057600080fd5b506117ad806100206000396000f3fe608060405234801561001057600080fd5b506004361061014d5760003560e01c806370a08231116100c3578063a457c2d71161007c578063a457c2d7146102de578063a9059cbb146102f1578063d505accf14610304578063dd62ed3e14610317578063f2fde38b14610350578063ffa1ad741461036357600080fd5b806370a082311461024e578063715018a6146102775780637ecebe001461027f5780638da5cb5b146102a857806395d89b41146102c35780639dc29fac146102cb57600080fd5b806330adf81f1161011557806330adf81f146101cd578063313ce567146101f45780633644e5151461020d578063395093511461021557806340c10f19146102285780635de31f7a1461023b57600080fd5b806306fdde0314610152578063095ea7b3146101705780631624f6c61461019357806318160ddd146101a857806323b872dd146101ba575b600080fd5b61015a61036b565b60405161016791906115c8565b60405180910390f35b61018361017e366004611486565b610400565b6040519015158152602001610167565b6101a66101a13660046114af565b610416565b005b6035545b604051908152602001610167565b6101836101c83660046113e2565b6104c1565b6101ac7f6e71edae12b1b97f4d1f60370fef10105fa2faae0126114a169c64845d6126c981565b609c5460ff165b60405160ff9091168152602001610167565b6101ac61056b565b610183610223366004611486565b610602565b6101a6610236366004611486565b61063e565b6101a66102493660046114af565b610676565b6101ac61025c36600461138f565b6001600160a01b031660009081526033602052604090205490565b6101a66106d4565b6101ac61028d36600461138f565b6001600160a01b03166000908152609d602052604090205490565b6065546040516001600160a01b039091168152602001610167565b61015a61070a565b6101a66102d9366004611486565b61071c565b6101836102ec366004611486565b610750565b6101836102ff366004611486565b6107e9565b6101a661031236600461141d565b6107f6565b6101ac6103253660046113b0565b6001600160a01b03918216600090815260346020908152604080832093909416825291909152205490565b6101a661035e36600461138f565b610a15565b6101fb600181565b6060609a600001805461037d906116e1565b80601f01602080910402602001604051908101604052809291908181526020018280546103a9906116e1565b80156103f65780601f106103cb576101008083540402835291602001916103f6565b820191906000526020600020905b8154815290600101906020018083116103d957829003601f168201915b5050505050905090565b600061040d338484610ab0565b50600192915050565b600054610100900460ff168061042f575060005460ff16155b6104545760405162461bcd60e51b815260040161044b9061161b565b60405180910390fd5b600054610100900460ff16158015610476576000805461ffff19166101011790555b61047e610bd5565b61048a609a8787611282565b50610497609b8585611282565b50609c805460ff191660ff841617905580156104b9576000805461ff00191690555b505050505050565b60006104ce848484610c50565b6001600160a01b0384166000908152603460209081526040808320338452909152902054828110156105535760405162461bcd60e51b815260206004820152602860248201527f45524332303a207472616e7366657220616d6f756e74206578636565647320616044820152676c6c6f77616e636560c01b606482015260840161044b565b6105608533858403610ab0565b506001949350505050565b60405160009046907f8b73c3c69bb8fe3d512ecc4cf759cc79239f7b179b0ffacaa9a75d522b39400f906105a190609a9061152d565b6040519081900390206105b46001610e1f565b80516020918201206040805192830194909452928101919091526060810191909152608081018290523060a082015260c0016040516020818303038152906040528051906020012091505090565b3360008181526034602090815260408083206001600160a01b0387168452909152812054909161040d91859061063990869061169e565b610ab0565b6065546001600160a01b031633146106685760405162461bcd60e51b815260040161044b90611669565b6106728282610f41565b5050565b6065546001600160a01b031633146106a05760405162461bcd60e51b815260040161044b90611669565b6106ac609a8686611282565b506106b9609b8484611282565b50609c805460ff191660ff9290921691909117905550505050565b6065546001600160a01b031633146106fe5760405162461bcd60e51b815260040161044b90611669565b6107086000611020565b565b6060609a600101805461037d906116e1565b6065546001600160a01b031633146107465760405162461bcd60e51b815260040161044b90611669565b6106728282611072565b3360009081526034602090815260408083206001600160a01b0386168452909152812054828110156107d25760405162461bcd60e51b815260206004820152602560248201527f45524332303a2064656372656173656420616c6c6f77616e63652062656c6f77604482015264207a65726f60d81b606482015260840161044b565b6107df3385858403610ab0565b5060019392505050565b600061040d338484610c50565b428410156108465760405162461bcd60e51b815260206004820152601d60248201527f45524332305065726d69743a206578706972656420646561646c696e65000000604482015260640161044b565b6001600160a01b0387166000908152609d6020526040812080547f6e71edae12b1b97f4d1f60370fef10105fa2faae0126114a169c64845d6126c9918a918a918a9190866108938361171c565b909155506040805160208101969096526001600160a01b0394851690860152929091166060840152608083015260a082015260c0810186905260e00160405160208183030381529060405280519060200120905060006108f161056b565b60405161190160f01b602082015260228101919091526042810183905260620160408051601f198184030181528282528051602091820120600080855291840180845281905260ff89169284019290925260608301879052608083018690529092509060019060a0016020604051602081039080840390855afa15801561097c573d6000803e3d6000fd5b5050604051601f1901519150506001600160a01b038116158015906109b25750896001600160a01b0316816001600160a01b0316145b6109fe5760405162461bcd60e51b815260206004820152601e60248201527f45524332305065726d69743a20696e76616c6964207369676e61747572650000604482015260640161044b565b610a098a8a8a610ab0565b50505050505050505050565b6065546001600160a01b03163314610a3f5760405162461bcd60e51b815260040161044b90611669565b6001600160a01b038116610aa45760405162461bcd60e51b815260206004820152602660248201527f4f776e61626c653a206e6577206f776e657220697320746865207a65726f206160448201526564647265737360d01b606482015260840161044b565b610aad81611020565b50565b6001600160a01b038316610b125760405162461bcd60e51b8152602060048201526024808201527f45524332303a20617070726f76652066726f6d20746865207a65726f206164646044820152637265737360e01b606482015260840161044b565b6001600160a01b038216610b735760405162461bcd60e51b815260206004820152602260248201527f45524332303a20617070726f766520746f20746865207a65726f206164647265604482015261737360f01b606482015260840161044b565b6001600160a01b0383811660008181526034602090815260408083209487168084529482529182902085905590518481527f8c5be1e5ebec7d5bd14f71427d1e84f3dd0314c0f7b2291e5b200ac8c7c3b92591015b60405180910390a3505050565b600054610100900460ff1680610bee575060005460ff16155b610c0a5760405162461bcd60e51b815260040161044b9061161b565b600054610100900460ff16158015610c2c576000805461ffff19166101011790555b610c346111b8565b610c3c611222565b8015610aad576000805461ff001916905550565b6001600160a01b038316610cb45760405162461bcd60e51b815260206004820152602560248201527f45524332303a207472616e736665722066726f6d20746865207a65726f206164604482015264647265737360d81b606482015260840161044b565b6001600160a01b038216610d165760405162461bcd60e51b815260206004820152602360248201527f45524332303a207472616e7366657220746f20746865207a65726f206164647260448201526265737360e81b606482015260840161044b565b6001600160a01b03831660009081526033602052604090205481811015610d8e5760405162461bcd60e51b815260206004820152602660248201527f45524332303a207472616e7366657220616d6f756e7420657863656564732062604482015265616c616e636560d01b606482015260840161044b565b6001600160a01b03808516600090815260336020526040808220858503905591851681529081208054849290610dc590849061169e565b92505081905550826001600160a01b0316846001600160a01b03167fddf252ad1be2c89b69c2b068fc378daa952ba7f163c4a11628f55a4df523b3ef84604051610e1191815260200190565b60405180910390a350505050565b606081610e435750506040805180820190915260018152600360fc1b602082015290565b8160005b8115610e6d5780610e578161171c565b9150610e669050600a836116b6565b9150610e47565b60008167ffffffffffffffff811115610e9657634e487b7160e01b600052604160045260246000fd5b6040519080825280601f01601f191660200182016040528015610ec0576020820181803683370190505b5090505b8415610f3957610ed56001836116ca565b9150610ee2600a86611737565b610eed90603061169e565b60f81b818381518110610f1057634e487b7160e01b600052603260045260246000fd5b60200101906001600160f81b031916908160001a905350610f32600a866116b6565b9450610ec4565b949350505050565b6001600160a01b038216610f975760405162461bcd60e51b815260206004820152601f60248201527f45524332303a206d696e7420746f20746865207a65726f206164647265737300604482015260640161044b565b8060356000828254610fa9919061169e565b90915550506001600160a01b03821660009081526033602052604081208054839290610fd690849061169e565b90915550506040518181526001600160a01b038316906000907fddf252ad1be2c89b69c2b068fc378daa952ba7f163c4a11628f55a4df523b3ef9060200160405180910390a35050565b606580546001600160a01b038381166001600160a01b0319831681179093556040519116919082907f8be0079c531659141344cd1fd0a4f28419497f9722a3daafe3b4186f6b6457e090600090a35050565b6001600160a01b0382166110d25760405162461bcd60e51b815260206004820152602160248201527f45524332303a206275726e2066726f6d20746865207a65726f206164647265736044820152607360f81b606482015260840161044b565b6001600160a01b038216600090815260336020526040902054818110156111465760405162461bcd60e51b815260206004820152602260248201527f45524332303a206275726e20616d6f756e7420657863656564732062616c616e604482015261636560f01b606482015260840161044b565b6001600160a01b03831660009081526033602052604081208383039055603580548492906111759084906116ca565b90915550506040518281526000906001600160a01b038516907fddf252ad1be2c89b69c2b068fc378daa952ba7f163c4a11628f55a4df523b3ef90602001610bc8565b600054610100900460ff16806111d1575060005460ff16155b6111ed5760405162461bcd60e51b815260040161044b9061161b565b600054610100900460ff16158015610c3c576000805461ffff19166101011790558015610aad576000805461ff001916905550565b600054610100900460ff168061123b575060005460ff16155b6112575760405162461bcd60e51b815260040161044b9061161b565b600054610100900460ff16158015611279576000805461ffff19166101011790555b610c3c33611020565b82805461128e906116e1565b90600052602060002090601f0160209004810192826112b057600085556112f6565b82601f106112c95782800160ff198235161785556112f6565b828001600101855582156112f6579182015b828111156112f65782358255916020019190600101906112db565b50611302929150611306565b5090565b5b808211156113025760008155600101611307565b80356001600160a01b038116811461133257600080fd5b919050565b60008083601f840112611348578182fd5b50813567ffffffffffffffff81111561135f578182fd5b60208301915083602082850101111561137757600080fd5b9250929050565b803560ff8116811461133257600080fd5b6000602082840312156113a0578081fd5b6113a98261131b565b9392505050565b600080604083850312156113c2578081fd5b6113cb8361131b565b91506113d96020840161131b565b90509250929050565b6000806000606084860312156113f6578081fd5b6113ff8461131b565b925061140d6020850161131b565b9150604084013590509250925092565b600080600080600080600060e0888a031215611437578283fd5b6114408861131b565b965061144e6020890161131b565b9550604088013594506060880135935061146a6080890161137e565b925060a0880135915060c0880135905092959891949750929550565b60008060408385031215611498578182fd5b6114a18361131b565b946020939093013593505050565b6000806000806000606086880312156114c6578081fd5b853567ffffffffffffffff808211156114dd578283fd5b6114e989838a01611337565b90975095506020880135915080821115611501578283fd5b5061150e88828901611337565b909450925061152190506040870161137e565b90509295509295909350565b600080835482600182811c91508083168061154957607f831692505b602080841082141561156957634e487b7160e01b87526022600452602487fd5b81801561157d576001811461158e576115ba565b60ff198616895284890196506115ba565b60008a815260209020885b868110156115b25781548b820152908501908301611599565b505084890196505b509498975050505050505050565b6000602080835283518082850152825b818110156115f4578581018301518582016040015282016115d8565b818111156116055783604083870101525b50601f01601f1916929092016040019392505050565b6020808252602e908201527f496e697469616c697a61626c653a20636f6e747261637420697320616c72656160408201526d191e481a5b9a5d1a585b1a5e995960921b606082015260800190565b6020808252818101527f4f776e61626c653a2063616c6c6572206973206e6f7420746865206f776e6572604082015260600190565b600082198211156116b1576116b161174b565b500190565b6000826116c5576116c5611761565b500490565b6000828210156116dc576116dc61174b565b500390565b600181811c908216806116f557607f821691505b6020821081141561171657634e487b7160e01b600052602260045260246000fd5b50919050565b60006000198214156117305761173061174b565b5060010190565b60008261174657611746611761565b500690565b634e487b7160e01b600052601160045260246000fd5b634e487b7160e01b600052601260045260246000fdfea26469706673582212203883da69c696d25fd218ab877080255b3775f94b3595ff83daa84d4d2125abe364736f6c63430008040033",
  "devdoc": {
    "kind": "dev",
    "methods": {
      "DOMAIN_SEPARATOR()": {
        "details": "Returns the domain separator used in the encoding of the signature for {permit}, as defined by {EIP712}."
      },
      "allowance(address,address)": {
        "details": "See {IERC20-allowance}."
      },
      "approve(address,uint256)": {
        "details": "See {IERC20-approve}. Requirements: - `spender` cannot be the zero address."
      },
      "balanceOf(address)": {
        "details": "See {IERC20-balanceOf}."
      },
      "burn(address,uint256)": {
        "details": "Emits a {Transfer} event with `to` set to the zero address. Requirements: - `_from` cannot be the zero address. - `_from` must have at least `_amnt` tokens.",
        "params": {
          "_amnt": "The amount of tokens to be destroyed",
          "_from": "The address from which to destroy the tokens"
        }
      },
      "decimals()": {
        "details": "Returns the number of decimals used to get its user representation. For example, if `decimals` equals `2`, a balance of `505` tokens should be displayed to a user as `5.05` (`505 / 10 ** 2`). Tokens usually opt for a value of 18, imitating the relationship between Ether and Wei. This is the value {ERC20} uses, unless this function is overridden; NOTE: This information is only used for _display_ purposes: it in no way affects any of the arithmetic of the contract, including {IERC20-balanceOf} and {IERC20-transfer}."
      },
      "decreaseAllowance(address,uint256)": {
        "details": "Atomically decreases the allowance granted to `spender` by the caller. This is an alternative to {approve} that can be used as a mitigation for problems described in {IERC20-approve}. Emits an {Approval} event indicating the updated allowance. Requirements: - `spender` cannot be the zero address. - `spender` must have allowance for the caller of at least `subtractedValue`."
      },
      "increaseAllowance(address,uint256)": {
        "details": "Atomically increases the allowance granted to `spender` by the caller. This is an alternative to {approve} that can be used as a mitigation for problems described in {IERC20-approve}. Emits an {Approval} event indicating the updated allowance. Requirements: - `spender` cannot be the zero address."
      },
      "mint(address,uint256)": {
        "details": "Emits a {Transfer} event with `from` set to the zero address. Requirements: - `to` cannot be the zero address.",
        "params": {
          "_amnt": "The amount of tokens to be minted",
          "_to": "The destination address"
        }
      },
      "name()": {
        "details": "Returns the name of the token."
      },
      "owner()": {
        "details": "Returns the address of the current owner."
      },
      "renounceOwnership()": {
        "details": "Leaves the contract without owner. It will not be possible to call `onlyOwner` functions anymore. Can only be called by the current owner. NOTE: Renouncing ownership will leave the contract without an owner, thereby removing any functionality that is only available to the owner."
      },
      "symbol()": {
        "details": "Returns the symbol of the token, usually a shorter version of the name."
      },
      "totalSupply()": {
        "details": "See {IERC20-totalSupply}."
      },
      "transfer(address,uint256)": {
        "details": "See {IERC20-transfer}. Requirements: - `recipient` cannot be the zero address. - the caller must have a balance of at least `amount`."
      },
      "transferFrom(address,address,uint256)": {
        "details": "See {IERC20-transferFrom}. Emits an {Approval} event indicating the updated allowance. This is not required by the EIP. See the note at the beginning of {ERC20}. Requirements: - `sender` and `recipient` cannot be the zero address. - `sender` must have a balance of at least `amount`. - the caller must have allowance for ``sender``'s tokens of at least `amount`."
      },
      "transferOwnership(address)": {
        "details": "Transfers ownership of the contract to a new account (`newOwner`). Can only be called by the current owner."
      },
      "updateTokenInfo(string,string,uint8)": {
        "params": {
          "_newDecimals": "The new decimals",
          "_newName": "The new name",
          "_newSymbol": "The new symbol"
        }
      }
    },
    "version": 1
  },
  "userdoc": {
    "kind": "user",
    "methods": {
      "burn(address,uint256)": {
        "notice": "Destroys `_amnt` tokens from `_from`, reducing the total supply."
      },
      "mint(address,uint256)": {
        "notice": "Creates `_amnt` tokens and assigns them to `_to`, increasing the total supply."
      },
      "updateTokenInfo(string,string,uint8)": {
        "notice": "Update token info"
      }
    },
    "version": 1
  },
  "storageLayout": {
    "storage": [
      {
        "astId": 130,
        "contract": "contracts/tokens/BridgeToken.sol:BridgeToken",
        "label": "_initialized",
        "offset": 0,
        "slot": "0",
        "type": "t_bool"
      },
      {
        "astId": 133,
        "contract": "contracts/tokens/BridgeToken.sol:BridgeToken",
        "label": "_initializing",
        "offset": 1,
        "slot": "0",
        "type": "t_bool"
      },
      {
        "astId": 1060,
        "contract": "contracts/tokens/BridgeToken.sol:BridgeToken",
        "label": "__gap",
        "offset": 0,
        "slot": "1",
        "type": "t_array(t_uint256)50_storage"
      },
      {
        "astId": 360,
        "contract": "contracts/tokens/BridgeToken.sol:BridgeToken",
        "label": "_balances",
        "offset": 0,
        "slot": "51",
        "type": "t_mapping(t_address,t_uint256)"
      },
      {
        "astId": 366,
        "contract": "contracts/tokens/BridgeToken.sol:BridgeToken",
        "label": "_allowances",
        "offset": 0,
        "slot": "52",
        "type": "t_mapping(t_address,t_mapping(t_address,t_uint256))"
      },
      {
        "astId": 368,
        "contract": "contracts/tokens/BridgeToken.sol:BridgeToken",
        "label": "_totalSupply",
        "offset": 0,
        "slot": "53",
        "type": "t_uint256"
      },
      {
        "astId": 370,
        "contract": "contracts/tokens/BridgeToken.sol:BridgeToken",
        "label": "_name",
        "offset": 0,
        "slot": "54",
        "type": "t_string_storage"
      },
      {
        "astId": 372,
        "contract": "contracts/tokens/BridgeToken.sol:BridgeToken",
        "label": "_symbol",
        "offset": 0,
        "slot": "55",
        "type": "t_string_storage"
      },
      {
        "astId": 913,
        "contract": "contracts/tokens/BridgeToken.sol:BridgeToken",
        "label": "__gap",
        "offset": 0,
        "slot": "56",
        "type": "t_array(t_uint256)45_storage"
      },
      {
        "astId": 10,
        "contract": "contracts/tokens/BridgeToken.sol:BridgeToken",
        "label": "_owner",
        "offset": 0,
        "slot": "101",
        "type": "t_address"
      },
      {
        "astId": 123,
        "contract": "contracts/tokens/BridgeToken.sol:BridgeToken",
        "label": "__gap",
        "offset": 0,
        "slot": "102",
        "type": "t_array(t_uint256)49_storage"
      },
      {
        "astId": 4923,
        "contract": "contracts/tokens/BridgeToken.sol:BridgeToken",
        "label": "__reserved",
        "offset": 0,
        "slot": "151",
        "type": "t_array(t_uint256)3_storage"
      },
      {
        "astId": 4933,
        "contract": "contracts/tokens/BridgeToken.sol:BridgeToken",
        "label": "token",
        "offset": 0,
        "slot": "154",
        "type": "t_struct(Token)4930_storage"
      },
      {
        "astId": 5074,
        "contract": "contracts/tokens/BridgeToken.sol:BridgeToken",
        "label": "_nonces",
        "offset": 0,
        "slot": "157",
        "type": "t_mapping(t_address,t_uint256)"
      },
      {
        "astId": 5294,
        "contract": "contracts/tokens/BridgeToken.sol:BridgeToken",
        "label": "__gap",
        "offset": 0,
        "slot": "158",
        "type": "t_array(t_uint256)47_storage"
      }
    ],
    "types": {
      "t_address": {
        "encoding": "inplace",
        "label": "address",
        "numberOfBytes": "20"
      },
      "t_array(t_uint256)3_storage": {
        "base": "t_uint256",
        "encoding": "inplace",
        "label": "uint256[3]",
        "numberOfBytes": "96"
      },
      "t_array(t_uint256)45_storage": {
        "base": "t_uint256",
        "encoding": "inplace",
        "label": "uint256[45]",
        "numberOfBytes": "1440"
      },
      "t_array(t_uint256)47_storage": {
        "base": "t_uint256",
        "encoding": "inplace",
        "label": "uint256[47]",
        "numberOfBytes": "1504"
      },
      "t_array(t_uint256)49_storage": {
        "base": "t_uint256",
        "encoding": "inplace",
        "label": "uint256[49]",
        "numberOfBytes": "1568"
      },
      "t_array(t_uint256)50_storage": {
        "base": "t_uint256",
        "encoding": "inplace",
        "label": "uint256[50]",
        "numberOfBytes": "1600"
      },
      "t_bool": {
        "encoding": "inplace",
        "label": "bool",
        "numberOfBytes": "1"
      },
      "t_mapping(t_address,t_mapping(t_address,t_uint256))": {
        "encoding": "mapping",
        "key": "t_address",
        "label": "mapping(address => mapping(address => uint256))",
        "numberOfBytes": "32",
        "value": "t_mapping(t_address,t_uint256)"
      },
      "t_mapping(t_address,t_uint256)": {
        "encoding": "mapping",
        "key": "t_address",
        "label": "mapping(address => uint256)",
        "numberOfBytes": "32",
        "value": "t_uint256"
      },
      "t_string_storage": {
        "encoding": "bytes",
        "label": "string",
        "numberOfBytes": "32"
      },
      "t_struct(Token)4930_storage": {
        "encoding": "inplace",
        "label": "struct BridgeToken.Token",
        "members": [
          {
            "astId": 4925,
            "contract": "contracts/tokens/BridgeToken.sol:BridgeToken",
            "label": "name",
            "offset": 0,
            "slot": "0",
            "type": "t_string_storage"
          },
          {
            "astId": 4927,
            "contract": "contracts/tokens/BridgeToken.sol:BridgeToken",
            "label": "symbol",
            "offset": 0,
            "slot": "1",
            "type": "t_string_storage"
          },
          {
            "astId": 4929,
            "contract": "contracts/tokens/BridgeToken.sol:BridgeToken",
            "label": "decimals",
            "offset": 0,
            "slot": "2",
            "type": "t_uint8"
          }
        ],
        "numberOfBytes": "96"
      },
      "t_uint256": {
        "encoding": "inplace",
        "label": "uint256",
        "numberOfBytes": "32"
      },
      "t_uint8": {
        "encoding": "inplace",
        "label": "uint8",
        "numberOfBytes": "1"
      }
    }
  }
}