{
  "address": "0x6ef1b9364D55d9c2073536C881dEd75745cdD9b6",
  "abi": [
    {
      "anonymous": false,
      "inputs": [
        {
          "indexed": true,
          "internalType": "address",
          "name": "owner",
          "type": "address"
        },
        {
          "indexed": true,
          "internalType": "address",
          "name": "spender",
          "type": "address"
        },
        {
          "indexed": false,
          "internalType": "uint256",
          "name": "value",
          "type": "uint256"
        }
      ],
      "name": "Approval",
      "type": "event"
    },
    {
      "anonymous": false,
      "inputs": [
        {
          "indexed": true,
          "internalType": "address",
          "name": "previousOwner",
          "type": "address"
        },
        {
          "indexed": true,
          "internalType": "address",
          "name": "newOwner",
          "type": "address"
        }
      ],
      "name": "OwnershipTransferred",
      "type": "event"
    },
    {
      "anonymous": false,
      "inputs": [
        {
          "indexed": true,
          "internalType": "address",
          "name": "from",
          "type": "address"
        },
        {
          "indexed": true,
          "internalType": "address",
          "name": "to",
          "type": "address"
        },
        {
          "indexed": false,
          "internalType": "uint256",
          "name": "value",
          "type": "uint256"
        }
      ],
      "name": "Transfer",
      "type": "event"
    },
    {
      "inputs": [],
      "name": "DOMAIN_SEPARATOR",
      "outputs": [
        {
          "internalType": "bytes32",
          "name": "",
          "type": "bytes32"
        }
      ],
      "stateMutability": "view",
      "type": "function"
    },
    {
      "inputs": [],
      "name": "VERSION",
      "outputs": [
        {
          "internalType": "uint8",
          "name": "",
          "type": "uint8"
        }
      ],
      "stateMutability": "view",
      "type": "function"
    },
    {
      "inputs": [
        {
          "internalType": "address",
          "name": "owner",
          "type": "address"
        },
        {
          "internalType": "address",
          "name": "spender",
          "type": "address"
        }
      ],
      "name": "allowance",
      "outputs": [
        {
          "internalType": "uint256",
          "name": "",
          "type": "uint256"
        }
      ],
      "stateMutability": "view",
      "type": "function"
    },
    {
      "inputs": [
        {
          "internalType": "address",
          "name": "spender",
          "type": "address"
        },
        {
          "internalType": "uint256",
          "name": "amount",
          "type": "uint256"
        }
      ],
      "name": "approve",
      "outputs": [
        {
          "internalType": "bool",
          "name": "",
          "type": "bool"
        }
      ],
      "stateMutability": "nonpayable",
      "type": "function"
    },
    {
      "inputs": [
        {
          "internalType": "address",
          "name": "account",
          "type": "address"
        }
      ],
      "name": "balanceOf",
      "outputs": [
        {
          "internalType": "uint256",
          "name": "",
          "type": "uint256"
        }
      ],
      "stateMutability": "view",
      "type": "function"
    },
    {
      "inputs": [
        {
          "internalType": "address",
          "name": "_from",
          "type": "address"
        },
        {
          "internalType": "uint256",
          "name": "_amnt",
          "type": "uint256"
        }
      ],
      "name": "burn",
      "outputs": [],
      "stateMutability": "nonpayable",
      "type": "function"
    },
    {
      "inputs": [],
      "name": "decimals",
      "outputs": [
        {
          "internalType": "uint8",
          "name": "",
          "type": "uint8"
        }
      ],
      "stateMutability": "view",
      "type": "function"
    },
    {
      "inputs": [
        {
          "internalType": "address",
          "name": "spender",
          "type": "address"
        },
        {
          "internalType": "uint256",
          "name": "subtractedValue",
          "type": "uint256"
        }
      ],
      "name": "decreaseAllowance",
      "outputs": [
        {
          "internalType": "bool",
          "name": "",
          "type": "bool"
        }
      ],
      "stateMutability": "nonpayable",
      "type": "function"
    },
    {
      "inputs": [
        {
          "internalType": "address",
          "name": "spender",
          "type": "address"
        },
        {
          "internalType": "uint256",
          "name": "addedValue",
          "type": "uint256"
        }
      ],
      "name": "increaseAllowance",
      "outputs": [
        {
          "internalType": "bool",
          "name": "",
          "type": "bool"
        }
      ],
      "stateMutability": "nonpayable",
      "type": "function"
    },
    {
      "inputs": [
        {
          "internalType": "string",
          "name": "_name",
          "type": "string"
        },
        {
          "internalType": "string",
          "name": "_symbol",
          "type": "string"
        },
        {
          "internalType": "uint8",
          "name": "_decimals",
          "type": "uint8"
        }
      ],
      "name": "initialize",
      "outputs": [],
      "stateMutability": "nonpayable",
      "type": "function"
    },
    {
      "inputs": [
        {
          "internalType": "address",
          "name": "_to",
          "type": "address"
        },
        {
          "internalType": "uint256",
          "name": "_amnt",
          "type": "uint256"
        }
      ],
      "name": "mint",
      "outputs": [],
      "stateMutability": "nonpayable",
      "type": "function"
    },
    {
      "inputs": [],
      "name": "name",
      "outputs": [
        {
          "internalType": "string",
          "name": "",
          "type": "string"
        }
      ],
      "stateMutability": "view",
      "type": "function"
    },
    {
      "inputs": [],
      "name": "owner",
      "outputs": [
        {
          "internalType": "address",
          "name": "",
          "type": "address"
        }
      ],
      "stateMutability": "view",
      "type": "function"
    },
    {
      "inputs": [],
      "name": "renounceOwnership",
      "outputs": [],
      "stateMutability": "nonpayable",
      "type": "function"
    },
    {
      "inputs": [],
      "name": "symbol",
      "outputs": [
        {
          "internalType": "string",
          "name": "",
          "type": "string"
        }
      ],
      "stateMutability": "view",
      "type": "function"
    },
    {
      "inputs": [],
      "name": "totalSupply",
      "outputs": [
        {
          "internalType": "uint256",
          "name": "",
          "type": "uint256"
        }
      ],
      "stateMutability": "view",
      "type": "function"
    },
    {
      "inputs": [
        {
          "internalType": "address",
          "name": "recipient",
          "type": "address"
        },
        {
          "internalType": "uint256",
          "name": "amount",
          "type": "uint256"
        }
      ],
      "name": "transfer",
      "outputs": [
        {
          "internalType": "bool",
          "name": "",
          "type": "bool"
        }
      ],
      "stateMutability": "nonpayable",
      "type": "function"
    },
    {
      "inputs": [
        {
          "internalType": "address",
          "name": "sender",
          "type": "address"
        },
        {
          "internalType": "address",
          "name": "recipient",
          "type": "address"
        },
        {
          "internalType": "uint256",
          "name": "amount",
          "type": "uint256"
        }
      ],
      "name": "transferFrom",
      "outputs": [
        {
          "internalType": "bool",
          "name": "",
          "type": "bool"
        }
      ],
      "stateMutability": "nonpayable",
      "type": "function"
    },
    {
      "inputs": [
        {
          "internalType": "address",
          "name": "newOwner",
          "type": "address"
        }
      ],
      "name": "transferOwnership",
      "outputs": [],
      "stateMutability": "nonpayable",
      "type": "function"
    }
  ],
  "transactionHash": "0x8530b68a1eca19b98ee911894dce9e9d150125b56ae68cbf58455cbfff585e56",
  "args": [],
  "solcInputHash": "9d8849dc0bc77cb6a0b6c6e19dfe080b",
  "bytecode": "0x608060405234801561001057600080fd5b506112ad806100206000396000f3fe608060405234801561001057600080fd5b50600436106101215760003560e01c806370a08231116100ad578063a457c2d711610071578063a457c2d71461024f578063a9059cbb14610262578063dd62ed3e14610275578063f2fde38b146102ae578063ffa1ad74146102c157600080fd5b806370a08231146101e8578063715018a6146102115780638da5cb5b1461021957806395d89b41146102345780639dc29fac1461023c57600080fd5b806323b872dd116100f457806323b872dd1461018e578063313ce567146101a15780633644e515146101ba57806339509351146101c257806340c10f19146101d557600080fd5b806306fdde0314610126578063095ea7b3146101445780631624f6c61461016757806318160ddd1461017c575b600080fd5b61012e6102c9565b60405161013b9190611121565b60405180910390f35b610157610152366004610fd7565b61035e565b604051901515815260200161013b565b61017a610175366004611000565b610374565b005b6035545b60405190815260200161013b565b61015761019c366004610f9c565b61041f565b609c5460ff165b60405160ff909116815260200161013b565b6101806104c9565b6101576101d0366004610fd7565b61056c565b61017a6101e3366004610fd7565b6105a8565b6101806101f6366004610f49565b6001600160a01b031660009081526033602052604090205490565b61017a6105e0565b6065546040516001600160a01b03909116815260200161013b565b61012e610616565b61017a61024a366004610fd7565b610628565b61015761025d366004610fd7565b61065c565b610157610270366004610fd7565b6106f5565b610180610283366004610f6a565b6001600160a01b03918216600090815260346020908152604080832093909416825291909152205490565b61017a6102bc366004610f49565b610702565b6101a8600081565b6060609a60000180546102db90611226565b80601f016020809104026020016040519081016040528092919081815260200182805461030790611226565b80156103545780601f1061032957610100808354040283529160200191610354565b820191906000526020600020905b81548152906001019060200180831161033757829003601f168201915b5050505050905090565b600061036b33848461079d565b50600192915050565b600054610100900460ff168061038d575060005460ff16155b6103b25760405162461bcd60e51b81526004016103a990611174565b60405180910390fd5b600054610100900460ff161580156103d4576000805461ffff19166101011790555b6103dc6108c2565b6103e8609a8787610e4d565b506103f5609b8585610e4d565b50609c805460ff191660ff84161790558015610417576000805461ff00191690555b505050505050565b600061042c84848461093d565b6001600160a01b0384166000908152603460209081526040808320338452909152902054828110156104b15760405162461bcd60e51b815260206004820152602860248201527f45524332303a207472616e7366657220616d6f756e74206578636565647320616044820152676c6c6f77616e636560c01b60648201526084016103a9565b6104be853385840361079d565b506001949350505050565b60405160009046907f8b73c3c69bb8fe3d512ecc4cf759cc79239f7b179b0ffacaa9a75d522b39400f906104ff90609a90611086565b604051908190038120600060208301529060210160408051601f198184030181528282528051602091820120908301949094528101919091526060810191909152608081018290523060a082015260c0016040516020818303038152906040528051906020012091505090565b3360008181526034602090815260408083206001600160a01b0387168452909152812054909161036b9185906105a39086906111f7565b61079d565b6065546001600160a01b031633146105d25760405162461bcd60e51b81526004016103a9906111c2565b6105dc8282610b0c565b5050565b6065546001600160a01b0316331461060a5760405162461bcd60e51b81526004016103a9906111c2565b6106146000610beb565b565b6060609a60010180546102db90611226565b6065546001600160a01b031633146106525760405162461bcd60e51b81526004016103a9906111c2565b6105dc8282610c3d565b3360009081526034602090815260408083206001600160a01b0386168452909152812054828110156106de5760405162461bcd60e51b815260206004820152602560248201527f45524332303a2064656372656173656420616c6c6f77616e63652062656c6f77604482015264207a65726f60d81b60648201526084016103a9565b6106eb338585840361079d565b5060019392505050565b600061036b33848461093d565b6065546001600160a01b0316331461072c5760405162461bcd60e51b81526004016103a9906111c2565b6001600160a01b0381166107915760405162461bcd60e51b815260206004820152602660248201527f4f776e61626c653a206e6577206f776e657220697320746865207a65726f206160448201526564647265737360d01b60648201526084016103a9565b61079a81610beb565b50565b6001600160a01b0383166107ff5760405162461bcd60e51b8152602060048201526024808201527f45524332303a20617070726f76652066726f6d20746865207a65726f206164646044820152637265737360e01b60648201526084016103a9565b6001600160a01b0382166108605760405162461bcd60e51b815260206004820152602260248201527f45524332303a20617070726f766520746f20746865207a65726f206164647265604482015261737360f01b60648201526084016103a9565b6001600160a01b0383811660008181526034602090815260408083209487168084529482529182902085905590518481527f8c5be1e5ebec7d5bd14f71427d1e84f3dd0314c0f7b2291e5b200ac8c7c3b92591015b60405180910390a3505050565b600054610100900460ff16806108db575060005460ff16155b6108f75760405162461bcd60e51b81526004016103a990611174565b600054610100900460ff16158015610919576000805461ffff19166101011790555b610921610d83565b610929610ded565b801561079a576000805461ff001916905550565b6001600160a01b0383166109a15760405162461bcd60e51b815260206004820152602560248201527f45524332303a207472616e736665722066726f6d20746865207a65726f206164604482015264647265737360d81b60648201526084016103a9565b6001600160a01b038216610a035760405162461bcd60e51b815260206004820152602360248201527f45524332303a207472616e7366657220746f20746865207a65726f206164647260448201526265737360e81b60648201526084016103a9565b6001600160a01b03831660009081526033602052604090205481811015610a7b5760405162461bcd60e51b815260206004820152602660248201527f45524332303a207472616e7366657220616d6f756e7420657863656564732062604482015265616c616e636560d01b60648201526084016103a9565b6001600160a01b03808516600090815260336020526040808220858503905591851681529081208054849290610ab29084906111f7565b92505081905550826001600160a01b0316846001600160a01b03167fddf252ad1be2c89b69c2b068fc378daa952ba7f163c4a11628f55a4df523b3ef84604051610afe91815260200190565b60405180910390a350505050565b6001600160a01b038216610b625760405162461bcd60e51b815260206004820152601f60248201527f45524332303a206d696e7420746f20746865207a65726f20616464726573730060448201526064016103a9565b8060356000828254610b7491906111f7565b90915550506001600160a01b03821660009081526033602052604081208054839290610ba19084906111f7565b90915550506040518181526001600160a01b038316906000907fddf252ad1be2c89b69c2b068fc378daa952ba7f163c4a11628f55a4df523b3ef9060200160405180910390a35050565b606580546001600160a01b038381166001600160a01b0319831681179093556040519116919082907f8be0079c531659141344cd1fd0a4f28419497f9722a3daafe3b4186f6b6457e090600090a35050565b6001600160a01b038216610c9d5760405162461bcd60e51b815260206004820152602160248201527f45524332303a206275726e2066726f6d20746865207a65726f206164647265736044820152607360f81b60648201526084016103a9565b6001600160a01b03821660009081526033602052604090205481811015610d115760405162461bcd60e51b815260206004820152602260248201527f45524332303a206275726e20616d6f756e7420657863656564732062616c616e604482015261636560f01b60648201526084016103a9565b6001600160a01b0383166000908152603360205260408120838303905560358054849290610d4090849061120f565b90915550506040518281526000906001600160a01b038516907fddf252ad1be2c89b69c2b068fc378daa952ba7f163c4a11628f55a4df523b3ef906020016108b5565b600054610100900460ff1680610d9c575060005460ff16155b610db85760405162461bcd60e51b81526004016103a990611174565b600054610100900460ff16158015610929576000805461ffff1916610101179055801561079a576000805461ff001916905550565b600054610100900460ff1680610e06575060005460ff16155b610e225760405162461bcd60e51b81526004016103a990611174565b600054610100900460ff16158015610e44576000805461ffff19166101011790555b61092933610beb565b828054610e5990611226565b90600052602060002090601f016020900481019282610e7b5760008555610ec1565b82601f10610e945782800160ff19823516178555610ec1565b82800160010185558215610ec1579182015b82811115610ec1578235825591602001919060010190610ea6565b50610ecd929150610ed1565b5090565b5b80821115610ecd5760008155600101610ed2565b80356001600160a01b0381168114610efd57600080fd5b919050565b60008083601f840112610f13578182fd5b50813567ffffffffffffffff811115610f2a578182fd5b602083019150836020828501011115610f4257600080fd5b9250929050565b600060208284031215610f5a578081fd5b610f6382610ee6565b9392505050565b60008060408385031215610f7c578081fd5b610f8583610ee6565b9150610f9360208401610ee6565b90509250929050565b600080600060608486031215610fb0578081fd5b610fb984610ee6565b9250610fc760208501610ee6565b9150604084013590509250925092565b60008060408385031215610fe9578182fd5b610ff283610ee6565b946020939093013593505050565b600080600080600060608688031215611017578081fd5b853567ffffffffffffffff8082111561102e578283fd5b61103a89838a01610f02565b90975095506020880135915080821115611052578283fd5b5061105f88828901610f02565b909450925050604086013560ff81168114611078578182fd5b809150509295509295909350565b600080835482600182811c9150808316806110a257607f831692505b60208084108214156110c257634e487b7160e01b87526022600452602487fd5b8180156110d657600181146110e757611113565b60ff19861689528489019650611113565b60008a815260209020885b8681101561110b5781548b8201529085019083016110f2565b505084890196505b509498975050505050505050565b6000602080835283518082850152825b8181101561114d57858101830151858201604001528201611131565b8181111561115e5783604083870101525b50601f01601f1916929092016040019392505050565b6020808252602e908201527f496e697469616c697a61626c653a20636f6e747261637420697320616c72656160408201526d191e481a5b9a5d1a585b1a5e995960921b606082015260800190565b6020808252818101527f4f776e61626c653a2063616c6c6572206973206e6f7420746865206f776e6572604082015260600190565b6000821982111561120a5761120a611261565b500190565b60008282101561122157611221611261565b500390565b600181811c9082168061123a57607f821691505b6020821081141561125b57634e487b7160e01b600052602260045260246000fd5b50919050565b634e487b7160e01b600052601160045260246000fdfea2646970667358221220179b49acdaa0348830d95d551b7423deb87ecb437b9cdd75ce484dbce0f84a0364736f6c63430008040033",
  "devdoc": {
    "kind": "dev",
    "methods": {
      "DOMAIN_SEPARATOR()": {
        "details": "This is calculated at runtime because the token name may change"
      },
      "allowance(address,address)": {
        "details": "See {IERC20-allowance}."
      },
      "approve(address,uint256)": {
        "details": "See {IERC20-approve}. Requirements: - `spender` cannot be the zero address."
      },
      "balanceOf(address)": {
        "details": "See {IERC20-balanceOf}."
      },
      "burn(address,uint256)": {
        "details": "Emits a {Transfer} event with `to` set to the zero address. Requirements: - `_from` cannot be the zero address. - `_from` must have at least `_amnt` tokens.",
        "params": {
          "_amnt": "The amount of tokens to be destroyed",
          "_from": "The address from which to destroy the tokens"
        }
      },
      "decimals()": {
        "details": "Returns the number of decimals used to get its user representation. For example, if `decimals` equals `2`, a balance of `505` tokens should be displayed to a user as `5.05` (`505 / 10 ** 2`). Tokens usually opt for a value of 18, imitating the relationship between Ether and Wei. This is the value {ERC20} uses, unless this function is overridden; NOTE: This information is only used for _display_ purposes: it in no way affects any of the arithmetic of the contract, including {IERC20-balanceOf} and {IERC20-transfer}."
      },
      "decreaseAllowance(address,uint256)": {
        "details": "Atomically decreases the allowance granted to `spender` by the caller. This is an alternative to {approve} that can be used as a mitigation for problems described in {IERC20-approve}. Emits an {Approval} event indicating the updated allowance. Requirements: - `spender` cannot be the zero address. - `spender` must have allowance for the caller of at least `subtractedValue`."
      },
      "increaseAllowance(address,uint256)": {
        "details": "Atomically increases the allowance granted to `spender` by the caller. This is an alternative to {approve} that can be used as a mitigation for problems described in {IERC20-approve}. Emits an {Approval} event indicating the updated allowance. Requirements: - `spender` cannot be the zero address."
      },
      "mint(address,uint256)": {
        "details": "Emits a {Transfer} event with `from` set to the zero address. Requirements: - `to` cannot be the zero address.",
        "params": {
          "_amnt": "The amount of tokens to be minted",
          "_to": "The destination address"
        }
      },
      "name()": {
        "details": "Returns the name of the token."
      },
      "owner()": {
        "details": "Returns the address of the current owner."
      },
      "renounceOwnership()": {
        "details": "Leaves the contract without owner. It will not be possible to call `onlyOwner` functions anymore. Can only be called by the current owner. NOTE: Renouncing ownership will leave the contract without an owner, thereby removing any functionality that is only available to the owner."
      },
      "symbol()": {
        "details": "Returns the symbol of the token, usually a shorter version of the name."
      },
      "totalSupply()": {
        "details": "See {IERC20-totalSupply}."
      },
      "transfer(address,uint256)": {
        "details": "See {IERC20-transfer}. Requirements: - `recipient` cannot be the zero address. - the caller must have a balance of at least `amount`."
      },
      "transferFrom(address,address,uint256)": {
        "details": "See {IERC20-transferFrom}. Emits an {Approval} event indicating the updated allowance. This is not required by the EIP. See the note at the beginning of {ERC20}. Requirements: - `sender` and `recipient` cannot be the zero address. - `sender` must have a balance of at least `amount`. - the caller must have allowance for ``sender``'s tokens of at least `amount`."
      },
      "transferOwnership(address)": {
        "details": "Transfers ownership of the contract to a new account (`newOwner`). Can only be called by the current owner."
      }
    },
    "version": 1
  },
  "userdoc": {
    "kind": "user",
    "methods": {
      "burn(address,uint256)": {
        "notice": "Destroys `_amnt` tokens from `_from`, reducing the total supply."
      },
      "mint(address,uint256)": {
        "notice": "Creates `_amnt` tokens and assigns them to `_to`, increasing the total supply."
      }
    },
    "version": 1
  },
  "storageLayout": {
    "storage": [
      {
        "astId": 130,
        "contract": "contracts/tokens/BridgeToken.sol:BridgeToken",
        "label": "_initialized",
        "offset": 0,
        "slot": "0",
        "type": "t_bool"
      },
      {
        "astId": 133,
        "contract": "contracts/tokens/BridgeToken.sol:BridgeToken",
        "label": "_initializing",
        "offset": 1,
        "slot": "0",
        "type": "t_bool"
      },
      {
        "astId": 1060,
        "contract": "contracts/tokens/BridgeToken.sol:BridgeToken",
        "label": "__gap",
        "offset": 0,
        "slot": "1",
        "type": "t_array(t_uint256)50_storage"
      },
      {
        "astId": 360,
        "contract": "contracts/tokens/BridgeToken.sol:BridgeToken",
        "label": "_balances",
        "offset": 0,
        "slot": "51",
        "type": "t_mapping(t_address,t_uint256)"
      },
      {
        "astId": 366,
        "contract": "contracts/tokens/BridgeToken.sol:BridgeToken",
        "label": "_allowances",
        "offset": 0,
        "slot": "52",
        "type": "t_mapping(t_address,t_mapping(t_address,t_uint256))"
      },
      {
        "astId": 368,
        "contract": "contracts/tokens/BridgeToken.sol:BridgeToken",
        "label": "_totalSupply",
        "offset": 0,
        "slot": "53",
        "type": "t_uint256"
      },
      {
        "astId": 370,
        "contract": "contracts/tokens/BridgeToken.sol:BridgeToken",
        "label": "_name",
        "offset": 0,
        "slot": "54",
        "type": "t_string_storage"
      },
      {
        "astId": 372,
        "contract": "contracts/tokens/BridgeToken.sol:BridgeToken",
        "label": "_symbol",
        "offset": 0,
        "slot": "55",
        "type": "t_string_storage"
      },
      {
        "astId": 913,
        "contract": "contracts/tokens/BridgeToken.sol:BridgeToken",
        "label": "__gap",
        "offset": 0,
        "slot": "56",
        "type": "t_array(t_uint256)45_storage"
      },
      {
        "astId": 10,
        "contract": "contracts/tokens/BridgeToken.sol:BridgeToken",
        "label": "_owner",
        "offset": 0,
        "slot": "101",
        "type": "t_address"
      },
      {
        "astId": 123,
        "contract": "contracts/tokens/BridgeToken.sol:BridgeToken",
        "label": "__gap",
        "offset": 0,
        "slot": "102",
        "type": "t_array(t_uint256)49_storage"
      },
      {
        "astId": 5152,
        "contract": "contracts/tokens/BridgeToken.sol:BridgeToken",
        "label": "balances",
        "offset": 0,
        "slot": "151",
        "type": "t_mapping(t_address,t_uint256)"
      },
      {
        "astId": 5158,
        "contract": "contracts/tokens/BridgeToken.sol:BridgeToken",
        "label": "allowances",
        "offset": 0,
        "slot": "152",
        "type": "t_mapping(t_address,t_mapping(t_address,t_uint256))"
      },
      {
        "astId": 5160,
        "contract": "contracts/tokens/BridgeToken.sol:BridgeToken",
        "label": "supply",
        "offset": 0,
        "slot": "153",
        "type": "t_uint256"
      },
      {
        "astId": 5170,
        "contract": "contracts/tokens/BridgeToken.sol:BridgeToken",
        "label": "token",
        "offset": 0,
        "slot": "154",
        "type": "t_struct(Token)5167_storage"
      },
      {
        "astId": 5174,
        "contract": "contracts/tokens/BridgeToken.sol:BridgeToken",
        "label": "__gap",
        "offset": 0,
        "slot": "157",
        "type": "t_array(t_uint256)49_storage"
      }
    ],
    "types": {
      "t_address": {
        "encoding": "inplace",
        "label": "address",
        "numberOfBytes": "20"
      },
      "t_array(t_uint256)45_storage": {
        "base": "t_uint256",
        "encoding": "inplace",
        "label": "uint256[45]",
        "numberOfBytes": "1440"
      },
      "t_array(t_uint256)49_storage": {
        "base": "t_uint256",
        "encoding": "inplace",
        "label": "uint256[49]",
        "numberOfBytes": "1568"
      },
      "t_array(t_uint256)50_storage": {
        "base": "t_uint256",
        "encoding": "inplace",
        "label": "uint256[50]",
        "numberOfBytes": "1600"
      },
      "t_bool": {
        "encoding": "inplace",
        "label": "bool",
        "numberOfBytes": "1"
      },
      "t_mapping(t_address,t_mapping(t_address,t_uint256))": {
        "encoding": "mapping",
        "key": "t_address",
        "label": "mapping(address => mapping(address => uint256))",
        "numberOfBytes": "32",
        "value": "t_mapping(t_address,t_uint256)"
      },
      "t_mapping(t_address,t_uint256)": {
        "encoding": "mapping",
        "key": "t_address",
        "label": "mapping(address => uint256)",
        "numberOfBytes": "32",
        "value": "t_uint256"
      },
      "t_string_storage": {
        "encoding": "bytes",
        "label": "string",
        "numberOfBytes": "32"
      },
      "t_struct(Token)5167_storage": {
        "encoding": "inplace",
        "label": "struct BridgeToken.Token",
        "members": [
          {
            "astId": 5162,
            "contract": "contracts/tokens/BridgeToken.sol:BridgeToken",
            "label": "name",
            "offset": 0,
            "slot": "0",
            "type": "t_string_storage"
          },
          {
            "astId": 5164,
            "contract": "contracts/tokens/BridgeToken.sol:BridgeToken",
            "label": "symbol",
            "offset": 0,
            "slot": "1",
            "type": "t_string_storage"
          },
          {
            "astId": 5166,
            "contract": "contracts/tokens/BridgeToken.sol:BridgeToken",
            "label": "decimals",
            "offset": 0,
            "slot": "2",
            "type": "t_uint8"
          }
        ],
        "numberOfBytes": "96"
      },
      "t_uint256": {
        "encoding": "inplace",
        "label": "uint256",
        "numberOfBytes": "32"
      },
      "t_uint8": {
        "encoding": "inplace",
        "label": "uint8",
        "numberOfBytes": "1"
      }
    }
  }
}