{
  "address": "0xDD5eD0737F1B7F10570A2219500bAa8b8c78508b",
  "abi": [
    {
      "inputs": [],
      "stateMutability": "nonpayable",
      "type": "constructor"
    },
    {
      "anonymous": false,
      "inputs": [
        {
          "indexed": true,
          "internalType": "address",
          "name": "previousOwner",
          "type": "address"
        },
        {
          "indexed": true,
          "internalType": "address",
          "name": "newOwner",
          "type": "address"
        }
      ],
      "name": "OwnershipTransferred",
      "type": "event"
    },
    {
      "anonymous": false,
      "inputs": [
        {
          "indexed": true,
          "internalType": "address",
          "name": "addr",
          "type": "address"
        },
        {
          "indexed": false,
          "internalType": "uint256",
          "name": "chainId",
          "type": "uint256"
        }
      ],
      "name": "TokenAdded",
      "type": "event"
    },
    {
      "anonymous": false,
      "inputs": [
        {
          "indexed": true,
          "internalType": "address",
          "name": "addr",
          "type": "address"
        },
        {
          "indexed": false,
          "internalType": "uint256",
          "name": "chainId",
          "type": "uint256"
        }
      ],
      "name": "TokenRemoved",
      "type": "event"
    },
    {
      "inputs": [],
      "name": "MAX_SIZE",
      "outputs": [
        {
          "internalType": "uint8",
          "name": "",
          "type": "uint8"
        }
      ],
      "stateMutability": "view",
      "type": "function"
    },
    {
      "inputs": [
        {
          "internalType": "address",
          "name": "sourceAddr",
          "type": "address"
        },
        {
          "internalType": "uint256",
          "name": "targetChainId",
          "type": "uint256"
        }
      ],
      "name": "getLocal",
      "outputs": [
        {
          "components": [
            {
              "internalType": "address",
              "name": "addr",
              "type": "address"
            },
            {
              "internalType": "uint256",
              "name": "chainId",
              "type": "uint256"
            },
            {
              "internalType": "enum RToken.IssueType",
              "name": "issueType",
              "type": "uint8"
            },
            {
              "internalType": "bool",
              "name": "exist",
              "type": "bool"
            }
          ],
          "internalType": "struct RToken.Token",
          "name": "token",
          "type": "tuple"
        }
      ],
      "stateMutability": "view",
      "type": "function"
    },
    {
      "inputs": [
        {
          "internalType": "uint256",
          "name": "targetChainId",
          "type": "uint256"
        }
      ],
      "name": "isZero",
      "outputs": [
        {
          "internalType": "bool",
          "name": "",
          "type": "bool"
        }
      ],
      "stateMutability": "view",
      "type": "function"
    },
    {
      "inputs": [
        {
          "internalType": "address[]",
          "name": "tokens",
          "type": "address[]"
        },
        {
          "internalType": "enum RToken.IssueType[]",
          "name": "issueTypes",
          "type": "uint8[]"
        },
        {
          "internalType": "uint256",
          "name": "targetChainId",
          "type": "uint256"
        }
      ],
      "name": "issue",
      "outputs": [],
      "stateMutability": "nonpayable",
      "type": "function"
    },
    {
      "inputs": [],
      "name": "owner",
      "outputs": [
        {
          "internalType": "address",
          "name": "",
          "type": "address"
        }
      ],
      "stateMutability": "view",
      "type": "function"
    },
    {
      "inputs": [],
      "name": "renounceOwnership",
      "outputs": [],
      "stateMutability": "nonpayable",
      "type": "function"
    },
    {
      "inputs": [
        {
          "internalType": "address",
          "name": "targetAddr",
          "type": "address"
        }
      ],
      "name": "revoke",
      "outputs": [],
      "stateMutability": "nonpayable",
      "type": "function"
    },
    {
      "inputs": [
        {
          "internalType": "bytes4",
          "name": "interfaceId",
          "type": "bytes4"
        }
      ],
      "name": "supportsInterface",
      "outputs": [
        {
          "internalType": "bool",
          "name": "",
          "type": "bool"
        }
      ],
      "stateMutability": "view",
      "type": "function"
    },
    {
      "inputs": [
        {
          "internalType": "address",
          "name": "newOwner",
          "type": "address"
        }
      ],
      "name": "transferOwnership",
      "outputs": [],
      "stateMutability": "nonpayable",
      "type": "function"
    }
  ],
  "transactionHash": "0x692188c11ebadfbf78ee5d4d0df2171f990d234b9e20703c955bbb8ed5654db1",
  "args": [],
  "solcInputHash": "194134fc031940f179c39ca2faff4e88",
  "bytecode": "0x60c060405234801561001057600080fd5b5061001a33610078565b6100256001436100c8565b604080519140602083015242908201524460608083019190915241901b6001600160601b031916608082015260940160408051601f1981840301815291905280516020909101206080524660a0526100eb565b600080546001600160a01b038381166001600160a01b0319831681178455604051919092169283917f8be0079c531659141344cd1fd0a4f28419497f9722a3daafe3b4186f6b6457e09190a35050565b6000828210156100e657634e487b7160e01b81526011600452602481fd5b500390565b60805160a051610fd361012c6000396000818161025a015281816102f70152818161046a015281816107d50152610b5d01526000610cdf0152610fd36000f3fe608060405234801561001057600080fd5b50600436106100935760003560e01c80637a38f9eb116100665780637a38f9eb146100f05780638d67799e146101035780638da5cb5b1461011d578063e0f5ee3214610138578063f2fde38b1461015857600080fd5b806301ffc9a7146100985780632db62249146100c0578063715018a6146100d557806374a8f103146100dd575b600080fd5b6100ab6100a6366004610eb1565b61016b565b60405190151581526020015b60405180910390f35b6100d36100ce366004610e40565b6101a2565b005b6100d3610769565b6100d36100eb366004610df6565b61079f565b6100ab6100fe366004610ef8565b610ac6565b61010b600281565b60405160ff90911681526020016100b7565b6000546040516001600160a01b0390911681526020016100b7565b61014b610146366004610e17565b610b09565b6040516100b79190610f45565b6100d3610166366004610df6565b610c3e565b60006001600160e01b0319821663c3d3c49360e01b148061019c57506301ffc9a760e01b6001600160e01b03198316145b92915050565b6000546001600160a01b031633146101d55760405162461bcd60e51b81526004016101cc90610f10565b60405180910390fd5b8382146102185760405162461bcd60e51b8152602060048201526011602482015270084a89a7440aea49e9c8ebe988a9c8ea89607b1b60448201526064016101cc565b600284146102585760405162461bcd60e51b815260206004820152600d60248201526c42544d3a204d41585f53495a4560981b60448201526064016101cc565b7f00000000000000000000000000000000000000000000000000000000000000008114156102ba5760405162461bcd60e51b815260206004820152600f60248201526e212a269d1029a0a6a2afa1a420a4a760891b60448201526064016101cc565b600061031b868660018181106102e057634e487b7160e01b600052603260045260246000fd5b90506020020160208101906102f59190610df6565b7f0000000000000000000000000000000000000000000000000000000000000000610cd9565b6000818152600160205260409020549091501561036e5760405162461bcd60e51b81526020600482015260116024820152701095134e8814d3d55490d157d1561254d5607a1b60448201526064016101cc565b60006103af8787600081811061039457634e487b7160e01b600052603260045260246000fd5b90506020020160208101906103a99190610df6565b84610cd9565b600081815260016020526040902054909150156104025760405162461bcd60e51b81526020600482015260116024820152701095134e8815105491d15517d1561254d5607a1b60448201526064016101cc565b600082815260016020526040808220839055828252808220849055805160808101909152808989848161044557634e487b7160e01b600052603260045260246000fd5b905060200201602081019061045a9190610df6565b6001600160a01b031681526020017f00000000000000000000000000000000000000000000000000000000000000008152602001878760008181106104af57634e487b7160e01b600052603260045260246000fd5b90506020020160208101906104c49190610ed9565b60018111156104e357634e487b7160e01b600052602160045260246000fd5b8152602001600115158152509050600060405180608001604052808a8a600181811061051f57634e487b7160e01b600052603260045260246000fd5b90506020020160208101906105349190610df6565b6001600160a01b031681526020018681526020018888600181811061056957634e487b7160e01b600052603260045260246000fd5b905060200201602081019061057e9190610ed9565b600181111561059d57634e487b7160e01b600052602160045260246000fd5b81526001602091820181905260008781526002808452604091829020875181546001600160a01b0319166001600160a01b03909116178155938701518484015590860151908301805494955086949192909160ff191690838181111561061357634e487b7160e01b600052602160045260246000fd5b0217905550606091909101516002918201805461ff0019166101009215159290920291909117905560008481526020828152604091829020845181546001600160a01b0319166001600160a01b03909116178155908401516001828101919091559184015192810180548594929360ff199091169083818111156106a757634e487b7160e01b600052602160045260246000fd5b021790555060609190910151600290910180549115156101000261ff001990921691909117905581516020808401516040519081526001600160a01b03909216917ff4c563a3ea86ff1f4275e8c207df0375a51963f2b831b7bf4da8be938d92876c910160405180910390a280600001516001600160a01b03167ff4c563a3ea86ff1f4275e8c207df0375a51963f2b831b7bf4da8be938d92876c826020015160405161075691815260200190565b60405180910390a2505050505050505050565b6000546001600160a01b031633146107935760405162461bcd60e51b81526004016101cc90610f10565b61079d6000610d40565b565b6000546001600160a01b031633146107c95760405162461bcd60e51b81526004016101cc90610f10565b6000600160006107f9847f0000000000000000000000000000000000000000000000000000000000000000610cd9565b815260208101919091526040016000205490508061084a5760405162461bcd60e51b815260206004820152600e60248201526d1095134e881393d517d1561254d560921b60448201526064016101cc565b600081815260016020526040902054806108975760405162461bcd60e51b815260206004820152600e60248201526d1095134e881393d517d1561254d560921b60448201526064016101cc565b60008281526001602081815260408084208490558484528084208490558584526002808352818520825160808101845281546001600160a01b03168152818601549481019490945290810154929390929184019160ff169081111561090c57634e487b7160e01b600052602160045260246000fd5b600181111561092b57634e487b7160e01b600052602160045260246000fd5b815260029182015460ff6101009091048116151560209283015260008681528383526040808220815160808101835281546001600160a01b031681526001828101549682019690965295810154969750919591939085019291909116908111156109a557634e487b7160e01b600052602160045260246000fd5b60018111156109c457634e487b7160e01b600052602160045260246000fd5b8152600291820154610100900460ff1615156020918201526000878152828252604080822080546001600160a01b031990811682556001808301859055918601805461ffff199081169091558a85528385208054909216825591810193909355919093018054909116905584518582015192519283529293506001600160a01b03909216917fbe9bb4bdca0a094babd75e3a98b1d2e2390633430d0a2f6e2b9970e2ee03fb2e910160405180910390a280600001516001600160a01b03167fbe9bb4bdca0a094babd75e3a98b1d2e2390633430d0a2f6e2b9970e2ee03fb2e8260200151604051610ab791815260200190565b60405180910390a25050505050565b600080610ad4600084610b09565b90508060600151610ae85750600092915050565b80516001600160a01b0316610b005750600192915050565b50600092915050565b604080516080810182526000808252602082018190529181018290526060810182905290600181610b3a8686610cd9565b8152602081019190915260400160002054905080610b58575061019c565b6000837f000000000000000000000000000000000000000000000000000000000000000014610b88575080610b99565b506000818152600160205260409020545b600081815260026020818152604092839020835160808101855281546001600160a01b031681526001808301549382019390935292810154929390929084019160ff90911690811115610bfc57634e487b7160e01b600052602160045260246000fd5b6001811115610c1b57634e487b7160e01b600052602160045260246000fd5b815260029190910154610100900460ff1615156020909101529250505092915050565b6000546001600160a01b03163314610c685760405162461bcd60e51b81526004016101cc90610f10565b6001600160a01b038116610ccd5760405162461bcd60e51b815260206004820152602660248201527f4f776e61626c653a206e6577206f776e657220697320746865207a65726f206160448201526564647265737360d01b60648201526084016101cc565b610cd681610d40565b50565b604080517f000000000000000000000000000000000000000000000000000000000000000060208083019190915260609490941b6bffffffffffffffffffffffff191681830152605480820193909352815180820390930183526074019052805191012090565b600080546001600160a01b038381166001600160a01b0319831681178455604051919092169283917f8be0079c531659141344cd1fd0a4f28419497f9722a3daafe3b4186f6b6457e09190a35050565b80356001600160a01b0381168114610da757600080fd5b919050565b60008083601f840112610dbd578182fd5b50813567ffffffffffffffff811115610dd4578182fd5b6020830191508360208260051b8501011115610def57600080fd5b9250929050565b600060208284031215610e07578081fd5b610e1082610d90565b9392505050565b60008060408385031215610e29578081fd5b610e3283610d90565b946020939093013593505050565b600080600080600060608688031215610e57578081fd5b853567ffffffffffffffff80821115610e6e578283fd5b610e7a89838a01610dac565b90975095506020880135915080821115610e92578283fd5b50610e9f88828901610dac565b96999598509660400135949350505050565b600060208284031215610ec2578081fd5b81356001600160e01b031981168114610e10578182fd5b600060208284031215610eea578081fd5b813560028110610e10578182fd5b600060208284031215610f09578081fd5b5035919050565b6020808252818101527f4f776e61626c653a2063616c6c6572206973206e6f7420746865206f776e6572604082015260600190565b81516001600160a01b03168152602080830151908201526040820151608082019060028110610f8457634e487b7160e01b600052602160045260246000fd5b806040840152506060830151151560608301529291505056fea2646970667358221220586db41892257fb45a4ae515adea7e2084b06a770b350bd55898b8d80edf448264736f6c63430008040033",
  "devdoc": {
    "kind": "dev",
    "methods": {
      "getLocal(address,uint256)": {
        "details": "This should be responsible to get token mapping for current chain",
        "params": {
          "sourceAddr": "address of source token",
          "targetChainId": "of token on target"
        }
      },
      "issue(address[],uint8[],uint256)": {
        "details": "This should be responsible to connect tokens between chains",
        "params": {
          "issueTypes": "for tokens",
          "targetChainId": "of remote token",
          "tokens": "addresses on link connection"
        }
      },
      "owner()": {
        "details": "Returns the address of the current owner."
      },
      "renounceOwnership()": {
        "details": "Leaves the contract without owner. It will not be possible to call `onlyOwner` functions anymore. Can only be called by the current owner. NOTE: Renouncing ownership will leave the contract without an owner, thereby removing any functionality that is only available to the owner."
      },
      "revoke(address)": {
        "details": "This should be responsible to remove tokens connection between chains",
        "params": {
          "targetAddr": "address of target token"
        }
      },
      "supportsInterface(bytes4)": {
        "details": "See {IERC165-supportsInterface}."
      },
      "transferOwnership(address)": {
        "details": "Transfers ownership of the contract to a new account (`newOwner`). Can only be called by the current owner."
      }
    },
    "version": 1
  },
  "userdoc": {
    "kind": "user",
    "methods": {},
    "version": 1
  },
  "storageLayout": {
    "storage": [
      {
        "astId": 1069,
        "contract": "contracts/managers/BridgeTokenManager.sol:BridgeTokenManager",
        "label": "_owner",
        "offset": 0,
        "slot": "0",
        "type": "t_address"
      },
      {
        "astId": 4720,
        "contract": "contracts/managers/BridgeTokenManager.sol:BridgeTokenManager",
        "label": "_keychain",
        "offset": 0,
        "slot": "1",
        "type": "t_mapping(t_bytes32,t_bytes32)"
      },
      {
        "astId": 4725,
        "contract": "contracts/managers/BridgeTokenManager.sol:BridgeTokenManager",
        "label": "_tokens",
        "offset": 0,
        "slot": "2",
        "type": "t_mapping(t_bytes32,t_struct(Token)4011_storage)"
      }
    ],
    "types": {
      "t_address": {
        "encoding": "inplace",
        "label": "address",
        "numberOfBytes": "20"
      },
      "t_bool": {
        "encoding": "inplace",
        "label": "bool",
        "numberOfBytes": "1"
      },
      "t_bytes32": {
        "encoding": "inplace",
        "label": "bytes32",
        "numberOfBytes": "32"
      },
      "t_enum(IssueType)4001": {
        "encoding": "inplace",
        "label": "enum RToken.IssueType",
        "numberOfBytes": "1"
      },
      "t_mapping(t_bytes32,t_bytes32)": {
        "encoding": "mapping",
        "key": "t_bytes32",
        "label": "mapping(bytes32 => bytes32)",
        "numberOfBytes": "32",
        "value": "t_bytes32"
      },
      "t_mapping(t_bytes32,t_struct(Token)4011_storage)": {
        "encoding": "mapping",
        "key": "t_bytes32",
        "label": "mapping(bytes32 => struct RToken.Token)",
        "numberOfBytes": "32",
        "value": "t_struct(Token)4011_storage"
      },
      "t_struct(Token)4011_storage": {
        "encoding": "inplace",
        "label": "struct RToken.Token",
        "members": [
          {
            "astId": 4003,
            "contract": "contracts/managers/BridgeTokenManager.sol:BridgeTokenManager",
            "label": "addr",
            "offset": 0,
            "slot": "0",
            "type": "t_address"
          },
          {
            "astId": 4005,
            "contract": "contracts/managers/BridgeTokenManager.sol:BridgeTokenManager",
            "label": "chainId",
            "offset": 0,
            "slot": "1",
            "type": "t_uint256"
          },
          {
            "astId": 4008,
            "contract": "contracts/managers/BridgeTokenManager.sol:BridgeTokenManager",
            "label": "issueType",
            "offset": 0,
            "slot": "2",
            "type": "t_enum(IssueType)4001"
          },
          {
            "astId": 4010,
            "contract": "contracts/managers/BridgeTokenManager.sol:BridgeTokenManager",
            "label": "exist",
            "offset": 1,
            "slot": "2",
            "type": "t_bool"
          }
        ],
        "numberOfBytes": "96"
      },
      "t_uint256": {
        "encoding": "inplace",
        "label": "uint256",
        "numberOfBytes": "32"
      }
    }
  }
}