{
  "address": "0x37CD2897fbF47fb368B98F96eF9FDC46a97E0277",
  "abi": [
    {
      "anonymous": false,
      "inputs": [
        {
          "indexed": true,
          "internalType": "address",
          "name": "token",
          "type": "address"
        },
        {
          "indexed": true,
          "internalType": "address",
          "name": "exitor",
          "type": "address"
        },
        {
          "indexed": false,
          "internalType": "uint256",
          "name": "amount",
          "type": "uint256"
        },
        {
          "indexed": false,
          "internalType": "uint256",
          "name": "nonce",
          "type": "uint256"
        },
        {
          "indexed": false,
          "internalType": "uint256",
          "name": "localChainId",
          "type": "uint256"
        },
        {
          "indexed": false,
          "internalType": "uint256",
          "name": "targetChainId",
          "type": "uint256"
        }
      ],
      "name": "Enter",
      "type": "event"
    },
    {
      "anonymous": false,
      "inputs": [
        {
          "indexed": true,
          "internalType": "address",
          "name": "token",
          "type": "address"
        },
        {
          "indexed": true,
          "internalType": "address",
          "name": "exitor",
          "type": "address"
        },
        {
          "indexed": false,
          "internalType": "uint256",
          "name": "amount",
          "type": "uint256"
        },
        {
          "indexed": false,
          "internalType": "bytes32",
          "name": "commitment",
          "type": "bytes32"
        },
        {
          "indexed": false,
          "internalType": "uint256",
          "name": "localChainId",
          "type": "uint256"
        },
        {
          "indexed": false,
          "internalType": "uint256",
          "name": "extChainId",
          "type": "uint256"
        }
      ],
      "name": "Exit",
      "type": "event"
    },
    {
      "anonymous": false,
      "inputs": [
        {
          "indexed": true,
          "internalType": "address",
          "name": "previousOwner",
          "type": "address"
        },
        {
          "indexed": true,
          "internalType": "address",
          "name": "newOwner",
          "type": "address"
        }
      ],
      "name": "OwnershipTransferred",
      "type": "event"
    },
    {
      "anonymous": false,
      "inputs": [
        {
          "indexed": false,
          "internalType": "address",
          "name": "account",
          "type": "address"
        }
      ],
      "name": "Paused",
      "type": "event"
    },
    {
      "anonymous": false,
      "inputs": [
        {
          "indexed": false,
          "internalType": "address",
          "name": "account",
          "type": "address"
        }
      ],
      "name": "Unpaused",
      "type": "event"
    },
    {
      "inputs": [],
      "name": "VERSION",
      "outputs": [
        {
          "internalType": "uint8",
          "name": "",
          "type": "uint8"
        }
      ],
      "stateMutability": "view",
      "type": "function"
    },
    {
      "inputs": [],
      "name": "cosignerManager",
      "outputs": [
        {
          "internalType": "contract IBridgeCosignerManager",
          "name": "",
          "type": "address"
        }
      ],
      "stateMutability": "view",
      "type": "function"
    },
    {
      "inputs": [
        {
          "internalType": "address",
          "name": "token",
          "type": "address"
        },
        {
          "internalType": "uint256",
          "name": "amount",
          "type": "uint256"
        },
        {
          "internalType": "uint256",
          "name": "targetChainId",
          "type": "uint256"
        }
      ],
      "name": "enter",
      "outputs": [],
      "stateMutability": "nonpayable",
      "type": "function"
    },
    {
      "inputs": [
        {
          "internalType": "uint256",
          "name": "targetChainId",
          "type": "uint256"
        }
      ],
      "name": "enterETH",
      "outputs": [],
      "stateMutability": "payable",
      "type": "function"
    },
    {
      "inputs": [
        {
          "internalType": "bytes",
          "name": "data",
          "type": "bytes"
        },
        {
          "internalType": "bytes[]",
          "name": "signatures",
          "type": "bytes[]"
        }
      ],
      "name": "exit",
      "outputs": [],
      "stateMutability": "nonpayable",
      "type": "function"
    },
    {
      "inputs": [
        {
          "internalType": "contract IBridgeCosignerManager",
          "name": "cosignerManager_",
          "type": "address"
        },
        {
          "internalType": "contract IBridgeTokenManager",
          "name": "tokenManager_",
          "type": "address"
        }
      ],
      "name": "initialize",
      "outputs": [],
      "stateMutability": "nonpayable",
      "type": "function"
    },
    {
      "inputs": [],
      "name": "owner",
      "outputs": [
        {
          "internalType": "address",
          "name": "",
          "type": "address"
        }
      ],
      "stateMutability": "view",
      "type": "function"
    },
    {
      "inputs": [],
      "name": "paused",
      "outputs": [
        {
          "internalType": "bool",
          "name": "",
          "type": "bool"
        }
      ],
      "stateMutability": "view",
      "type": "function"
    },
    {
      "inputs": [],
      "name": "renounceOwnership",
      "outputs": [],
      "stateMutability": "nonpayable",
      "type": "function"
    },
    {
      "inputs": [
        {
          "internalType": "address",
          "name": "newCosignerManager",
          "type": "address"
        }
      ],
      "name": "setCosignerManager",
      "outputs": [],
      "stateMutability": "nonpayable",
      "type": "function"
    },
    {
      "inputs": [
        {
          "internalType": "address",
          "name": "newTokenManager",
          "type": "address"
        }
      ],
      "name": "setTokenManager",
      "outputs": [],
      "stateMutability": "nonpayable",
      "type": "function"
    },
    {
      "inputs": [],
      "name": "tokenManager",
      "outputs": [
        {
          "internalType": "contract IBridgeTokenManager",
          "name": "",
          "type": "address"
        }
      ],
      "stateMutability": "view",
      "type": "function"
    },
    {
      "inputs": [
        {
          "internalType": "address",
          "name": "newOwner",
          "type": "address"
        }
      ],
      "name": "transferOwnership",
      "outputs": [],
      "stateMutability": "nonpayable",
      "type": "function"
    }
  ],
  "transactionHash": "0x98e039b8972a830545c1fb37934bf25fd0c07da1244c60ee3406c01dbe1e0f02",
  "args": [],
  "solcInputHash": "1e7ca58c0221a7a337ae088eb3c7b104",
  "bytecode": "0x608060405234801561001057600080fd5b50611a28806100206000396000f3fe6080604052600436106100c25760003560e01c8063ac7cffa61161007f578063ce18acd411610059578063ce18acd4146101fc578063d5804bd41461020f578063f2fde38b1461022f578063ffa1ad741461024f57600080fd5b8063ac7cffa61461019c578063ae8f4f3a146101bc578063b0c8bd04146101dc57600080fd5b80632a709b14146100c7578063485cc955146101045780635c975abb14610126578063715018a6146101495780637cb2b79c1461015e5780638da5cb5b1461017e575b600080fd5b3480156100d357600080fd5b5060cc546100e7906001600160a01b031681565b6040516001600160a01b0390911681526020015b60405180910390f35b34801561011057600080fd5b5061012461011f3660046115d9565b610276565b005b34801561013257600080fd5b5060975460ff1660405190151581526020016100fb565b34801561015557600080fd5b50610124610341565b34801561016a57600080fd5b506101246101793660046114b3565b610377565b34801561018a57600080fd5b506033546001600160a01b03166100e7565b3480156101a857600080fd5b5060cb546100e7906001600160a01b031681565b3480156101c857600080fd5b506101246101d736600461151d565b6103e9565b3480156101e857600080fd5b506101246101f73660046114b3565b6109a0565b61012461020a366004611699565b610a12565b34801561021b57600080fd5b5061012461022a3660046114cf565b610b47565b34801561023b57600080fd5b5061012461024a3660046114b3565b610cfe565b34801561025b57600080fd5b50610264600081565b60405160ff90911681526020016100fb565b600054610100900460ff168061028f575060005460ff16155b6102b45760405162461bcd60e51b81526004016102ab9061180a565b60405180910390fd5b600054610100900460ff161580156102d6576000805461ffff19166101011790555b60cb80546001600160a01b038086166001600160a01b03199283161790925560cc8054928516929091169190911790554660cd55610312610d99565b61031a610e04565b610322610e64565b61032a610ed9565b801561033c576000805461ff00191690555b505050565b6033546001600160a01b0316331461036b5760405162461bcd60e51b81526004016102ab90611882565b6103756000610f49565b565b6033546001600160a01b031633146103a15760405162461bcd60e51b81526004016102ab90611882565b6001600160a01b0381166103c75760405162461bcd60e51b81526004016102ab90611858565b60cc80546001600160a01b0319166001600160a01b0392909216919091179055565b6002606554141561040c5760405162461bcd60e51b81526004016102ab906118e0565b600260655560975460ff16156104345760405162461bcd60e51b81526004016102ab906117e0565b600061047d61047886868080601f016020809104026020016040519081016040528093929190818152602001838380828437600092019190915250610f9b92505050565b610fc8565b905060006104b2826001815181106104a557634e487b7160e01b600052603260045260246000fd5b6020026020010151610fc8565b90507f7830e52c0466b25b194d23dc2e07cd1d08f1177aa6afac5b6475fe22327c72ae610506826000815181106104f957634e487b7160e01b600052603260045260246000fd5b60200260200101516110fa565b146105455760405162461bcd60e51b815260206004820152600f60248201526e10948e881253959053125117d15595608a1b60448201526064016102ab565b60006105788260018151811061056b57634e487b7160e01b600052603260045260246000fd5b6020026020010151611148565b905060006105a08360028151811061056b57634e487b7160e01b600052603260045260246000fd5b90506001600160a01b03811633146105ea5760405162461bcd60e51b815260206004820152600d60248201526c21291d102727aa2fa7a72ba2a960991b60448201526064016102ab565b6000610610856002815181106104f957634e487b7160e01b600052603260045260246000fd5b90508061062f5760405162461bcd60e51b81526004016102ab906118b7565b6000610655866003815181106104f957634e487b7160e01b600052603260045260246000fd5b905060cd548114156106a25760405162461bcd60e51b815260206004820152601660248201527521291d102ba927a723afa9a7aaa921a2afa1a420a4a760511b60448201526064016102ab565b60cd546106c9876004815181106104f957634e487b7160e01b600052603260045260246000fd5b1461070f5760405162461bcd60e51b815260206004820152601660248201527521291d102ba927a723afaa20a923a2aa2fa1a420a4a760511b60448201526064016102ab565b60008a8a604051610721929190611726565b6040805191829003909120600081815260ca602052919091205490915060ff16156107855760405162461bcd60e51b815260206004820152601460248201527321291d1021a7a6a6a4aa26a2a72a2fa5a727aba760611b60448201526064016102ab565b60cb546040516307cdd1ed60e31b81526001600160a01b0390911690633e6e8f68906107bb90849086908e908e90600401611736565b60206040518083038186803b1580156107d357600080fd5b505afa1580156107e7573d6000803e3d6000fd5b505050506040513d601f19601f8201168201806040525081019061080b9190611503565b6108505760405162461bcd60e51b815260206004820152601660248201527542523a20494e56414c49445f5349474e41545552455360501b60448201526064016102ab565b600081815260ca6020526040808220805460ff1916600117905560cc5460cd54915163707af71960e11b81526001600160a01b038981166004830152602482019390935291169063e0f5ee329060440160806040518083038186803b1580156108b857600080fd5b505afa1580156108cc573d6000803e3d6000fd5b505050506040513d601f19601f820116820180604052508101906108f09190611611565b604051631a6c458d60e01b8152738DfecB75FbAEDFA2b8E9b8092c9a601F90A462C991631a6c458d9161092a919089908990600401611917565b60806040518083038186803b15801561094257600080fd5b505af4158015610956573d6000803e3d6000fd5b505050506040513d601f19601f8201168201806040525081019061097a9190611611565b905061098d816000015186848787611168565b5050600160655550505050505050505050565b6033546001600160a01b031633146109ca5760405162461bcd60e51b81526004016102ab90611882565b6001600160a01b0381166109f05760405162461bcd60e51b81526004016102ab90611858565b60cb80546001600160a01b0319166001600160a01b0392909216919091179055565b60026065541415610a355760405162461bcd60e51b81526004016102ab906118e0565b600260655560975460ff1615610a5d5760405162461bcd60e51b81526004016102ab906117e0565b34610a7a5760405162461bcd60e51b81526004016102ab906118b7565b60cc54604051637a38f9eb60e01b8152600481018390526001600160a01b0390911690637a38f9eb9060240160206040518083038186803b158015610abe57600080fd5b505afa158015610ad2573d6000803e3d6000fd5b505050506040513d601f19601f82011682018060405250810190610af69190611503565b610b325760405162461bcd60e51b815260206004820152600d60248201526c10948e881393d517d193d55391609a1b60448201526064016102ab565b610b3f60003334846111d8565b506001606555565b60026065541415610b6a5760405162461bcd60e51b81526004016102ab906118e0565b600260655560975460ff1615610b925760405162461bcd60e51b81526004016102ab906117e0565b6001600160a01b038316610bb85760405162461bcd60e51b81526004016102ab90611858565b81610bd55760405162461bcd60e51b81526004016102ab906118b7565b60cc5460405163707af71960e11b81526001600160a01b03858116600483015260248201849052600092169063e0f5ee329060440160806040518083038186803b158015610c2257600080fd5b505afa158015610c36573d6000803e3d6000fd5b505050506040513d601f19601f82011682018060405250810190610c5a9190611611565b60405163eb7f02d960e01b8152738DfecB75FbAEDFA2b8E9b8092c9a601F90A462C99163eb7f02d991610c929190879060040161193f565b60806040518083038186803b158015610caa57600080fd5b505af4158015610cbe573d6000803e3d6000fd5b505050506040513d601f19601f82011682018060405250810190610ce29190611611565b8051909150610cf3903385856111d8565b505060016065555050565b6033546001600160a01b03163314610d285760405162461bcd60e51b81526004016102ab90611882565b6001600160a01b038116610d8d5760405162461bcd60e51b815260206004820152602660248201527f4f776e61626c653a206e6577206f776e657220697320746865207a65726f206160448201526564647265737360d01b60648201526084016102ab565b610d9681610f49565b50565b600054610100900460ff1680610db2575060005460ff16155b610dce5760405162461bcd60e51b81526004016102ab9061180a565b600054610100900460ff16158015610df0576000805461ffff19166101011790555b8015610d96576000805461ff001916905550565b600054610100900460ff1680610e1d575060005460ff16155b610e395760405162461bcd60e51b81526004016102ab9061180a565b600054610100900460ff16158015610e5b576000805461ffff19166101011790555b610df033610f49565b600054610100900460ff1680610e7d575060005460ff16155b610e995760405162461bcd60e51b81526004016102ab9061180a565b600054610100900460ff16158015610ebb576000805461ffff19166101011790555b6097805460ff191690558015610d96576000805461ff001916905550565b600054610100900460ff1680610ef2575060005460ff16155b610f0e5760405162461bcd60e51b81526004016102ab9061180a565b600054610100900460ff16158015610f30576000805461ffff19166101011790555b60016065558015610d96576000805461ff001916905550565b603380546001600160a01b038381166001600160a01b0319831681179093556040519116919082907f8be0079c531659141344cd1fd0a4f28419497f9722a3daafe3b4186f6b6457e090600090a35050565b60408051808201825260008082526020918201528151808301909252825182529182019181019190915290565b6060610fd382611270565b610fdc57600080fd5b6000610fe7836112a9565b905060008167ffffffffffffffff81111561101257634e487b7160e01b600052604160045260246000fd5b60405190808252806020026020018201604052801561105757816020015b60408051808201909152600080825260208201528152602001906001900390816110305790505b5090506000611069856020015161132c565b8560200151611078919061195a565b90506000805b848110156110ef5761108f836113ae565b91506040518060400160405280838152602001848152508482815181106110c657634e487b7160e01b600052603260045260246000fd5b60209081029190910101526110db828461195a565b9250806110e7816119ac565b91505061107e565b509195945050505050565b80516000901580159061110f57508151602110155b61111857600080fd5b60008061112484611457565b8151919350915060208210156111405760208290036101000a90045b949350505050565b805160009060151461115957600080fd5b611162826110fa565b92915050565b836001600160a01b0316856001600160a01b03167f812815d6ddc266545cbe93cd74cdaec6517a81842a230a1773c976e78389ad2e848660cd54866040516111c9949392919093845260208401929092526040830152606082015260800190565b60405180910390a35050505050565b6001600160a01b03838116600081815260c960209081526040918290205460cd548351888152928301919091528183015260608101859052905191928716917f553685c68db2f1e0adf08d56c06ec87ff411232298a59276dbdb1b032c38151e9181900360800190a36001600160a01b038316600090815260c960205260408120805491611265836119ac565b919050555050505050565b805160009061128157506000919050565b6020820151805160001a9060c082101561129f575060009392505050565b5060019392505050565b80516000906112ba57506000919050565b6000806112ca846020015161132c565b84602001516112d9919061195a565b90506000846000015185602001516112f1919061195a565b90505b8082101561132357611305826113ae565b61130f908361195a565b91508261131b816119ac565b9350506112f4565b50909392505050565b8051600090811a60808110156113455750600092915050565b60b8811080611360575060c08110801590611360575060f881105b1561136e5750600192915050565b60c08110156113a257611383600160b8611989565b6113909060ff1682611972565b61139b90600161195a565b9392505050565b611383600160f8611989565b80516000908190811a60808110156113c95760019150611450565b60b88110156113ef576113dd608082611972565b6113e890600161195a565b9150611450565b60c081101561141c5760b78103600185019450806020036101000a85510460018201810193505050611450565b60f8811015611430576113dd60c082611972565b60f78103600185019450806020036101000a855104600182018101935050505b5092915050565b6000806000611469846020015161132c565b9050600081856020015161147d919061195a565b905060008286600001516114919190611972565b9196919550909350505050565b805180151581146114ae57600080fd5b919050565b6000602082840312156114c4578081fd5b813561139b816119dd565b6000806000606084860312156114e3578182fd5b83356114ee816119dd565b95602085013595506040909401359392505050565b600060208284031215611514578081fd5b61139b8261149e565b60008060008060408587031215611532578081fd5b843567ffffffffffffffff80821115611549578283fd5b818701915087601f83011261155c578283fd5b81358181111561156a578384fd5b88602082850101111561157b578384fd5b602092830196509450908601359080821115611595578283fd5b818701915087601f8301126115a8578283fd5b8135818111156115b6578384fd5b8860208260051b85010111156115ca578384fd5b95989497505060200194505050565b600080604083850312156115eb578182fd5b82356115f6816119dd565b91506020830135611606816119dd565b809150509250929050565b600060808284031215611622578081fd5b6040516080810181811067ffffffffffffffff8211171561165157634e487b7160e01b83526041600452602483fd5b604052825161165f816119dd565b81526020838101519082015260408301516002811061167c578283fd5b604082015261168d6060840161149e565b60608201529392505050565b6000602082840312156116aa578081fd5b5035919050565b81835281816020850137506000828201602090810191909152601f909101601f19169091010190565b80516001600160a01b031682526020808201519083015260408101516002811061171457634e487b7160e01b600052602160045260246000fd5b60408301526060908101511515910152565b8183823760009101908152919050565b60006060820186835260208681850152606060408501528185835260808501905060808660051b860101925086845b878110156117d157868503607f190183528135368a9003601e1901811261178a578687fd5b8901803567ffffffffffffffff8111156117a2578788fd5b8036038b13156117b0578788fd5b6117bd87828885016116b1565b965050509183019190830190600101611765565b50929998505050505050505050565b60208082526010908201526f14185d5cd8589b194e881c185d5cd95960821b604082015260600190565b6020808252602e908201527f496e697469616c697a61626c653a20636f6e747261637420697320616c72656160408201526d191e481a5b9a5d1a585b1a5e995960921b606082015260800190565b60208082526010908201526f42523a205a45524f5f4144445245535360801b604082015260600190565b6020808252818101527f4f776e61626c653a2063616c6c6572206973206e6f7420746865206f776e6572604082015260600190565b6020808252600f908201526e10948e8816915493d7d05353d55395608a1b604082015260600190565b6020808252601f908201527f5265656e7472616e637947756172643a207265656e7472616e742063616c6c00604082015260600190565b60c0810161192582866116da565b6001600160a01b0393909316608082015260a00152919050565b60a0810161194d82856116da565b8260808301529392505050565b6000821982111561196d5761196d6119c7565b500190565b600082821015611984576119846119c7565b500390565b600060ff821660ff8416808210156119a3576119a36119c7565b90039392505050565b60006000198214156119c0576119c06119c7565b5060010190565b634e487b7160e01b600052601160045260246000fd5b6001600160a01b0381168114610d9657600080fdfea264697066735822122005b5a4e3b4cebf1ae9def02c3ca668c11366ee5ce82a96dfa1c4b7c3449057d864736f6c63430008040033",
  "deployedBytecode": "0x6080604052600436106100c25760003560e01c8063ac7cffa61161007f578063ce18acd411610059578063ce18acd4146101fc578063d5804bd41461020f578063f2fde38b1461022f578063ffa1ad741461024f57600080fd5b8063ac7cffa61461019c578063ae8f4f3a146101bc578063b0c8bd04146101dc57600080fd5b80632a709b14146100c7578063485cc955146101045780635c975abb14610126578063715018a6146101495780637cb2b79c1461015e5780638da5cb5b1461017e575b600080fd5b3480156100d357600080fd5b5060cc546100e7906001600160a01b031681565b6040516001600160a01b0390911681526020015b60405180910390f35b34801561011057600080fd5b5061012461011f3660046115d9565b610276565b005b34801561013257600080fd5b5060975460ff1660405190151581526020016100fb565b34801561015557600080fd5b50610124610341565b34801561016a57600080fd5b506101246101793660046114b3565b610377565b34801561018a57600080fd5b506033546001600160a01b03166100e7565b3480156101a857600080fd5b5060cb546100e7906001600160a01b031681565b3480156101c857600080fd5b506101246101d736600461151d565b6103e9565b3480156101e857600080fd5b506101246101f73660046114b3565b6109a0565b61012461020a366004611699565b610a12565b34801561021b57600080fd5b5061012461022a3660046114cf565b610b47565b34801561023b57600080fd5b5061012461024a3660046114b3565b610cfe565b34801561025b57600080fd5b50610264600081565b60405160ff90911681526020016100fb565b600054610100900460ff168061028f575060005460ff16155b6102b45760405162461bcd60e51b81526004016102ab9061180a565b60405180910390fd5b600054610100900460ff161580156102d6576000805461ffff19166101011790555b60cb80546001600160a01b038086166001600160a01b03199283161790925560cc8054928516929091169190911790554660cd55610312610d99565b61031a610e04565b610322610e64565b61032a610ed9565b801561033c576000805461ff00191690555b505050565b6033546001600160a01b0316331461036b5760405162461bcd60e51b81526004016102ab90611882565b6103756000610f49565b565b6033546001600160a01b031633146103a15760405162461bcd60e51b81526004016102ab90611882565b6001600160a01b0381166103c75760405162461bcd60e51b81526004016102ab90611858565b60cc80546001600160a01b0319166001600160a01b0392909216919091179055565b6002606554141561040c5760405162461bcd60e51b81526004016102ab906118e0565b600260655560975460ff16156104345760405162461bcd60e51b81526004016102ab906117e0565b600061047d61047886868080601f016020809104026020016040519081016040528093929190818152602001838380828437600092019190915250610f9b92505050565b610fc8565b905060006104b2826001815181106104a557634e487b7160e01b600052603260045260246000fd5b6020026020010151610fc8565b90507f7830e52c0466b25b194d23dc2e07cd1d08f1177aa6afac5b6475fe22327c72ae610506826000815181106104f957634e487b7160e01b600052603260045260246000fd5b60200260200101516110fa565b146105455760405162461bcd60e51b815260206004820152600f60248201526e10948e881253959053125117d15595608a1b60448201526064016102ab565b60006105788260018151811061056b57634e487b7160e01b600052603260045260246000fd5b6020026020010151611148565b905060006105a08360028151811061056b57634e487b7160e01b600052603260045260246000fd5b90506001600160a01b03811633146105ea5760405162461bcd60e51b815260206004820152600d60248201526c21291d102727aa2fa7a72ba2a960991b60448201526064016102ab565b6000610610856002815181106104f957634e487b7160e01b600052603260045260246000fd5b90508061062f5760405162461bcd60e51b81526004016102ab906118b7565b6000610655866003815181106104f957634e487b7160e01b600052603260045260246000fd5b905060cd548114156106a25760405162461bcd60e51b815260206004820152601660248201527521291d102ba927a723afa9a7aaa921a2afa1a420a4a760511b60448201526064016102ab565b60cd546106c9876004815181106104f957634e487b7160e01b600052603260045260246000fd5b1461070f5760405162461bcd60e51b815260206004820152601660248201527521291d102ba927a723afaa20a923a2aa2fa1a420a4a760511b60448201526064016102ab565b60008a8a604051610721929190611726565b6040805191829003909120600081815260ca602052919091205490915060ff16156107855760405162461bcd60e51b815260206004820152601460248201527321291d1021a7a6a6a4aa26a2a72a2fa5a727aba760611b60448201526064016102ab565b60cb546040516307cdd1ed60e31b81526001600160a01b0390911690633e6e8f68906107bb90849086908e908e90600401611736565b60206040518083038186803b1580156107d357600080fd5b505afa1580156107e7573d6000803e3d6000fd5b505050506040513d601f19601f8201168201806040525081019061080b9190611503565b6108505760405162461bcd60e51b815260206004820152601660248201527542523a20494e56414c49445f5349474e41545552455360501b60448201526064016102ab565b600081815260ca6020526040808220805460ff1916600117905560cc5460cd54915163707af71960e11b81526001600160a01b038981166004830152602482019390935291169063e0f5ee329060440160806040518083038186803b1580156108b857600080fd5b505afa1580156108cc573d6000803e3d6000fd5b505050506040513d601f19601f820116820180604052508101906108f09190611611565b604051631a6c458d60e01b815273__$0f7a70bf1eceec6d63f461556e97c9344e$__91631a6c458d9161092a919089908990600401611917565b60806040518083038186803b15801561094257600080fd5b505af4158015610956573d6000803e3d6000fd5b505050506040513d601f19601f8201168201806040525081019061097a9190611611565b905061098d816000015186848787611168565b5050600160655550505050505050505050565b6033546001600160a01b031633146109ca5760405162461bcd60e51b81526004016102ab90611882565b6001600160a01b0381166109f05760405162461bcd60e51b81526004016102ab90611858565b60cb80546001600160a01b0319166001600160a01b0392909216919091179055565b60026065541415610a355760405162461bcd60e51b81526004016102ab906118e0565b600260655560975460ff1615610a5d5760405162461bcd60e51b81526004016102ab906117e0565b34610a7a5760405162461bcd60e51b81526004016102ab906118b7565b60cc54604051637a38f9eb60e01b8152600481018390526001600160a01b0390911690637a38f9eb9060240160206040518083038186803b158015610abe57600080fd5b505afa158015610ad2573d6000803e3d6000fd5b505050506040513d601f19601f82011682018060405250810190610af69190611503565b610b325760405162461bcd60e51b815260206004820152600d60248201526c10948e881393d517d193d55391609a1b60448201526064016102ab565b610b3f60003334846111d8565b506001606555565b60026065541415610b6a5760405162461bcd60e51b81526004016102ab906118e0565b600260655560975460ff1615610b925760405162461bcd60e51b81526004016102ab906117e0565b6001600160a01b038316610bb85760405162461bcd60e51b81526004016102ab90611858565b81610bd55760405162461bcd60e51b81526004016102ab906118b7565b60cc5460405163707af71960e11b81526001600160a01b03858116600483015260248201849052600092169063e0f5ee329060440160806040518083038186803b158015610c2257600080fd5b505afa158015610c36573d6000803e3d6000fd5b505050506040513d601f19601f82011682018060405250810190610c5a9190611611565b60405163eb7f02d960e01b815273__$0f7a70bf1eceec6d63f461556e97c9344e$__9163eb7f02d991610c929190879060040161193f565b60806040518083038186803b158015610caa57600080fd5b505af4158015610cbe573d6000803e3d6000fd5b505050506040513d601f19601f82011682018060405250810190610ce29190611611565b8051909150610cf3903385856111d8565b505060016065555050565b6033546001600160a01b03163314610d285760405162461bcd60e51b81526004016102ab90611882565b6001600160a01b038116610d8d5760405162461bcd60e51b815260206004820152602660248201527f4f776e61626c653a206e6577206f776e657220697320746865207a65726f206160448201526564647265737360d01b60648201526084016102ab565b610d9681610f49565b50565b600054610100900460ff1680610db2575060005460ff16155b610dce5760405162461bcd60e51b81526004016102ab9061180a565b600054610100900460ff16158015610df0576000805461ffff19166101011790555b8015610d96576000805461ff001916905550565b600054610100900460ff1680610e1d575060005460ff16155b610e395760405162461bcd60e51b81526004016102ab9061180a565b600054610100900460ff16158015610e5b576000805461ffff19166101011790555b610df033610f49565b600054610100900460ff1680610e7d575060005460ff16155b610e995760405162461bcd60e51b81526004016102ab9061180a565b600054610100900460ff16158015610ebb576000805461ffff19166101011790555b6097805460ff191690558015610d96576000805461ff001916905550565b600054610100900460ff1680610ef2575060005460ff16155b610f0e5760405162461bcd60e51b81526004016102ab9061180a565b600054610100900460ff16158015610f30576000805461ffff19166101011790555b60016065558015610d96576000805461ff001916905550565b603380546001600160a01b038381166001600160a01b0319831681179093556040519116919082907f8be0079c531659141344cd1fd0a4f28419497f9722a3daafe3b4186f6b6457e090600090a35050565b60408051808201825260008082526020918201528151808301909252825182529182019181019190915290565b6060610fd382611270565b610fdc57600080fd5b6000610fe7836112a9565b905060008167ffffffffffffffff81111561101257634e487b7160e01b600052604160045260246000fd5b60405190808252806020026020018201604052801561105757816020015b60408051808201909152600080825260208201528152602001906001900390816110305790505b5090506000611069856020015161132c565b8560200151611078919061195a565b90506000805b848110156110ef5761108f836113ae565b91506040518060400160405280838152602001848152508482815181106110c657634e487b7160e01b600052603260045260246000fd5b60209081029190910101526110db828461195a565b9250806110e7816119ac565b91505061107e565b509195945050505050565b80516000901580159061110f57508151602110155b61111857600080fd5b60008061112484611457565b8151919350915060208210156111405760208290036101000a90045b949350505050565b805160009060151461115957600080fd5b611162826110fa565b92915050565b836001600160a01b0316856001600160a01b03167f812815d6ddc266545cbe93cd74cdaec6517a81842a230a1773c976e78389ad2e848660cd54866040516111c9949392919093845260208401929092526040830152606082015260800190565b60405180910390a35050505050565b6001600160a01b03838116600081815260c960209081526040918290205460cd548351888152928301919091528183015260608101859052905191928716917f553685c68db2f1e0adf08d56c06ec87ff411232298a59276dbdb1b032c38151e9181900360800190a36001600160a01b038316600090815260c960205260408120805491611265836119ac565b919050555050505050565b805160009061128157506000919050565b6020820151805160001a9060c082101561129f575060009392505050565b5060019392505050565b80516000906112ba57506000919050565b6000806112ca846020015161132c565b84602001516112d9919061195a565b90506000846000015185602001516112f1919061195a565b90505b8082101561132357611305826113ae565b61130f908361195a565b91508261131b816119ac565b9350506112f4565b50909392505050565b8051600090811a60808110156113455750600092915050565b60b8811080611360575060c08110801590611360575060f881105b1561136e5750600192915050565b60c08110156113a257611383600160b8611989565b6113909060ff1682611972565b61139b90600161195a565b9392505050565b611383600160f8611989565b80516000908190811a60808110156113c95760019150611450565b60b88110156113ef576113dd608082611972565b6113e890600161195a565b9150611450565b60c081101561141c5760b78103600185019450806020036101000a85510460018201810193505050611450565b60f8811015611430576113dd60c082611972565b60f78103600185019450806020036101000a855104600182018101935050505b5092915050565b6000806000611469846020015161132c565b9050600081856020015161147d919061195a565b905060008286600001516114919190611972565b9196919550909350505050565b805180151581146114ae57600080fd5b919050565b6000602082840312156114c4578081fd5b813561139b816119dd565b6000806000606084860312156114e3578182fd5b83356114ee816119dd565b95602085013595506040909401359392505050565b600060208284031215611514578081fd5b61139b8261149e565b60008060008060408587031215611532578081fd5b843567ffffffffffffffff80821115611549578283fd5b818701915087601f83011261155c578283fd5b81358181111561156a578384fd5b88602082850101111561157b578384fd5b602092830196509450908601359080821115611595578283fd5b818701915087601f8301126115a8578283fd5b8135818111156115b6578384fd5b8860208260051b85010111156115ca578384fd5b95989497505060200194505050565b600080604083850312156115eb578182fd5b82356115f6816119dd565b91506020830135611606816119dd565b809150509250929050565b600060808284031215611622578081fd5b6040516080810181811067ffffffffffffffff8211171561165157634e487b7160e01b83526041600452602483fd5b604052825161165f816119dd565b81526020838101519082015260408301516002811061167c578283fd5b604082015261168d6060840161149e565b60608201529392505050565b6000602082840312156116aa578081fd5b5035919050565b81835281816020850137506000828201602090810191909152601f909101601f19169091010190565b80516001600160a01b031682526020808201519083015260408101516002811061171457634e487b7160e01b600052602160045260246000fd5b60408301526060908101511515910152565b8183823760009101908152919050565b60006060820186835260208681850152606060408501528185835260808501905060808660051b860101925086845b878110156117d157868503607f190183528135368a9003601e1901811261178a578687fd5b8901803567ffffffffffffffff8111156117a2578788fd5b8036038b13156117b0578788fd5b6117bd87828885016116b1565b965050509183019190830190600101611765565b50929998505050505050505050565b60208082526010908201526f14185d5cd8589b194e881c185d5cd95960821b604082015260600190565b6020808252602e908201527f496e697469616c697a61626c653a20636f6e747261637420697320616c72656160408201526d191e481a5b9a5d1a585b1a5e995960921b606082015260800190565b60208082526010908201526f42523a205a45524f5f4144445245535360801b604082015260600190565b6020808252818101527f4f776e61626c653a2063616c6c6572206973206e6f7420746865206f776e6572604082015260600190565b6020808252600f908201526e10948e8816915493d7d05353d55395608a1b604082015260600190565b6020808252601f908201527f5265656e7472616e637947756172643a207265656e7472616e742063616c6c00604082015260600190565b60c0810161192582866116da565b6001600160a01b0393909316608082015260a00152919050565b60a0810161194d82856116da565b8260808301529392505050565b6000821982111561196d5761196d6119c7565b500190565b600082821015611984576119846119c7565b500390565b600060ff821660ff8416808210156119a3576119a36119c7565b90039392505050565b60006000198214156119c0576119c06119c7565b5060010190565b634e487b7160e01b600052601160045260246000fd5b6001600160a01b0381168114610d9657600080fdfea264697066735822122005b5a4e3b4cebf1ae9def02c3ca668c11366ee5ce82a96dfa1c4b7c3449057d864736f6c63430008040033",
  "libraries": {
    "RToken": "0x8DfecB75FbAEDFA2b8E9b8092c9a601F90A462C9"
  },
  "devdoc": {
    "kind": "dev",
    "methods": {
      "owner()": {
        "details": "Returns the address of the current owner."
      },
      "paused()": {
        "details": "Returns true if the contract is paused, and false otherwise."
      },
      "renounceOwnership()": {
        "details": "Leaves the contract without owner. It will not be possible to call `onlyOwner` functions anymore. Can only be called by the current owner. NOTE: Renouncing ownership will leave the contract without an owner, thereby removing any functionality that is only available to the owner."
      },
      "setCosignerManager(address)": {
        "details": "This should be the contract responsible for sign by behalf of the payloads",
        "params": {
          "newCosignerManager": "address of cosigner manager contract"
        }
      },
      "setTokenManager(address)": {
        "details": "This should be the contract responsible for checking and add tokens to crosschain mapping",
        "params": {
          "newTokenManager": "address of token manager contract"
        }
      },
      "transferOwnership(address)": {
        "details": "Transfers ownership of the contract to a new account (`newOwner`). Can only be called by the current owner."
      }
    },
    "version": 1
  },
  "userdoc": {
    "kind": "user",
    "methods": {
      "setCosignerManager(address)": {
        "notice": "Set the cosigner manager, callable only by cosigners"
      },
      "setTokenManager(address)": {
        "notice": "Set the token manager, callable only by cosigners"
      }
    },
    "version": 1
  },
  "storageLayout": {
    "storage": [
      {
        "astId": 130,
        "contract": "contracts/BridgeRouter.sol:BridgeRouter",
        "label": "_initialized",
        "offset": 0,
        "slot": "0",
        "type": "t_bool"
      },
      {
        "astId": 133,
        "contract": "contracts/BridgeRouter.sol:BridgeRouter",
        "label": "_initializing",
        "offset": 1,
        "slot": "0",
        "type": "t_bool"
      },
      {
        "astId": 1060,
        "contract": "contracts/BridgeRouter.sol:BridgeRouter",
        "label": "__gap",
        "offset": 0,
        "slot": "1",
        "type": "t_array(t_uint256)50_storage"
      },
      {
        "astId": 10,
        "contract": "contracts/BridgeRouter.sol:BridgeRouter",
        "label": "_owner",
        "offset": 0,
        "slot": "51",
        "type": "t_address"
      },
      {
        "astId": 123,
        "contract": "contracts/BridgeRouter.sol:BridgeRouter",
        "label": "__gap",
        "offset": 0,
        "slot": "52",
        "type": "t_array(t_uint256)49_storage"
      },
      {
        "astId": 297,
        "contract": "contracts/BridgeRouter.sol:BridgeRouter",
        "label": "_status",
        "offset": 0,
        "slot": "101",
        "type": "t_uint256"
      },
      {
        "astId": 340,
        "contract": "contracts/BridgeRouter.sol:BridgeRouter",
        "label": "__gap",
        "offset": 0,
        "slot": "102",
        "type": "t_array(t_uint256)49_storage"
      },
      {
        "astId": 191,
        "contract": "contracts/BridgeRouter.sol:BridgeRouter",
        "label": "_paused",
        "offset": 0,
        "slot": "151",
        "type": "t_bool"
      },
      {
        "astId": 282,
        "contract": "contracts/BridgeRouter.sol:BridgeRouter",
        "label": "__gap",
        "offset": 0,
        "slot": "152",
        "type": "t_array(t_uint256)49_storage"
      },
      {
        "astId": 2546,
        "contract": "contracts/BridgeRouter.sol:BridgeRouter",
        "label": "_nonces",
        "offset": 0,
        "slot": "201",
        "type": "t_mapping(t_address,t_uint256)"
      },
      {
        "astId": 2550,
        "contract": "contracts/BridgeRouter.sol:BridgeRouter",
        "label": "_commitments",
        "offset": 0,
        "slot": "202",
        "type": "t_mapping(t_bytes32,t_bool)"
      },
      {
        "astId": 2553,
        "contract": "contracts/BridgeRouter.sol:BridgeRouter",
        "label": "cosignerManager",
        "offset": 0,
        "slot": "203",
        "type": "t_contract(IBridgeCosignerManager)3069"
      },
      {
        "astId": 2556,
        "contract": "contracts/BridgeRouter.sol:BridgeRouter",
        "label": "tokenManager",
        "offset": 0,
        "slot": "204",
        "type": "t_contract(IBridgeTokenManager)3141"
      },
      {
        "astId": 2558,
        "contract": "contracts/BridgeRouter.sol:BridgeRouter",
        "label": "_chainId",
        "offset": 0,
        "slot": "205",
        "type": "t_uint256"
      },
      {
        "astId": 2567,
        "contract": "contracts/BridgeRouter.sol:BridgeRouter",
        "label": "__gap",
        "offset": 0,
        "slot": "206",
        "type": "t_array(t_uint256)49_storage"
      }
    ],
    "types": {
      "t_address": {
        "encoding": "inplace",
        "label": "address",
        "numberOfBytes": "20"
      },
      "t_array(t_uint256)49_storage": {
        "base": "t_uint256",
        "encoding": "inplace",
        "label": "uint256[49]",
        "numberOfBytes": "1568"
      },
      "t_array(t_uint256)50_storage": {
        "base": "t_uint256",
        "encoding": "inplace",
        "label": "uint256[50]",
        "numberOfBytes": "1600"
      },
      "t_bool": {
        "encoding": "inplace",
        "label": "bool",
        "numberOfBytes": "1"
      },
      "t_bytes32": {
        "encoding": "inplace",
        "label": "bytes32",
        "numberOfBytes": "32"
      },
      "t_contract(IBridgeCosignerManager)3069": {
        "encoding": "inplace",
        "label": "contract IBridgeCosignerManager",
        "numberOfBytes": "20"
      },
      "t_contract(IBridgeTokenManager)3141": {
        "encoding": "inplace",
        "label": "contract IBridgeTokenManager",
        "numberOfBytes": "20"
      },
      "t_mapping(t_address,t_uint256)": {
        "encoding": "mapping",
        "key": "t_address",
        "label": "mapping(address => uint256)",
        "numberOfBytes": "32",
        "value": "t_uint256"
      },
      "t_mapping(t_bytes32,t_bool)": {
        "encoding": "mapping",
        "key": "t_bytes32",
        "label": "mapping(bytes32 => bool)",
        "numberOfBytes": "32",
        "value": "t_bool"
      },
      "t_uint256": {
        "encoding": "inplace",
        "label": "uint256",
        "numberOfBytes": "32"
      }
    }
  }
}