{
  "address": "0xE43c64b2059A9Be11B1dc293cEF5104d3fa51bF8",
  "abi": [
    {
      "anonymous": false,
      "inputs": [
        {
          "indexed": true,
          "internalType": "address",
          "name": "owner",
          "type": "address"
        },
        {
          "indexed": true,
          "internalType": "address",
          "name": "spender",
          "type": "address"
        },
        {
          "indexed": false,
          "internalType": "uint256",
          "name": "value",
          "type": "uint256"
        }
      ],
      "name": "Approval",
      "type": "event"
    },
    {
      "anonymous": false,
      "inputs": [
        {
          "indexed": true,
          "internalType": "bytes32",
          "name": "role",
          "type": "bytes32"
        },
        {
          "indexed": true,
          "internalType": "bytes32",
          "name": "previousAdminRole",
          "type": "bytes32"
        },
        {
          "indexed": true,
          "internalType": "bytes32",
          "name": "newAdminRole",
          "type": "bytes32"
        }
      ],
      "name": "RoleAdminChanged",
      "type": "event"
    },
    {
      "anonymous": false,
      "inputs": [
        {
          "indexed": true,
          "internalType": "bytes32",
          "name": "role",
          "type": "bytes32"
        },
        {
          "indexed": true,
          "internalType": "address",
          "name": "account",
          "type": "address"
        },
        {
          "indexed": true,
          "internalType": "address",
          "name": "sender",
          "type": "address"
        }
      ],
      "name": "RoleGranted",
      "type": "event"
    },
    {
      "anonymous": false,
      "inputs": [
        {
          "indexed": true,
          "internalType": "bytes32",
          "name": "role",
          "type": "bytes32"
        },
        {
          "indexed": true,
          "internalType": "address",
          "name": "account",
          "type": "address"
        },
        {
          "indexed": true,
          "internalType": "address",
          "name": "sender",
          "type": "address"
        }
      ],
      "name": "RoleRevoked",
      "type": "event"
    },
    {
      "anonymous": false,
      "inputs": [
        {
          "indexed": true,
          "internalType": "address",
          "name": "from",
          "type": "address"
        },
        {
          "indexed": true,
          "internalType": "address",
          "name": "to",
          "type": "address"
        },
        {
          "indexed": false,
          "internalType": "uint256",
          "name": "value",
          "type": "uint256"
        }
      ],
      "name": "Transfer",
      "type": "event"
    },
    {
      "inputs": [],
      "name": "BURNER_ROLE",
      "outputs": [
        {
          "internalType": "bytes32",
          "name": "",
          "type": "bytes32"
        }
      ],
      "stateMutability": "view",
      "type": "function"
    },
    {
      "inputs": [],
      "name": "DEFAULT_ADMIN_ROLE",
      "outputs": [
        {
          "internalType": "bytes32",
          "name": "",
          "type": "bytes32"
        }
      ],
      "stateMutability": "view",
      "type": "function"
    },
    {
      "inputs": [],
      "name": "DOMAIN_SEPARATOR",
      "outputs": [
        {
          "internalType": "bytes32",
          "name": "",
          "type": "bytes32"
        }
      ],
      "stateMutability": "view",
      "type": "function"
    },
    {
      "inputs": [],
      "name": "MINTER_ROLE",
      "outputs": [
        {
          "internalType": "bytes32",
          "name": "",
          "type": "bytes32"
        }
      ],
      "stateMutability": "view",
      "type": "function"
    },
    {
      "inputs": [],
      "name": "VERSION",
      "outputs": [
        {
          "internalType": "uint8",
          "name": "",
          "type": "uint8"
        }
      ],
      "stateMutability": "view",
      "type": "function"
    },
    {
      "inputs": [
        {
          "internalType": "address",
          "name": "_owner",
          "type": "address"
        },
        {
          "internalType": "address",
          "name": "_spender",
          "type": "address"
        }
      ],
      "name": "allowance",
      "outputs": [
        {
          "internalType": "uint256",
          "name": "",
          "type": "uint256"
        }
      ],
      "stateMutability": "view",
      "type": "function"
    },
    {
      "inputs": [
        {
          "internalType": "address",
          "name": "_spender",
          "type": "address"
        },
        {
          "internalType": "uint256",
          "name": "_amount",
          "type": "uint256"
        }
      ],
      "name": "approve",
      "outputs": [
        {
          "internalType": "bool",
          "name": "",
          "type": "bool"
        }
      ],
      "stateMutability": "nonpayable",
      "type": "function"
    },
    {
      "inputs": [
        {
          "internalType": "address",
          "name": "_account",
          "type": "address"
        }
      ],
      "name": "balanceOf",
      "outputs": [
        {
          "internalType": "uint256",
          "name": "",
          "type": "uint256"
        }
      ],
      "stateMutability": "view",
      "type": "function"
    },
    {
      "inputs": [
        {
          "internalType": "address",
          "name": "_from",
          "type": "address"
        },
        {
          "internalType": "uint256",
          "name": "_amnt",
          "type": "uint256"
        }
      ],
      "name": "burn",
      "outputs": [],
      "stateMutability": "nonpayable",
      "type": "function"
    },
    {
      "inputs": [],
      "name": "decimals",
      "outputs": [
        {
          "internalType": "uint8",
          "name": "",
          "type": "uint8"
        }
      ],
      "stateMutability": "view",
      "type": "function"
    },
    {
      "inputs": [
        {
          "internalType": "address",
          "name": "_spender",
          "type": "address"
        },
        {
          "internalType": "uint256",
          "name": "_subtractedValue",
          "type": "uint256"
        }
      ],
      "name": "decreaseAllowance",
      "outputs": [
        {
          "internalType": "bool",
          "name": "",
          "type": "bool"
        }
      ],
      "stateMutability": "nonpayable",
      "type": "function"
    },
    {
      "inputs": [
        {
          "internalType": "bytes32",
          "name": "role",
          "type": "bytes32"
        }
      ],
      "name": "getRoleAdmin",
      "outputs": [
        {
          "internalType": "bytes32",
          "name": "",
          "type": "bytes32"
        }
      ],
      "stateMutability": "view",
      "type": "function"
    },
    {
      "inputs": [
        {
          "internalType": "bytes32",
          "name": "role",
          "type": "bytes32"
        },
        {
          "internalType": "address",
          "name": "account",
          "type": "address"
        }
      ],
      "name": "grantRole",
      "outputs": [],
      "stateMutability": "nonpayable",
      "type": "function"
    },
    {
      "inputs": [
        {
          "internalType": "bytes32",
          "name": "role",
          "type": "bytes32"
        },
        {
          "internalType": "address",
          "name": "account",
          "type": "address"
        }
      ],
      "name": "hasRole",
      "outputs": [
        {
          "internalType": "bool",
          "name": "",
          "type": "bool"
        }
      ],
      "stateMutability": "view",
      "type": "function"
    },
    {
      "inputs": [
        {
          "internalType": "address",
          "name": "_spender",
          "type": "address"
        },
        {
          "internalType": "uint256",
          "name": "_addedValue",
          "type": "uint256"
        }
      ],
      "name": "increaseAllowance",
      "outputs": [
        {
          "internalType": "bool",
          "name": "",
          "type": "bool"
        }
      ],
      "stateMutability": "nonpayable",
      "type": "function"
    },
    {
      "inputs": [
        {
          "internalType": "address",
          "name": "_owner",
          "type": "address"
        },
        {
          "internalType": "string",
          "name": "_name",
          "type": "string"
        },
        {
          "internalType": "string",
          "name": "_symbol",
          "type": "string"
        },
        {
          "internalType": "uint8",
          "name": "_decimals",
          "type": "uint8"
        }
      ],
      "name": "initialize",
      "outputs": [],
      "stateMutability": "nonpayable",
      "type": "function"
    },
    {
      "inputs": [
        {
          "internalType": "address",
          "name": "_to",
          "type": "address"
        },
        {
          "internalType": "uint256",
          "name": "_amnt",
          "type": "uint256"
        }
      ],
      "name": "mint",
      "outputs": [],
      "stateMutability": "nonpayable",
      "type": "function"
    },
    {
      "inputs": [],
      "name": "name",
      "outputs": [
        {
          "internalType": "string",
          "name": "",
          "type": "string"
        }
      ],
      "stateMutability": "view",
      "type": "function"
    },
    {
      "inputs": [
        {
          "internalType": "bytes32",
          "name": "role",
          "type": "bytes32"
        },
        {
          "internalType": "address",
          "name": "account",
          "type": "address"
        }
      ],
      "name": "renounceRole",
      "outputs": [],
      "stateMutability": "nonpayable",
      "type": "function"
    },
    {
      "inputs": [
        {
          "internalType": "bytes32",
          "name": "role",
          "type": "bytes32"
        },
        {
          "internalType": "address",
          "name": "account",
          "type": "address"
        }
      ],
      "name": "revokeRole",
      "outputs": [],
      "stateMutability": "nonpayable",
      "type": "function"
    },
    {
      "inputs": [
        {
          "internalType": "bytes4",
          "name": "interfaceId",
          "type": "bytes4"
        }
      ],
      "name": "supportsInterface",
      "outputs": [
        {
          "internalType": "bool",
          "name": "",
          "type": "bool"
        }
      ],
      "stateMutability": "view",
      "type": "function"
    },
    {
      "inputs": [],
      "name": "symbol",
      "outputs": [
        {
          "internalType": "string",
          "name": "",
          "type": "string"
        }
      ],
      "stateMutability": "view",
      "type": "function"
    },
    {
      "inputs": [],
      "name": "totalSupply",
      "outputs": [
        {
          "internalType": "uint256",
          "name": "",
          "type": "uint256"
        }
      ],
      "stateMutability": "view",
      "type": "function"
    },
    {
      "inputs": [
        {
          "internalType": "address",
          "name": "_recipient",
          "type": "address"
        },
        {
          "internalType": "uint256",
          "name": "_amount",
          "type": "uint256"
        }
      ],
      "name": "transfer",
      "outputs": [
        {
          "internalType": "bool",
          "name": "",
          "type": "bool"
        }
      ],
      "stateMutability": "nonpayable",
      "type": "function"
    },
    {
      "inputs": [
        {
          "internalType": "address",
          "name": "_sender",
          "type": "address"
        },
        {
          "internalType": "address",
          "name": "_recipient",
          "type": "address"
        },
        {
          "internalType": "uint256",
          "name": "_amount",
          "type": "uint256"
        }
      ],
      "name": "transferFrom",
      "outputs": [
        {
          "internalType": "bool",
          "name": "",
          "type": "bool"
        }
      ],
      "stateMutability": "nonpayable",
      "type": "function"
    }
  ],
  "transactionHash": "0xa3aa711d6b87a3bd8e090a12e45d10a0a74051b9e36fa7f202bfe938ca5a5e2e",
  "args": [],
  "solcInputHash": "7af0171935c463a30826e80be330ec62",
  "bytecode": "0x608060405234801561001057600080fd5b50612f54806100206000396000f3fe608060405234801561001057600080fd5b50600436106101735760003560e01c806340c10f19116100de578063a457c2d711610097578063d547741f11610071578063d547741f14610488578063dd62ed3e146104a4578063f6d2ee86146104d4578063ffa1ad74146104f057610173565b8063a457c2d71461040a578063a9059cbb1461043a578063d53913931461046a57610173565b806340c10f191461033657806370a082311461035257806391d148541461038257806395d89b41146103b25780639dc29fac146103d0578063a217fddf146103ec57610173565b8063282c51f311610130578063282c51f3146102745780632f2ff15d14610292578063313ce567146102ae5780633644e515146102cc57806336568abe146102ea578063395093511461030657610173565b806301ffc9a71461017857806306fdde03146101a8578063095ea7b3146101c657806318160ddd146101f657806323b872dd14610214578063248a9ca314610244575b600080fd5b610192600480360381019061018d9190612314565b61050e565b60405161019f9190612675565b60405180910390f35b6101b0610588565b6040516101bd91906126fe565b60405180910390f35b6101e060048036038101906101db9190612273565b61061d565b6040516101ed9190612675565b60405180910390f35b6101fe61063b565b60405161020b9190612840565b60405180910390f35b61022e60048036038101906102299190612189565b610645565b60405161023b9190612675565b60405180910390f35b61025e600480360381019061025991906122af565b61071e565b60405161026b9190612690565b60405180910390f35b61027c61073e565b6040516102899190612690565b60405180910390f35b6102ac60048036038101906102a791906122d8565b610762565b005b6102b661078b565b6040516102c3919061285b565b60405180910390f35b6102d46107a5565b6040516102e19190612690565b60405180910390f35b61030460048036038101906102ff91906122d8565b610840565b005b610320600480360381019061031b9190612273565b6108c3565b60405161032d9190612675565b60405180910390f35b610350600480360381019061034b9190612273565b610976565b005b61036c60048036038101906103679190612124565b6109b7565b6040516103799190612840565b60405180910390f35b61039c600480360381019061039791906122d8565b610a00565b6040516103a99190612675565b60405180910390f35b6103ba610a6b565b6040516103c791906126fe565b60405180910390f35b6103ea60048036038101906103e59190612273565b610b00565b005b6103f4610b41565b6040516104019190612690565b60405180910390f35b610424600480360381019061041f9190612273565b610b48565b6040516104319190612675565b60405180910390f35b610454600480360381019061044f9190612273565b610c15565b6040516104619190612675565b60405180910390f35b610472610c33565b60405161047f9190612690565b60405180910390f35b6104a2600480360381019061049d91906122d8565b610c57565b005b6104be60048036038101906104b9919061214d565b610c80565b6040516104cb9190612840565b60405180910390f35b6104ee60048036038101906104e991906121d8565b610d07565b005b6104f8610e43565b604051610505919061285b565b60405180910390f35b60007f7965db0b000000000000000000000000000000000000000000000000000000007bffffffffffffffffffffffffffffffffffffffffffffffffffffffff1916827bffffffffffffffffffffffffffffffffffffffffffffffffffffffff19161480610581575061058082610e48565b5b9050919050565b6060609a600001805461059a90612a89565b80601f01602080910402602001604051908101604052809291908181526020018280546105c690612a89565b80156106135780601f106105e857610100808354040283529160200191610613565b820191906000526020600020905b8154815290600101906020018083116105f657829003601f168201915b5050505050905090565b600061063161062a610eb2565b8484610eba565b6001905092915050565b6000609954905090565b6000610652848484611085565b6107138461065e610eb2565b61070e85604051806060016040528060288152602001612ed260289139609860008b73ffffffffffffffffffffffffffffffffffffffff1673ffffffffffffffffffffffffffffffffffffffff16815260200190815260200160002060006106c4610eb2565b73ffffffffffffffffffffffffffffffffffffffff1673ffffffffffffffffffffffffffffffffffffffff1681526020019081526020016000205461131e9092919063ffffffff16565b610eba565b600190509392505050565b600060656000838152602001908152602001600020600101549050919050565b7f3c11d16cbaffd01df69ce1c404f6340ee057498f5f00246190ea54220576a84881565b61076b8261071e565b61077c81610777610eb2565b611373565b6107868383611410565b505050565b6000609a60020160009054906101000a900460ff16905090565b6000804690507f8b73c3c69bb8fe3d512ecc4cf759cc79239f7b179b0ffacaa9a75d522b39400f609a6000016040516107de9190612609565b604051809103902060006040516020016107f8919061265a565b6040516020818303038152906040528051906020012083306040516020016108249594939291906126ab565b6040516020818303038152906040528051906020012091505090565b610848610eb2565b73ffffffffffffffffffffffffffffffffffffffff168173ffffffffffffffffffffffffffffffffffffffff16146108b5576040517f08c379a00000000000000000000000000000000000000000000000000000000081526004016108ac90612800565b60405180910390fd5b6108bf82826114f1565b5050565b600061096c6108d0610eb2565b8461096785609860006108e1610eb2565b73ffffffffffffffffffffffffffffffffffffffff1673ffffffffffffffffffffffffffffffffffffffff16815260200190815260200160002060008973ffffffffffffffffffffffffffffffffffffffff1673ffffffffffffffffffffffffffffffffffffffff168152602001908152602001600020546115d390919063ffffffff16565b610eba565b6001905092915050565b7f9f2df0fed2c77648de5860a4cc508cd0818c85b8b8a1ab4ceeef8d981c8956a66109a8816109a3610eb2565b611373565b6109b283836115e9565b505050565b6000609760008373ffffffffffffffffffffffffffffffffffffffff1673ffffffffffffffffffffffffffffffffffffffff168152602001908152602001600020549050919050565b60006065600084815260200190815260200160002060000160008373ffffffffffffffffffffffffffffffffffffffff1673ffffffffffffffffffffffffffffffffffffffff16815260200190815260200160002060009054906101000a900460ff16905092915050565b6060609a6001018054610a7d90612a89565b80601f0160208091040260200160405190810160405280929190818152602001828054610aa990612a89565b8015610af65780601f10610acb57610100808354040283529160200191610af6565b820191906000526020600020905b815481529060010190602001808311610ad957829003601f168201915b5050505050905090565b7f3c11d16cbaffd01df69ce1c404f6340ee057498f5f00246190ea54220576a848610b3281610b2d610eb2565b611373565b610b3c838361177f565b505050565b6000801b81565b6000610c0b610b55610eb2565b84610c0685604051806060016040528060258152602001612efa6025913960986000610b7f610eb2565b73ffffffffffffffffffffffffffffffffffffffff1673ffffffffffffffffffffffffffffffffffffffff16815260200190815260200160002060008a73ffffffffffffffffffffffffffffffffffffffff1673ffffffffffffffffffffffffffffffffffffffff1681526020019081526020016000205461131e9092919063ffffffff16565b610eba565b6001905092915050565b6000610c29610c22610eb2565b8484611085565b6001905092915050565b7f9f2df0fed2c77648de5860a4cc508cd0818c85b8b8a1ab4ceeef8d981c8956a681565b610c608261071e565b610c7181610c6c610eb2565b611373565b610c7b83836114f1565b505050565b6000609860008473ffffffffffffffffffffffffffffffffffffffff1673ffffffffffffffffffffffffffffffffffffffff16815260200190815260200160002060008373ffffffffffffffffffffffffffffffffffffffff1673ffffffffffffffffffffffffffffffffffffffff16815260200190815260200160002054905092915050565b600060019054906101000a900460ff1680610d2d575060008054906101000a900460ff16155b610d6c576040517f08c379a0000000000000000000000000000000000000000000000000000000008152600401610d6390612780565b60405180910390fd5b60008060019054906101000a900460ff161590508015610dbc576001600060016101000a81548160ff02191690831515021790555060016000806101000a81548160ff0219169083151502179055505b610dc461192f565b610dd16000801b88611a20565b8585609a6000019190610de5929190611fce565b508383609a6001019190610dfa929190611fce565b5081609a60020160006101000a81548160ff021916908360ff1602179055508015610e3a5760008060016101000a81548160ff0219169083151502179055505b50505050505050565b600081565b60007f01ffc9a7000000000000000000000000000000000000000000000000000000007bffffffffffffffffffffffffffffffffffffffffffffffffffffffff1916827bffffffffffffffffffffffffffffffffffffffffffffffffffffffff1916149050919050565b600033905090565b600073ffffffffffffffffffffffffffffffffffffffff168373ffffffffffffffffffffffffffffffffffffffff161415610f2a576040517f08c379a0000000000000000000000000000000000000000000000000000000008152600401610f21906127e0565b60405180910390fd5b600073ffffffffffffffffffffffffffffffffffffffff168273ffffffffffffffffffffffffffffffffffffffff161415610f9a576040517f08c379a0000000000000000000000000000000000000000000000000000000008152600401610f9190612760565b60405180910390fd5b80609860008573ffffffffffffffffffffffffffffffffffffffff1673ffffffffffffffffffffffffffffffffffffffff16815260200190815260200160002060008473ffffffffffffffffffffffffffffffffffffffff1673ffffffffffffffffffffffffffffffffffffffff168152602001908152602001600020819055508173ffffffffffffffffffffffffffffffffffffffff168373ffffffffffffffffffffffffffffffffffffffff167f8c5be1e5ebec7d5bd14f71427d1e84f3dd0314c0f7b2291e5b200ac8c7c3b925836040516110789190612840565b60405180910390a3505050565b600073ffffffffffffffffffffffffffffffffffffffff168373ffffffffffffffffffffffffffffffffffffffff1614156110f5576040517f08c379a00000000000000000000000000000000000000000000000000000000081526004016110ec906127c0565b60405180910390fd5b600073ffffffffffffffffffffffffffffffffffffffff168273ffffffffffffffffffffffffffffffffffffffff161415611165576040517f08c379a000000000000000000000000000000000000000000000000000000000815260040161115c90612740565b60405180910390fd5b611170838383611a2e565b6111dc81604051806060016040528060268152602001612eac60269139609760008773ffffffffffffffffffffffffffffffffffffffff1673ffffffffffffffffffffffffffffffffffffffff1681526020019081526020016000205461131e9092919063ffffffff16565b609760008573ffffffffffffffffffffffffffffffffffffffff1673ffffffffffffffffffffffffffffffffffffffff1681526020019081526020016000208190555061127181609760008573ffffffffffffffffffffffffffffffffffffffff1673ffffffffffffffffffffffffffffffffffffffff168152602001908152602001600020546115d390919063ffffffff16565b609760008473ffffffffffffffffffffffffffffffffffffffff1673ffffffffffffffffffffffffffffffffffffffff168152602001908152602001600020819055508173ffffffffffffffffffffffffffffffffffffffff168373ffffffffffffffffffffffffffffffffffffffff167fddf252ad1be2c89b69c2b068fc378daa952ba7f163c4a11628f55a4df523b3ef836040516113119190612840565b60405180910390a3505050565b6000838311158290611366576040517f08c379a000000000000000000000000000000000000000000000000000000000815260040161135d91906126fe565b60405180910390fd5b5082840390509392505050565b61137d8282610a00565b61140c576113a28173ffffffffffffffffffffffffffffffffffffffff166014611a33565b6113b08360001c6020611a33565b6040516020016113c1929190612620565b6040516020818303038152906040526040517f08c379a000000000000000000000000000000000000000000000000000000000815260040161140391906126fe565b60405180910390fd5b5050565b61141a8282610a00565b6114ed5760016065600084815260200190815260200160002060000160008373ffffffffffffffffffffffffffffffffffffffff1673ffffffffffffffffffffffffffffffffffffffff16815260200190815260200160002060006101000a81548160ff021916908315150217905550611492610eb2565b73ffffffffffffffffffffffffffffffffffffffff168173ffffffffffffffffffffffffffffffffffffffff16837f2f8788117e7eff1d82e926ec794901d17c78024a50270940304540a733656f0d60405160405180910390a45b5050565b6114fb8282610a00565b156115cf5760006065600084815260200190815260200160002060000160008373ffffffffffffffffffffffffffffffffffffffff1673ffffffffffffffffffffffffffffffffffffffff16815260200190815260200160002060006101000a81548160ff021916908315150217905550611574610eb2565b73ffffffffffffffffffffffffffffffffffffffff168173ffffffffffffffffffffffffffffffffffffffff16837ff6391f5c32d9c69d2a47ea670b442974b53935d1edc7fd64eb21e047a839171b60405160405180910390a45b5050565b600081836115e191906128bd565b905092915050565b600073ffffffffffffffffffffffffffffffffffffffff168273ffffffffffffffffffffffffffffffffffffffff161415611659576040517f08c379a000000000000000000000000000000000000000000000000000000000815260040161165090612820565b60405180910390fd5b61166560008383611a2e565b61167a816099546115d390919063ffffffff16565b6099819055506116d281609760008573ffffffffffffffffffffffffffffffffffffffff1673ffffffffffffffffffffffffffffffffffffffff168152602001908152602001600020546115d390919063ffffffff16565b609760008473ffffffffffffffffffffffffffffffffffffffff1673ffffffffffffffffffffffffffffffffffffffff168152602001908152602001600020819055508173ffffffffffffffffffffffffffffffffffffffff16600073ffffffffffffffffffffffffffffffffffffffff167fddf252ad1be2c89b69c2b068fc378daa952ba7f163c4a11628f55a4df523b3ef836040516117739190612840565b60405180910390a35050565b600073ffffffffffffffffffffffffffffffffffffffff168273ffffffffffffffffffffffffffffffffffffffff1614156117ef576040517f08c379a00000000000000000000000000000000000000000000000000000000081526004016117e6906127a0565b60405180910390fd5b6117fb82600083611a2e565b61186781604051806060016040528060228152602001612e8a60229139609760008673ffffffffffffffffffffffffffffffffffffffff1673ffffffffffffffffffffffffffffffffffffffff1681526020019081526020016000205461131e9092919063ffffffff16565b609760008473ffffffffffffffffffffffffffffffffffffffff1673ffffffffffffffffffffffffffffffffffffffff168152602001908152602001600020819055506118bf81609954611d2d90919063ffffffff16565b609981905550600073ffffffffffffffffffffffffffffffffffffffff168273ffffffffffffffffffffffffffffffffffffffff167fddf252ad1be2c89b69c2b068fc378daa952ba7f163c4a11628f55a4df523b3ef836040516119239190612840565b60405180910390a35050565b600060019054906101000a900460ff1680611955575060008054906101000a900460ff16155b611994576040517f08c379a000000000000000000000000000000000000000000000000000000000815260040161198b90612780565b60405180910390fd5b60008060019054906101000a900460ff1615905080156119e4576001600060016101000a81548160ff02191690831515021790555060016000806101000a81548160ff0219169083151502179055505b6119ec611d43565b6119f4611e1c565b6119fc611ef5565b8015611a1d5760008060016101000a81548160ff0219169083151502179055505b50565b611a2a8282611410565b5050565b505050565b606060006002836002611a469190612913565b611a5091906128bd565b67ffffffffffffffff811115611a8f577f4e487b7100000000000000000000000000000000000000000000000000000000600052604160045260246000fd5b6040519080825280601f01601f191660200182016040528015611ac15781602001600182028036833780820191505090505b5090507f300000000000000000000000000000000000000000000000000000000000000081600081518110611b1f577f4e487b7100000000000000000000000000000000000000000000000000000000600052603260045260246000fd5b60200101907effffffffffffffffffffffffffffffffffffffffffffffffffffffffffffff1916908160001a9053507f780000000000000000000000000000000000000000000000000000000000000081600181518110611ba9577f4e487b7100000000000000000000000000000000000000000000000000000000600052603260045260246000fd5b60200101907effffffffffffffffffffffffffffffffffffffffffffffffffffffffffffff1916908160001a90535060006001846002611be99190612913565b611bf391906128bd565b90505b6001811115611cdf577f3031323334353637383961626364656600000000000000000000000000000000600f861660108110611c5b577f4e487b7100000000000000000000000000000000000000000000000000000000600052603260045260246000fd5b1a60f81b828281518110611c98577f4e487b7100000000000000000000000000000000000000000000000000000000600052603260045260246000fd5b60200101907effffffffffffffffffffffffffffffffffffffffffffffffffffffffffffff1916908160001a905350600485901c945080611cd890612a5f565b9050611bf6565b5060008414611d23576040517f08c379a0000000000000000000000000000000000000000000000000000000008152600401611d1a90612720565b60405180910390fd5b8091505092915050565b60008183611d3b919061296d565b905092915050565b600060019054906101000a900460ff1680611d69575060008054906101000a900460ff16155b611da8576040517f08c379a0000000000000000000000000000000000000000000000000000000008152600401611d9f90612780565b60405180910390fd5b60008060019054906101000a900460ff161590508015611df8576001600060016101000a81548160ff02191690831515021790555060016000806101000a81548160ff0219169083151502179055505b8015611e195760008060016101000a81548160ff0219169083151502179055505b50565b600060019054906101000a900460ff1680611e42575060008054906101000a900460ff16155b611e81576040517f08c379a0000000000000000000000000000000000000000000000000000000008152600401611e7890612780565b60405180910390fd5b60008060019054906101000a900460ff161590508015611ed1576001600060016101000a81548160ff02191690831515021790555060016000806101000a81548160ff0219169083151502179055505b8015611ef25760008060016101000a81548160ff0219169083151502179055505b50565b600060019054906101000a900460ff1680611f1b575060008054906101000a900460ff16155b611f5a576040517f08c379a0000000000000000000000000000000000000000000000000000000008152600401611f5190612780565b60405180910390fd5b60008060019054906101000a900460ff161590508015611faa576001600060016101000a81548160ff02191690831515021790555060016000806101000a81548160ff0219169083151502179055505b8015611fcb5760008060016101000a81548160ff0219169083151502179055505b50565b828054611fda90612a89565b90600052602060002090601f016020900481019282611ffc5760008555612043565b82601f1061201557803560ff1916838001178555612043565b82800160010185558215612043579182015b82811115612042578235825591602001919060010190612027565b5b5090506120509190612054565b5090565b5b8082111561206d576000816000905550600101612055565b5090565b60008135905061208081612e16565b92915050565b60008135905061209581612e2d565b92915050565b6000813590506120aa81612e44565b92915050565b60008083601f8401126120c257600080fd5b8235905067ffffffffffffffff8111156120db57600080fd5b6020830191508360018202830111156120f357600080fd5b9250929050565b60008135905061210981612e5b565b92915050565b60008135905061211e81612e72565b92915050565b60006020828403121561213657600080fd5b600061214484828501612071565b91505092915050565b6000806040838503121561216057600080fd5b600061216e85828601612071565b925050602061217f85828601612071565b9150509250929050565b60008060006060848603121561219e57600080fd5b60006121ac86828701612071565b93505060206121bd86828701612071565b92505060406121ce868287016120fa565b9150509250925092565b600080600080600080608087890312156121f157600080fd5b60006121ff89828a01612071565b965050602087013567ffffffffffffffff81111561221c57600080fd5b61222889828a016120b0565b9550955050604087013567ffffffffffffffff81111561224757600080fd5b61225389828a016120b0565b9350935050606061226689828a0161210f565b9150509295509295509295565b6000806040838503121561228657600080fd5b600061229485828601612071565b92505060206122a5858286016120fa565b9150509250929050565b6000602082840312156122c157600080fd5b60006122cf84828501612086565b91505092915050565b600080604083850312156122eb57600080fd5b60006122f985828601612086565b925050602061230a85828601612071565b9150509250929050565b60006020828403121561232657600080fd5b60006123348482850161209b565b91505092915050565b612346816129a1565b82525050565b612355816129b3565b82525050565b612364816129bf565b82525050565b6000815461237781612a89565b6123818186612896565b9450600182166000811461239c57600181146123ad576123e0565b60ff198316865281860193506123e0565b6123b685612876565b60005b838110156123d8578154818901526001820191506020810190506123b9565b838801955050505b50505092915050565b60006123f48261288b565b6123fe81856128a1565b935061240e818560208601612a2c565b61241781612b2b565b840191505092915050565b600061242d8261288b565b61243781856128b2565b9350612447818560208601612a2c565b80840191505092915050565b60006124606020836128a1565b915061246b82612b49565b602082019050919050565b60006124836023836128a1565b915061248e82612b72565b604082019050919050565b60006124a66022836128a1565b91506124b182612bc1565b604082019050919050565b60006124c9602e836128a1565b91506124d482612c10565b604082019050919050565b60006124ec6021836128a1565b91506124f782612c5f565b604082019050919050565b600061250f6025836128a1565b915061251a82612cae565b604082019050919050565b60006125326024836128a1565b915061253d82612cfd565b604082019050919050565b60006125556017836128b2565b915061256082612d4c565b601782019050919050565b60006125786011836128b2565b915061258382612d75565b601182019050919050565b600061259b602f836128a1565b91506125a682612d9e565b604082019050919050565b60006125be601f836128a1565b91506125c982612ded565b602082019050919050565b6125dd81612a15565b82525050565b6125ec81612a1f565b82525050565b6126036125fe82612a1f565b612abb565b82525050565b6000612615828461236a565b915081905092915050565b600061262b82612548565b91506126378285612422565b91506126428261256b565b915061264e8284612422565b91508190509392505050565b600061266682846125f2565b60018201915081905092915050565b600060208201905061268a600083018461234c565b92915050565b60006020820190506126a5600083018461235b565b92915050565b600060a0820190506126c0600083018861235b565b6126cd602083018761235b565b6126da604083018661235b565b6126e760608301856125d4565b6126f4608083018461233d565b9695505050505050565b6000602082019050818103600083015261271881846123e9565b905092915050565b6000602082019050818103600083015261273981612453565b9050919050565b6000602082019050818103600083015261275981612476565b9050919050565b6000602082019050818103600083015261277981612499565b9050919050565b60006020820190508181036000830152612799816124bc565b9050919050565b600060208201905081810360008301526127b9816124df565b9050919050565b600060208201905081810360008301526127d981612502565b9050919050565b600060208201905081810360008301526127f981612525565b9050919050565b600060208201905081810360008301526128198161258e565b9050919050565b60006020820190508181036000830152612839816125b1565b9050919050565b600060208201905061285560008301846125d4565b92915050565b600060208201905061287060008301846125e3565b92915050565b60008190508160005260206000209050919050565b600081519050919050565b600081905092915050565b600082825260208201905092915050565b600081905092915050565b60006128c882612a15565b91506128d383612a15565b9250827fffffffffffffffffffffffffffffffffffffffffffffffffffffffffffffffff0382111561290857612907612acd565b5b828201905092915050565b600061291e82612a15565b915061292983612a15565b9250817fffffffffffffffffffffffffffffffffffffffffffffffffffffffffffffffff048311821515161561296257612961612acd565b5b828202905092915050565b600061297882612a15565b915061298383612a15565b92508282101561299657612995612acd565b5b828203905092915050565b60006129ac826129f5565b9050919050565b60008115159050919050565b6000819050919050565b60007fffffffff0000000000000000000000000000000000000000000000000000000082169050919050565b600073ffffffffffffffffffffffffffffffffffffffff82169050919050565b6000819050919050565b600060ff82169050919050565b60005b83811015612a4a578082015181840152602081019050612a2f565b83811115612a59576000848401525b50505050565b6000612a6a82612a15565b91506000821415612a7e57612a7d612acd565b5b600182039050919050565b60006002820490506001821680612aa157607f821691505b60208210811415612ab557612ab4612afc565b5b50919050565b6000612ac682612b3c565b9050919050565b7f4e487b7100000000000000000000000000000000000000000000000000000000600052601160045260246000fd5b7f4e487b7100000000000000000000000000000000000000000000000000000000600052602260045260246000fd5b6000601f19601f8301169050919050565b60008160f81b9050919050565b7f537472696e67733a20686578206c656e67746820696e73756666696369656e74600082015250565b7f45524332303a207472616e7366657220746f20746865207a65726f206164647260008201527f6573730000000000000000000000000000000000000000000000000000000000602082015250565b7f45524332303a20617070726f766520746f20746865207a65726f20616464726560008201527f7373000000000000000000000000000000000000000000000000000000000000602082015250565b7f496e697469616c697a61626c653a20636f6e747261637420697320616c72656160008201527f647920696e697469616c697a6564000000000000000000000000000000000000602082015250565b7f45524332303a206275726e2066726f6d20746865207a65726f2061646472657360008201527f7300000000000000000000000000000000000000000000000000000000000000602082015250565b7f45524332303a207472616e736665722066726f6d20746865207a65726f20616460008201527f6472657373000000000000000000000000000000000000000000000000000000602082015250565b7f45524332303a20617070726f76652066726f6d20746865207a65726f2061646460008201527f7265737300000000000000000000000000000000000000000000000000000000602082015250565b7f416363657373436f6e74726f6c3a206163636f756e7420000000000000000000600082015250565b7f206973206d697373696e6720726f6c6520000000000000000000000000000000600082015250565b7f416363657373436f6e74726f6c3a2063616e206f6e6c792072656e6f756e636560008201527f20726f6c657320666f722073656c660000000000000000000000000000000000602082015250565b7f45524332303a206d696e7420746f20746865207a65726f206164647265737300600082015250565b612e1f816129a1565b8114612e2a57600080fd5b50565b612e36816129bf565b8114612e4157600080fd5b50565b612e4d816129c9565b8114612e5857600080fd5b50565b612e6481612a15565b8114612e6f57600080fd5b50565b612e7b81612a1f565b8114612e8657600080fd5b5056fe45524332303a206275726e20616d6f756e7420657863656564732062616c616e636545524332303a207472616e7366657220616d6f756e7420657863656564732062616c616e636545524332303a207472616e7366657220616d6f756e74206578636565647320616c6c6f77616e636545524332303a2064656372656173656420616c6c6f77616e63652062656c6f77207a65726fa2646970667358221220baaf66f138c85e2e29f0c476093892788513c151ec90f6c19dc0a27d4456a40564736f6c63430008040033",
  "devdoc": {
    "kind": "dev",
    "methods": {
      "DOMAIN_SEPARATOR()": {
        "details": "This is calculated at runtime because the token name may change"
      },
      "allowance(address,address)": {
        "details": "See {IERC20-allowance}."
      },
      "approve(address,uint256)": {
        "details": "See {IERC20-approve}. Requirements: - `_spender` cannot be the zero address."
      },
      "balanceOf(address)": {
        "details": "See {IERC20-balanceOf}."
      },
      "burn(address,uint256)": {
        "details": "Emits a {Transfer} event with `to` set to the zero address. Requirements: - `_from` cannot be the zero address. - `_from` must have at least `_amnt` tokens.",
        "params": {
          "_amnt": "The amount of tokens to be destroyed",
          "_from": "The address from which to destroy the tokens"
        }
      },
      "decimals()": {
        "details": "Returns the number of decimals used to get its user representation. For example, if `decimals` equals `2`, a balance of `505` tokens should be displayed to a user as `5.05` (`505 / 10 ** 2`). Tokens usually opt for a value of 18, imitating the relationship between Ether and Wei. This is the value {ERC20} uses, unless this function is overridden; NOTE: This information is only used for _display_ purposes: it in no way affects any of the arithmetic of the contract, including {IERC20-balanceOf} and {IERC20-transfer}."
      },
      "decreaseAllowance(address,uint256)": {
        "details": "Atomically decreases the allowance granted to `spender` by the caller. This is an alternative to {approve} that can be used as a mitigation for problems described in {IERC20-approve}. Emits an {Approval} event indicating the updated allowance. Requirements: - `_spender` cannot be the zero address. - `_spender` must have allowance for the caller of at least `_subtractedValue`."
      },
      "getRoleAdmin(bytes32)": {
        "details": "Returns the admin role that controls `role`. See {grantRole} and {revokeRole}. To change a role's admin, use {_setRoleAdmin}."
      },
      "grantRole(bytes32,address)": {
        "details": "Grants `role` to `account`. If `account` had not been already granted `role`, emits a {RoleGranted} event. Requirements: - the caller must have ``role``'s admin role."
      },
      "hasRole(bytes32,address)": {
        "details": "Returns `true` if `account` has been granted `role`."
      },
      "increaseAllowance(address,uint256)": {
        "details": "Atomically increases the allowance granted to `spender` by the caller. This is an alternative to {approve} that can be used as a mitigation for problems described in {IERC20-approve}. Emits an {Approval} event indicating the updated allowance. Requirements: - `_spender` cannot be the zero address."
      },
      "mint(address,uint256)": {
        "details": "Emits a {Transfer} event with `from` set to the zero address. Requirements: - `to` cannot be the zero address.",
        "params": {
          "_amnt": "The amount of tokens to be minted",
          "_to": "The destination address"
        }
      },
      "name()": {
        "details": "Returns the name of the token."
      },
      "renounceRole(bytes32,address)": {
        "details": "Revokes `role` from the calling account. Roles are often managed via {grantRole} and {revokeRole}: this function's purpose is to provide a mechanism for accounts to lose their privileges if they are compromised (such as when a trusted device is misplaced). If the calling account had been granted `role`, emits a {RoleRevoked} event. Requirements: - the caller must be `account`."
      },
      "revokeRole(bytes32,address)": {
        "details": "Revokes `role` from `account`. If `account` had been granted `role`, emits a {RoleRevoked} event. Requirements: - the caller must have ``role``'s admin role."
      },
      "supportsInterface(bytes4)": {
        "details": "See {IERC165-supportsInterface}."
      },
      "symbol()": {
        "details": "Returns the symbol of the token, usually a shorter version of the name."
      },
      "totalSupply()": {
        "details": "See {IERC20-totalSupply}."
      },
      "transfer(address,uint256)": {
        "details": "See {IERC20-transfer}. Requirements: - `_recipient` cannot be the zero address. - the caller must have a balance of at least `_amount`."
      },
      "transferFrom(address,address,uint256)": {
        "details": "See {IERC20-transferFrom}. Emits an {Approval} event indicating the updated allowance. This is not required by the EIP. See the note at the beginning of {ERC20}. Requirements: - `_sender` and `recipient` cannot be the zero address. - `_sender` must have a balance of at least `amount`. - the caller must have allowance for ``_sender``'s tokens of at least `amount`."
      }
    },
    "version": 1
  },
  "userdoc": {
    "kind": "user",
    "methods": {
      "burn(address,uint256)": {
        "notice": "Destroys `_amnt` tokens from `_from`, reducing the total supply."
      },
      "mint(address,uint256)": {
        "notice": "Creates `_amnt` tokens and assigns them to `_to`, increasing the total supply."
      }
    },
    "version": 1
  },
  "storageLayout": {
    "storage": [
      {
        "astId": 538,
        "contract": "contracts/tokens/BridgeToken.sol:BridgeToken",
        "label": "_initialized",
        "offset": 0,
        "slot": "0",
        "type": "t_bool"
      },
      {
        "astId": 541,
        "contract": "contracts/tokens/BridgeToken.sol:BridgeToken",
        "label": "_initializing",
        "offset": 1,
        "slot": "0",
        "type": "t_bool"
      },
      {
        "astId": 792,
        "contract": "contracts/tokens/BridgeToken.sol:BridgeToken",
        "label": "__gap",
        "offset": 0,
        "slot": "1",
        "type": "t_array(t_uint256)50_storage"
      },
      {
        "astId": 1041,
        "contract": "contracts/tokens/BridgeToken.sol:BridgeToken",
        "label": "__gap",
        "offset": 0,
        "slot": "51",
        "type": "t_array(t_uint256)50_storage"
      },
      {
        "astId": 48,
        "contract": "contracts/tokens/BridgeToken.sol:BridgeToken",
        "label": "_roles",
        "offset": 0,
        "slot": "101",
        "type": "t_mapping(t_bytes32,t_struct(RoleData)43_storage)"
      },
      {
        "astId": 333,
        "contract": "contracts/tokens/BridgeToken.sol:BridgeToken",
        "label": "__gap",
        "offset": 0,
        "slot": "102",
        "type": "t_array(t_uint256)49_storage"
      },
      {
        "astId": 3252,
        "contract": "contracts/tokens/BridgeToken.sol:BridgeToken",
        "label": "balances",
        "offset": 0,
        "slot": "151",
        "type": "t_mapping(t_address,t_uint256)"
      },
      {
        "astId": 3258,
        "contract": "contracts/tokens/BridgeToken.sol:BridgeToken",
        "label": "allowances",
        "offset": 0,
        "slot": "152",
        "type": "t_mapping(t_address,t_mapping(t_address,t_uint256))"
      },
      {
        "astId": 3260,
        "contract": "contracts/tokens/BridgeToken.sol:BridgeToken",
        "label": "supply",
        "offset": 0,
        "slot": "153",
        "type": "t_uint256"
      },
      {
        "astId": 3270,
        "contract": "contracts/tokens/BridgeToken.sol:BridgeToken",
        "label": "token",
        "offset": 0,
        "slot": "154",
        "type": "t_struct(Token)3267_storage"
      },
      {
        "astId": 3274,
        "contract": "contracts/tokens/BridgeToken.sol:BridgeToken",
        "label": "__gap",
        "offset": 0,
        "slot": "157",
        "type": "t_array(t_uint256)49_storage"
      }
    ],
    "types": {
      "t_address": {
        "encoding": "inplace",
        "label": "address",
        "numberOfBytes": "20"
      },
      "t_array(t_uint256)49_storage": {
        "base": "t_uint256",
        "encoding": "inplace",
        "label": "uint256[49]",
        "numberOfBytes": "1568"
      },
      "t_array(t_uint256)50_storage": {
        "base": "t_uint256",
        "encoding": "inplace",
        "label": "uint256[50]",
        "numberOfBytes": "1600"
      },
      "t_bool": {
        "encoding": "inplace",
        "label": "bool",
        "numberOfBytes": "1"
      },
      "t_bytes32": {
        "encoding": "inplace",
        "label": "bytes32",
        "numberOfBytes": "32"
      },
      "t_mapping(t_address,t_bool)": {
        "encoding": "mapping",
        "key": "t_address",
        "label": "mapping(address => bool)",
        "numberOfBytes": "32",
        "value": "t_bool"
      },
      "t_mapping(t_address,t_mapping(t_address,t_uint256))": {
        "encoding": "mapping",
        "key": "t_address",
        "label": "mapping(address => mapping(address => uint256))",
        "numberOfBytes": "32",
        "value": "t_mapping(t_address,t_uint256)"
      },
      "t_mapping(t_address,t_uint256)": {
        "encoding": "mapping",
        "key": "t_address",
        "label": "mapping(address => uint256)",
        "numberOfBytes": "32",
        "value": "t_uint256"
      },
      "t_mapping(t_bytes32,t_struct(RoleData)43_storage)": {
        "encoding": "mapping",
        "key": "t_bytes32",
        "label": "mapping(bytes32 => struct AccessControlUpgradeable.RoleData)",
        "numberOfBytes": "32",
        "value": "t_struct(RoleData)43_storage"
      },
      "t_string_storage": {
        "encoding": "bytes",
        "label": "string",
        "numberOfBytes": "32"
      },
      "t_struct(RoleData)43_storage": {
        "encoding": "inplace",
        "label": "struct AccessControlUpgradeable.RoleData",
        "members": [
          {
            "astId": 40,
            "contract": "contracts/tokens/BridgeToken.sol:BridgeToken",
            "label": "members",
            "offset": 0,
            "slot": "0",
            "type": "t_mapping(t_address,t_bool)"
          },
          {
            "astId": 42,
            "contract": "contracts/tokens/BridgeToken.sol:BridgeToken",
            "label": "adminRole",
            "offset": 0,
            "slot": "1",
            "type": "t_bytes32"
          }
        ],
        "numberOfBytes": "64"
      },
      "t_struct(Token)3267_storage": {
        "encoding": "inplace",
        "label": "struct BridgeToken.Token",
        "members": [
          {
            "astId": 3262,
            "contract": "contracts/tokens/BridgeToken.sol:BridgeToken",
            "label": "name",
            "offset": 0,
            "slot": "0",
            "type": "t_string_storage"
          },
          {
            "astId": 3264,
            "contract": "contracts/tokens/BridgeToken.sol:BridgeToken",
            "label": "symbol",
            "offset": 0,
            "slot": "1",
            "type": "t_string_storage"
          },
          {
            "astId": 3266,
            "contract": "contracts/tokens/BridgeToken.sol:BridgeToken",
            "label": "decimals",
            "offset": 0,
            "slot": "2",
            "type": "t_uint8"
          }
        ],
        "numberOfBytes": "96"
      },
      "t_uint256": {
        "encoding": "inplace",
        "label": "uint256",
        "numberOfBytes": "32"
      },
      "t_uint8": {
        "encoding": "inplace",
        "label": "uint8",
        "numberOfBytes": "1"
      }
    }
  }
}