{
  "address": "0x3ABAE9Fb11125846dE6bc44C5eD0aFA73feC96f1",
  "abi": [
    {
      "inputs": [],
      "stateMutability": "nonpayable",
      "type": "constructor"
    },
    {
      "anonymous": false,
      "inputs": [
        {
          "components": [
            {
              "components": [
                {
                  "internalType": "address",
                  "name": "addr",
                  "type": "address"
                },
                {
                  "internalType": "enum IBridgeTokenManager.IssueType",
                  "name": "issueType",
                  "type": "uint8"
                },
                {
                  "internalType": "uint256",
                  "name": "chainId",
                  "type": "uint256"
                }
              ],
              "internalType": "struct IBridgeTokenManager.Token",
              "name": "enterToken",
              "type": "tuple"
            },
            {
              "components": [
                {
                  "internalType": "address",
                  "name": "addr",
                  "type": "address"
                },
                {
                  "internalType": "enum IBridgeTokenManager.IssueType",
                  "name": "issueType",
                  "type": "uint8"
                },
                {
                  "internalType": "uint256",
                  "name": "chainId",
                  "type": "uint256"
                }
              ],
              "internalType": "struct IBridgeTokenManager.Token",
              "name": "exitToken",
              "type": "tuple"
            },
            {
              "internalType": "bool",
              "name": "exist",
              "type": "bool"
            }
          ],
          "indexed": true,
          "internalType": "struct IBridgeTokenManager.Link",
          "name": "link",
          "type": "tuple"
        }
      ],
      "name": "LinkAdded",
      "type": "event"
    },
    {
      "anonymous": false,
      "inputs": [
        {
          "components": [
            {
              "components": [
                {
                  "internalType": "address",
                  "name": "addr",
                  "type": "address"
                },
                {
                  "internalType": "enum IBridgeTokenManager.IssueType",
                  "name": "issueType",
                  "type": "uint8"
                },
                {
                  "internalType": "uint256",
                  "name": "chainId",
                  "type": "uint256"
                }
              ],
              "internalType": "struct IBridgeTokenManager.Token",
              "name": "enterToken",
              "type": "tuple"
            },
            {
              "components": [
                {
                  "internalType": "address",
                  "name": "addr",
                  "type": "address"
                },
                {
                  "internalType": "enum IBridgeTokenManager.IssueType",
                  "name": "issueType",
                  "type": "uint8"
                },
                {
                  "internalType": "uint256",
                  "name": "chainId",
                  "type": "uint256"
                }
              ],
              "internalType": "struct IBridgeTokenManager.Token",
              "name": "exitToken",
              "type": "tuple"
            },
            {
              "internalType": "bool",
              "name": "exist",
              "type": "bool"
            }
          ],
          "indexed": true,
          "internalType": "struct IBridgeTokenManager.Link",
          "name": "link",
          "type": "tuple"
        }
      ],
      "name": "LinkRemoved",
      "type": "event"
    },
    {
      "anonymous": false,
      "inputs": [
        {
          "indexed": true,
          "internalType": "address",
          "name": "previousOwner",
          "type": "address"
        },
        {
          "indexed": true,
          "internalType": "address",
          "name": "newOwner",
          "type": "address"
        }
      ],
      "name": "OwnershipTransferred",
      "type": "event"
    },
    {
      "inputs": [],
      "name": "MAX_SIZE",
      "outputs": [
        {
          "internalType": "uint8",
          "name": "",
          "type": "uint8"
        }
      ],
      "stateMutability": "view",
      "type": "function"
    },
    {
      "inputs": [
        {
          "internalType": "address",
          "name": "addr",
          "type": "address"
        },
        {
          "internalType": "uint256",
          "name": "chainId",
          "type": "uint256"
        }
      ],
      "name": "fetch",
      "outputs": [
        {
          "components": [
            {
              "internalType": "address",
              "name": "addr",
              "type": "address"
            },
            {
              "internalType": "enum IBridgeTokenManager.IssueType",
              "name": "issueType",
              "type": "uint8"
            },
            {
              "internalType": "uint256",
              "name": "chainId",
              "type": "uint256"
            }
          ],
          "internalType": "struct IBridgeTokenManager.Token",
          "name": "token",
          "type": "tuple"
        },
        {
          "internalType": "bool",
          "name": "ok",
          "type": "bool"
        }
      ],
      "stateMutability": "view",
      "type": "function"
    },
    {
      "inputs": [
        {
          "internalType": "address[]",
          "name": "tokens",
          "type": "address[]"
        },
        {
          "internalType": "enum IBridgeTokenManager.IssueType[]",
          "name": "issueTypes",
          "type": "uint8[]"
        },
        {
          "internalType": "uint256[]",
          "name": "chainIds",
          "type": "uint256[]"
        }
      ],
      "name": "issue",
      "outputs": [],
      "stateMutability": "nonpayable",
      "type": "function"
    },
    {
      "inputs": [],
      "name": "owner",
      "outputs": [
        {
          "internalType": "address",
          "name": "",
          "type": "address"
        }
      ],
      "stateMutability": "view",
      "type": "function"
    },
    {
      "inputs": [],
      "name": "renounceOwnership",
      "outputs": [],
      "stateMutability": "nonpayable",
      "type": "function"
    },
    {
      "inputs": [
        {
          "internalType": "address",
          "name": "addr",
          "type": "address"
        },
        {
          "internalType": "uint256",
          "name": "chainId",
          "type": "uint256"
        }
      ],
      "name": "revoke",
      "outputs": [],
      "stateMutability": "nonpayable",
      "type": "function"
    },
    {
      "inputs": [
        {
          "internalType": "address",
          "name": "newOwner",
          "type": "address"
        }
      ],
      "name": "transferOwnership",
      "outputs": [],
      "stateMutability": "nonpayable",
      "type": "function"
    }
  ],
  "transactionHash": "0xe136e793972e5cfc6c2e6a28e02e186f8cb5e395038f4a9bbf06fdaae5157c58",
  "args": [],
  "solcInputHash": "176dd62f0f90c034c9abbccb1e4ae6e3",
  "bytecode": "0x60a06040523480156200001157600080fd5b5062000032620000266200007d60201b60201c565b6200008560201b60201c565b600143620000419190620001f0565b404244416040516020016200005a94939291906200019a565b6040516020818303038152906040528051906020012060808181525050620002eb565b600033905090565b60008060009054906101000a900473ffffffffffffffffffffffffffffffffffffffff169050816000806101000a81548173ffffffffffffffffffffffffffffffffffffffff021916908373ffffffffffffffffffffffffffffffffffffffff1602179055508173ffffffffffffffffffffffffffffffffffffffff168173ffffffffffffffffffffffffffffffffffffffff167f8be0079c531659141344cd1fd0a4f28419497f9722a3daafe3b4186f6b6457e060405160405180910390a35050565b6200015e62000158826200022b565b62000273565b82525050565b6200017962000173826200023f565b62000287565b82525050565b620001946200018e8262000269565b620002a5565b82525050565b6000620001a8828762000164565b602082019150620001ba82866200017f565b602082019150620001cc82856200017f565b602082019150620001de828462000149565b60148201915081905095945050505050565b6000620001fd8262000269565b91506200020a8362000269565b92508282101562000220576200021f620002af565b5b828203905092915050565b6000620002388262000249565b9050919050565b6000819050919050565b600073ffffffffffffffffffffffffffffffffffffffff82169050919050565b6000819050919050565b6000620002808262000291565b9050919050565b6000819050919050565b60006200029e82620002de565b9050919050565b6000819050919050565b7f4e487b7100000000000000000000000000000000000000000000000000000000600052601160045260246000fd5b60008160601b9050919050565b608051611cef6200030760003960006112160152611cef6000f3fe608060405234801561001057600080fd5b506004361061007d5760003560e01c80638f7ec2f01161005b5780638f7ec2f0146100c8578063de5ed097146100e4578063eac449d914610115578063f2fde38b146101315761007d565b8063715018a6146100825780638d67799e1461008c5780638da5cb5b146100aa575b600080fd5b61008a61014d565b005b6100946101d5565b6040516100a191906119d8565b60405180910390f35b6100b26101da565b6040516100bf91906118b4565b60405180910390f35b6100e260048036038101906100dd9190611487565b610203565b005b6100fe60048036038101906100f9919061144b565b6106c1565b60405161010c9291906119af565b60405180910390f35b61012f600480360381019061012a919061144b565b610733565b005b61014b60048036038101906101469190611422565b610851565b005b610155610949565b73ffffffffffffffffffffffffffffffffffffffff166101736101da565b73ffffffffffffffffffffffffffffffffffffffff16146101c9576040517f08c379a00000000000000000000000000000000000000000000000000000000081526004016101c09061194f565b60405180910390fd5b6101d36000610951565b565b600281565b60008060009054906101000a900473ffffffffffffffffffffffffffffffffffffffff16905090565b61020b610949565b73ffffffffffffffffffffffffffffffffffffffff166102296101da565b73ffffffffffffffffffffffffffffffffffffffff161461027f576040517f08c379a00000000000000000000000000000000000000000000000000000000081526004016102769061194f565b60405180910390fd5b8383905086869050146102c7576040517f08c379a00000000000000000000000000000000000000000000000000000000081526004016102be9061198f565b60405180910390fd5b81819050868690501461030f576040517f08c379a00000000000000000000000000000000000000000000000000000000081526004016103069061198f565b60405180910390fd5b600260ff168686905014610358576040517f08c379a000000000000000000000000000000000000000000000000000000000815260040161034f9061196f565b60405180910390fd5b60004690508083836000818110610398577f4e487b7100000000000000000000000000000000000000000000000000000000600052603260045260246000fd5b90506020020135146103df576040517f08c379a00000000000000000000000000000000000000000000000000000000081526004016103d69061190f565b60405180910390fd5b600061067360405180606001604052808a8a6000818110610429577f4e487b7100000000000000000000000000000000000000000000000000000000600052603260045260246000fd5b905060200201602081019061043e9190611422565b73ffffffffffffffffffffffffffffffffffffffff16815260200188886000818110610493577f4e487b7100000000000000000000000000000000000000000000000000000000600052603260045260246000fd5b90506020020160208101906104a8919061152b565b60018111156104e0577f4e487b7100000000000000000000000000000000000000000000000000000000600052602160045260246000fd5b81526020018686600081811061051f577f4e487b7100000000000000000000000000000000000000000000000000000000600052603260045260246000fd5b9050602002013581525060405180606001604052808b8b600181811061056e577f4e487b7100000000000000000000000000000000000000000000000000000000600052603260045260246000fd5b90506020020160208101906105839190611422565b73ffffffffffffffffffffffffffffffffffffffff168152602001898960018181106105d8577f4e487b7100000000000000000000000000000000000000000000000000000000600052603260045260246000fd5b90506020020160208101906105ed919061152b565b6001811115610625577f4e487b7100000000000000000000000000000000000000000000000000000000600052602160045260246000fd5b815260200187876001818110610664577f4e487b7100000000000000000000000000000000000000000000000000000000600052603260045260246000fd5b90506020020135815250610a15565b9050806040516106839190611899565b60405180910390207f7e4725d7a6d8fcc459e5ed68a5dd4f3b22ef573547210fe86491927a0f6e1dd060405160405180910390a25050505050505050565b6106c9611267565b6000806106d68585610aae565b905080604001516106e7575061072c565b600046905080826000015160400151141561070c578160000151935060019250610729565b8082602001516040015114156107285781602001519350600192505b5b50505b9250929050565b61073b610949565b73ffffffffffffffffffffffffffffffffffffffff166107596101da565b73ffffffffffffffffffffffffffffffffffffffff16146107af576040517f08c379a00000000000000000000000000000000000000000000000000000000081526004016107a69061194f565b60405180910390fd5b60006107bb8383610aae565b90508060400151610801576040517f08c379a00000000000000000000000000000000000000000000000000000000081526004016107f8906118ef565b60405180910390fd5b61080a81610cf6565b806040516108189190611899565b60405180910390207f6d4cad8ce607bb77bfbd2b4c279a73df339dd1e7b7fdf84a9ad79a1e26048b9360405160405180910390a2505050565b610859610949565b73ffffffffffffffffffffffffffffffffffffffff166108776101da565b73ffffffffffffffffffffffffffffffffffffffff16146108cd576040517f08c379a00000000000000000000000000000000000000000000000000000000081526004016108c49061194f565b60405180910390fd5b600073ffffffffffffffffffffffffffffffffffffffff168173ffffffffffffffffffffffffffffffffffffffff16141561093d576040517f08c379a0000000000000000000000000000000000000000000000000000000008152600401610934906118cf565b60405180910390fd5b61094681610951565b50565b600033905090565b60008060009054906101000a900473ffffffffffffffffffffffffffffffffffffffff169050816000806101000a81548173ffffffffffffffffffffffffffffffffffffffff021916908373ffffffffffffffffffffffffffffffffffffffff1602179055508173ffffffffffffffffffffffffffffffffffffffff168173ffffffffffffffffffffffffffffffffffffffff167f8be0079c531659141344cd1fd0a4f28419497f9722a3daafe3b4186f6b6457e060405160405180910390a35050565b610a1d6112d6565b6000610a3183600001518460400151610aae565b9050806040015115610a78576040517f08c379a0000000000000000000000000000000000000000000000000000000008152600401610a6f9061192f565b60405180910390fd5b60006040518060600160405280868152602001858152602001600115158152509050610aa381610ea7565b809250505092915050565b610ab66112d6565b60016000610ac48585611212565b8152602001908152602001600020604051806060016040529081600082016040518060600160405290816000820160009054906101000a900473ffffffffffffffffffffffffffffffffffffffff1673ffffffffffffffffffffffffffffffffffffffff1673ffffffffffffffffffffffffffffffffffffffff1681526020016000820160149054906101000a900460ff166001811115610b8e577f4e487b7100000000000000000000000000000000000000000000000000000000600052602160045260246000fd5b6001811115610bc6577f4e487b7100000000000000000000000000000000000000000000000000000000600052602160045260246000fd5b81526020016001820154815250508152602001600282016040518060600160405290816000820160009054906101000a900473ffffffffffffffffffffffffffffffffffffffff1673ffffffffffffffffffffffffffffffffffffffff1673ffffffffffffffffffffffffffffffffffffffff1681526020016000820160149054906101000a900460ff166001811115610c89577f4e487b7100000000000000000000000000000000000000000000000000000000600052602160045260246000fd5b6001811115610cc1577f4e487b7100000000000000000000000000000000000000000000000000000000600052602160045260246000fd5b815260200160018201548152505081526020016004820160009054906101000a900460ff161515151581525050905092915050565b60016000610d14836000015160000151846000015160400151611212565b81526020019081526020016000206000808201600080820160006101000a81549073ffffffffffffffffffffffffffffffffffffffff02191690556000820160146101000a81549060ff02191690556001820160009055505060028201600080820160006101000a81549073ffffffffffffffffffffffffffffffffffffffff02191690556000820160146101000a81549060ff0219169055600182016000905550506004820160006101000a81549060ff0219169055505060016000610deb836020015160000151846020015160400151611212565b81526020019081526020016000206000808201600080820160006101000a81549073ffffffffffffffffffffffffffffffffffffffff02191690556000820160146101000a81549060ff02191690556001820160009055505060028201600080820160006101000a81549073ffffffffffffffffffffffffffffffffffffffff02191690556000820160146101000a81549060ff0219169055600182016000905550506004820160006101000a81549060ff0219169055505050565b8060016000610ec6846000015160000151856000015160400151611212565b815260200190815260200160002060008201518160000160008201518160000160006101000a81548173ffffffffffffffffffffffffffffffffffffffff021916908373ffffffffffffffffffffffffffffffffffffffff16021790555060208201518160000160146101000a81548160ff02191690836001811115610f75577f4e487b7100000000000000000000000000000000000000000000000000000000600052602160045260246000fd5b021790555060408201518160010155505060208201518160020160008201518160000160006101000a81548173ffffffffffffffffffffffffffffffffffffffff021916908373ffffffffffffffffffffffffffffffffffffffff16021790555060208201518160000160146101000a81548160ff02191690836001811115611027577f4e487b7100000000000000000000000000000000000000000000000000000000600052602160045260246000fd5b021790555060408201518160010155505060408201518160040160006101000a81548160ff021916908315150217905550905050806001600061107a846020015160000151856020015160400151611212565b815260200190815260200160002060008201518160000160008201518160000160006101000a81548173ffffffffffffffffffffffffffffffffffffffff021916908373ffffffffffffffffffffffffffffffffffffffff16021790555060208201518160000160146101000a81548160ff02191690836001811115611129577f4e487b7100000000000000000000000000000000000000000000000000000000600052602160045260246000fd5b021790555060408201518160010155505060208201518160020160008201518160000160006101000a81548173ffffffffffffffffffffffffffffffffffffffff021916908373ffffffffffffffffffffffffffffffffffffffff16021790555060208201518160000160146101000a81548160ff021916908360018111156111db577f4e487b7100000000000000000000000000000000000000000000000000000000600052602160045260246000fd5b021790555060408201518160010155505060408201518160040160006101000a81548160ff02191690831515021790555090505050565b60007f000000000000000000000000000000000000000000000000000000000000000083836040516020016112499392919061185c565b60405160208183030381529060405280519060200120905092915050565b6040518060600160405280600073ffffffffffffffffffffffffffffffffffffffff168152602001600060018111156112c9577f4e487b7100000000000000000000000000000000000000000000000000000000600052602160045260246000fd5b8152602001600081525090565b60405180606001604052806112e9611267565b81526020016112f6611267565b81526020016000151581525090565b60008135905061131481611c7b565b92915050565b60008083601f84011261132c57600080fd5b8235905067ffffffffffffffff81111561134557600080fd5b60208301915083602082028301111561135d57600080fd5b9250929050565b60008083601f84011261137657600080fd5b8235905067ffffffffffffffff81111561138f57600080fd5b6020830191508360208202830111156113a757600080fd5b9250929050565b60008083601f8401126113c057600080fd5b8235905067ffffffffffffffff8111156113d957600080fd5b6020830191508360208202830111156113f157600080fd5b9250929050565b60008135905061140781611c92565b92915050565b60008135905061141c81611ca2565b92915050565b60006020828403121561143457600080fd5b600061144284828501611305565b91505092915050565b6000806040838503121561145e57600080fd5b600061146c85828601611305565b925050602061147d8582860161140d565b9150509250929050565b600080600080600080606087890312156114a057600080fd5b600087013567ffffffffffffffff8111156114ba57600080fd5b6114c689828a0161131a565b9650965050602087013567ffffffffffffffff8111156114e557600080fd5b6114f189828a01611364565b9450945050604087013567ffffffffffffffff81111561151057600080fd5b61151c89828a016113ae565b92509250509295509295509295565b60006020828403121561153d57600080fd5b600061154b848285016113f8565b91505092915050565b600061156083836115ea565b60208301905092915050565b6000611578838361161f565b60208301905092915050565b60006115908383611654565b60208301905092915050565b60006115a883836117d9565b60608301905092915050565b60006115c08383611827565b60208301905092915050565b6115d581611a04565b82525050565b6115e481611a04565b82525050565b6115f381611a04565b82525050565b61160a61160582611a04565b611a88565b82525050565b61161981611a16565b82525050565b61162881611a16565b82525050565b61163f61163a82611a22565b611a9a565b82525050565b61164e81611a76565b82525050565b61165d81611a76565b82525050565b60006116706026836119f3565b915061167b82611afc565b604082019050919050565b6000611693601d836119f3565b915061169e82611b4b565b602082019050919050565b60006116b66022836119f3565b91506116c182611b74565b604082019050919050565b60006116d9601e836119f3565b91506116e482611bc3565b602082019050919050565b60006116fc6020836119f3565b915061170782611bec565b602082019050919050565b600061171f601c836119f3565b915061172a82611c15565b602082019050919050565b60006117426020836119f3565b915061174d82611c3e565b602082019050919050565b60008201600082015161176b848261159c565b935050602082015161177d848261159c565b935050604082015161178f848261156c565b935050505050565b6060820160008201516117ad60008501826115cc565b5060208201516117c06020850182611645565b5060408201516117d36040850182611818565b50505050565b6000820160008201516117ec8482611554565b93505060208201516117fe8482611584565b935050604082015161181084826115b4565b935050505050565b61182181611a5f565b82525050565b61183081611a5f565b82525050565b61184761184282611a5f565b611ab6565b82525050565b61185681611a69565b82525050565b6000611868828661162e565b60208201915061187882856115f9565b6014820191506118888284611836565b602082019150819050949350505050565b60006118a58284611758565b60e08201915081905092915050565b60006020820190506118c960008301846115db565b92915050565b600060208201905081810360008301526118e881611663565b9050919050565b6000602082019050818103600083015261190881611686565b9050919050565b60006020820190508181036000830152611928816116a9565b9050919050565b60006020820190508181036000830152611948816116cc565b9050919050565b60006020820190508181036000830152611968816116ef565b9050919050565b6000602082019050818103600083015261198881611712565b9050919050565b600060208201905081810360008301526119a881611735565b9050919050565b60006080820190506119c46000830185611797565b6119d16060830184611610565b9392505050565b60006020820190506119ed600083018461184d565b92915050565b600082825260208201905092915050565b6000611a0f82611a3f565b9050919050565b60008115159050919050565b6000819050919050565b6000819050611a3a82611c67565b919050565b600073ffffffffffffffffffffffffffffffffffffffff82169050919050565b6000819050919050565b600060ff82169050919050565b6000611a8182611a2c565b9050919050565b6000611a9382611aa4565b9050919050565b6000819050919050565b6000611aaf82611aef565b9050919050565b6000819050919050565b7f4e487b7100000000000000000000000000000000000000000000000000000000600052602160045260246000fd5b60008160601b9050919050565b7f4f776e61626c653a206e6577206f776e657220697320746865207a65726f206160008201527f6464726573730000000000000000000000000000000000000000000000000000602082015250565b7f427269646765546f6b656e4d616e616765723a204e4f545f4558495354000000600082015250565b7f427269646765546f6b656e4d616e616765723a2057524f4e475f434841494e5f60008201527f4944000000000000000000000000000000000000000000000000000000000000602082015250565b7f427269646765546f6b656e4d616e616765723a20455849545f45584953540000600082015250565b7f4f776e61626c653a2063616c6c6572206973206e6f7420746865206f776e6572600082015250565b7f427269646765546f6b656e4d616e616765723a204d41585f53495a4500000000600082015250565b7f427269646765546f6b656e4d616e616765723a2057524f4e475f4c454e475448600082015250565b60028110611c7857611c77611ac0565b5b50565b611c8481611a04565b8114611c8f57600080fd5b50565b60028110611c9f57600080fd5b50565b611cab81611a5f565b8114611cb657600080fd5b5056fea26469706673582212208847a414cbfaf7e357850f76ca8bd078f3e7a997999d32f80b56fffec35f552964736f6c63430008040033",
  "devdoc": {
    "kind": "dev",
    "methods": {
      "fetch(address,uint256)": {
        "details": "This should be responsible to get token mapping for cross chain",
        "params": {
          "addr": "address of token to get it's association",
          "chainId": "of domain where token used"
        }
      },
      "issue(address[],uint8[],uint256[])": {
        "details": "This should be responsible to connect tokens between chains",
        "params": {
          "chainIds": "where they are located",
          "issueTypes": "for tokens",
          "tokens": "addresses on link connection"
        }
      },
      "owner()": {
        "details": "Returns the address of the current owner."
      },
      "renounceOwnership()": {
        "details": "Leaves the contract without owner. It will not be possible to call `onlyOwner` functions anymore. Can only be called by the current owner. NOTE: Renouncing ownership will leave the contract without an owner, thereby removing any functionality that is only available to the owner."
      },
      "revoke(address,uint256)": {
        "details": "This should be responsible to remove tokens connection between chains",
        "params": {
          "addr": "address of token to revoke",
          "chainId": "of domain where token used"
        }
      },
      "transferOwnership(address)": {
        "details": "Transfers ownership of the contract to a new account (`newOwner`). Can only be called by the current owner."
      }
    },
    "version": 1
  },
  "userdoc": {
    "kind": "user",
    "methods": {},
    "version": 1
  },
  "storageLayout": {
    "storage": [
      {
        "astId": 7,
        "contract": "contracts/managers/BridgeTokenManager.sol:BridgeTokenManager",
        "label": "_owner",
        "offset": 0,
        "slot": "0",
        "type": "t_address"
      },
      {
        "astId": 208,
        "contract": "contracts/managers/BridgeTokenManager.sol:BridgeTokenManager",
        "label": "_links",
        "offset": 0,
        "slot": "1",
        "type": "t_mapping(t_bytes32,t_struct(Link)157_storage)"
      }
    ],
    "types": {
      "t_address": {
        "encoding": "inplace",
        "label": "address",
        "numberOfBytes": "20"
      },
      "t_bool": {
        "encoding": "inplace",
        "label": "bool",
        "numberOfBytes": "1"
      },
      "t_bytes32": {
        "encoding": "inplace",
        "label": "bytes32",
        "numberOfBytes": "32"
      },
      "t_enum(IssueType)140": {
        "encoding": "inplace",
        "label": "enum IBridgeTokenManager.IssueType",
        "numberOfBytes": "1"
      },
      "t_mapping(t_bytes32,t_struct(Link)157_storage)": {
        "encoding": "mapping",
        "key": "t_bytes32",
        "label": "mapping(bytes32 => struct IBridgeTokenManager.Link)",
        "numberOfBytes": "32",
        "value": "t_struct(Link)157_storage"
      },
      "t_struct(Link)157_storage": {
        "encoding": "inplace",
        "label": "struct IBridgeTokenManager.Link",
        "members": [
          {
            "astId": 151,
            "contract": "contracts/managers/BridgeTokenManager.sol:BridgeTokenManager",
            "label": "enterToken",
            "offset": 0,
            "slot": "0",
            "type": "t_struct(Token)148_storage"
          },
          {
            "astId": 154,
            "contract": "contracts/managers/BridgeTokenManager.sol:BridgeTokenManager",
            "label": "exitToken",
            "offset": 0,
            "slot": "2",
            "type": "t_struct(Token)148_storage"
          },
          {
            "astId": 156,
            "contract": "contracts/managers/BridgeTokenManager.sol:BridgeTokenManager",
            "label": "exist",
            "offset": 0,
            "slot": "4",
            "type": "t_bool"
          }
        ],
        "numberOfBytes": "160"
      },
      "t_struct(Token)148_storage": {
        "encoding": "inplace",
        "label": "struct IBridgeTokenManager.Token",
        "members": [
          {
            "astId": 142,
            "contract": "contracts/managers/BridgeTokenManager.sol:BridgeTokenManager",
            "label": "addr",
            "offset": 0,
            "slot": "0",
            "type": "t_address"
          },
          {
            "astId": 145,
            "contract": "contracts/managers/BridgeTokenManager.sol:BridgeTokenManager",
            "label": "issueType",
            "offset": 20,
            "slot": "0",
            "type": "t_enum(IssueType)140"
          },
          {
            "astId": 147,
            "contract": "contracts/managers/BridgeTokenManager.sol:BridgeTokenManager",
            "label": "chainId",
            "offset": 0,
            "slot": "1",
            "type": "t_uint256"
          }
        ],
        "numberOfBytes": "64"
      },
      "t_uint256": {
        "encoding": "inplace",
        "label": "uint256",
        "numberOfBytes": "32"
      }
    }
  }
}