{
  "address": "0x52ac7a84389F831B5854bD672f0252bf77153522",
  "abi": [
    {
      "anonymous": false,
      "inputs": [
        {
          "indexed": true,
          "internalType": "address",
          "name": "token",
          "type": "address"
        },
        {
          "indexed": true,
          "internalType": "address",
          "name": "exitor",
          "type": "address"
        },
        {
          "indexed": false,
          "internalType": "uint256",
          "name": "amount",
          "type": "uint256"
        },
        {
          "indexed": false,
          "internalType": "uint256",
          "name": "nonce",
          "type": "uint256"
        },
        {
          "indexed": false,
          "internalType": "uint256",
          "name": "localChainId",
          "type": "uint256"
        },
        {
          "indexed": false,
          "internalType": "uint256",
          "name": "targetChainId",
          "type": "uint256"
        }
      ],
      "name": "Enter",
      "type": "event"
    },
    {
      "anonymous": false,
      "inputs": [
        {
          "indexed": true,
          "internalType": "address",
          "name": "token",
          "type": "address"
        },
        {
          "indexed": true,
          "internalType": "address",
          "name": "exitor",
          "type": "address"
        },
        {
          "indexed": false,
          "internalType": "uint256",
          "name": "amount",
          "type": "uint256"
        },
        {
          "indexed": false,
          "internalType": "bytes32",
          "name": "commitment",
          "type": "bytes32"
        },
        {
          "indexed": false,
          "internalType": "uint256",
          "name": "localChainId",
          "type": "uint256"
        },
        {
          "indexed": false,
          "internalType": "uint256",
          "name": "extChainId",
          "type": "uint256"
        }
      ],
      "name": "Exit",
      "type": "event"
    },
    {
      "anonymous": false,
      "inputs": [
        {
          "indexed": true,
          "internalType": "address",
          "name": "previousOwner",
          "type": "address"
        },
        {
          "indexed": true,
          "internalType": "address",
          "name": "newOwner",
          "type": "address"
        }
      ],
      "name": "OwnershipTransferred",
      "type": "event"
    },
    {
      "anonymous": false,
      "inputs": [
        {
          "indexed": false,
          "internalType": "address",
          "name": "account",
          "type": "address"
        }
      ],
      "name": "Paused",
      "type": "event"
    },
    {
      "anonymous": false,
      "inputs": [
        {
          "indexed": false,
          "internalType": "address",
          "name": "account",
          "type": "address"
        }
      ],
      "name": "Unpaused",
      "type": "event"
    },
    {
      "inputs": [],
      "name": "LIQUIDITY_FEE_DENOMINATOR",
      "outputs": [
        {
          "internalType": "uint256",
          "name": "",
          "type": "uint256"
        }
      ],
      "stateMutability": "view",
      "type": "function"
    },
    {
      "inputs": [],
      "name": "LIQUIDITY_FEE_NUMERATOR",
      "outputs": [
        {
          "internalType": "uint256",
          "name": "",
          "type": "uint256"
        }
      ],
      "stateMutability": "view",
      "type": "function"
    },
    {
      "inputs": [],
      "name": "VERSION",
      "outputs": [
        {
          "internalType": "uint8",
          "name": "",
          "type": "uint8"
        }
      ],
      "stateMutability": "view",
      "type": "function"
    },
    {
      "inputs": [],
      "name": "cosignerManagerAddress",
      "outputs": [
        {
          "internalType": "address",
          "name": "",
          "type": "address"
        }
      ],
      "stateMutability": "view",
      "type": "function"
    },
    {
      "inputs": [
        {
          "internalType": "address",
          "name": "token",
          "type": "address"
        },
        {
          "internalType": "uint256",
          "name": "amount",
          "type": "uint256"
        },
        {
          "internalType": "uint256",
          "name": "targetChainId",
          "type": "uint256"
        }
      ],
      "name": "enter",
      "outputs": [],
      "stateMutability": "nonpayable",
      "type": "function"
    },
    {
      "inputs": [
        {
          "internalType": "uint256",
          "name": "targetChainId",
          "type": "uint256"
        }
      ],
      "name": "enterETH",
      "outputs": [],
      "stateMutability": "payable",
      "type": "function"
    },
    {
      "inputs": [
        {
          "internalType": "bytes",
          "name": "data",
          "type": "bytes"
        },
        {
          "internalType": "bytes[]",
          "name": "signatures",
          "type": "bytes[]"
        }
      ],
      "name": "exit",
      "outputs": [],
      "stateMutability": "nonpayable",
      "type": "function"
    },
    {
      "inputs": [
        {
          "internalType": "contract IBridgeCosignerManager",
          "name": "cosignerManager_",
          "type": "address"
        },
        {
          "internalType": "contract IBridgeTokenManager",
          "name": "tokenManager_",
          "type": "address"
        }
      ],
      "name": "initialize",
      "outputs": [],
      "stateMutability": "nonpayable",
      "type": "function"
    },
    {
      "inputs": [],
      "name": "owner",
      "outputs": [
        {
          "internalType": "address",
          "name": "",
          "type": "address"
        }
      ],
      "stateMutability": "view",
      "type": "function"
    },
    {
      "inputs": [],
      "name": "paused",
      "outputs": [
        {
          "internalType": "bool",
          "name": "",
          "type": "bool"
        }
      ],
      "stateMutability": "view",
      "type": "function"
    },
    {
      "inputs": [],
      "name": "renounceOwnership",
      "outputs": [],
      "stateMutability": "nonpayable",
      "type": "function"
    },
    {
      "inputs": [
        {
          "internalType": "address",
          "name": "newCosignerManager",
          "type": "address"
        }
      ],
      "name": "setCosignerManager",
      "outputs": [],
      "stateMutability": "nonpayable",
      "type": "function"
    },
    {
      "inputs": [
        {
          "internalType": "address",
          "name": "newTokenManager",
          "type": "address"
        }
      ],
      "name": "setTokenManager",
      "outputs": [],
      "stateMutability": "nonpayable",
      "type": "function"
    },
    {
      "inputs": [],
      "name": "tokenManagerAddress",
      "outputs": [
        {
          "internalType": "address",
          "name": "",
          "type": "address"
        }
      ],
      "stateMutability": "view",
      "type": "function"
    },
    {
      "inputs": [
        {
          "internalType": "address",
          "name": "newOwner",
          "type": "address"
        }
      ],
      "name": "transferOwnership",
      "outputs": [],
      "stateMutability": "nonpayable",
      "type": "function"
    }
  ],
  "transactionHash": "0x7b968e9b36539563a4d75769f579015d9aa35f7a76cb0a101a5220b37fdcf7c1",
  "args": [],
  "solcInputHash": "7111ab0145506c073a05cda0867af63c",
  "bytecode": "0x608060405234801561001057600080fd5b50613c2d806100206000396000f3fe6080604052600436106100e85760003560e01c8063ae8f4f3a1161008a578063d5804bd411610059578063d5804bd41461029b578063e096c01c146102c4578063f2fde38b146102ef578063ffa1ad7414610318576100e8565b8063ae8f4f3a14610202578063b0c8bd041461022b578063bc4c594b14610254578063ce18acd41461027f576100e8565b80635c975abb116100c65780635c975abb1461016c578063715018a6146101975780637cb2b79c146101ae5780638da5cb5b146101d7576100e8565b80630951d6d8146100ed578063485cc955146101185780634b72c5da14610141575b600080fd5b3480156100f957600080fd5b50610102610343565b60405161010f91906133bb565b60405180910390f35b34801561012457600080fd5b5061013f600480360381019061013a9190612b2e565b610349565b005b34801561014d57600080fd5b506101566104ca565b60405161016391906133bb565b60405180910390f35b34801561017857600080fd5b506101816104d0565b60405161018e91906130de565b60405180910390f35b3480156101a357600080fd5b506101ac6104e7565b005b3480156101ba57600080fd5b506101d560048036038101906101d09190612a18565b61056f565b005b3480156101e357600080fd5b506101ec61069f565b6040516101f99190613063565b60405180910390f35b34801561020e57600080fd5b5061022960048036038101906102249190612ab9565b6106c9565b005b34801561023757600080fd5b50610252600480360381019061024d9190612a18565b610e3f565b005b34801561026057600080fd5b50610269610f6f565b6040516102769190613063565b60405180910390f35b61029960048036038101906102949190612ba6565b610f99565b005b3480156102a757600080fd5b506102c260048036038101906102bd9190612a41565b611186565b005b3480156102d057600080fd5b506102d96113f4565b6040516102e69190613063565b60405180910390f35b3480156102fb57600080fd5b5061031660048036038101906103119190612a18565b61141e565b005b34801561032457600080fd5b5061032d611516565b60405161033a9190613460565b60405180910390f35b6126fc81565b600060019054906101000a900460ff168061036f575060008054906101000a900460ff16155b6103ae576040517f08c379a00000000000000000000000000000000000000000000000000000000081526004016103a59061323b565b60405180910390fd5b60008060019054906101000a900460ff1615905080156103fe576001600060016101000a81548160ff02191690831515021790555060016000806101000a81548160ff0219169083151502179055505b8260cb60006101000a81548173ffffffffffffffffffffffffffffffffffffffff021916908373ffffffffffffffffffffffffffffffffffffffff1602179055508160cc60006101000a81548173ffffffffffffffffffffffffffffffffffffffff021916908373ffffffffffffffffffffffffffffffffffffffff1602179055504660cd5561048c61151b565b6104946115f4565b61049c6116dd565b6104a46117d1565b80156104c55760008060016101000a81548160ff0219169083151502179055505b505050565b61271081565b6000609760009054906101000a900460ff16905090565b6104ef6118b2565b73ffffffffffffffffffffffffffffffffffffffff1661050d61069f565b73ffffffffffffffffffffffffffffffffffffffff1614610563576040517f08c379a000000000000000000000000000000000000000000000000000000000815260040161055a9061327b565b60405180910390fd5b61056d60006118ba565b565b6105776118b2565b73ffffffffffffffffffffffffffffffffffffffff1661059561069f565b73ffffffffffffffffffffffffffffffffffffffff16146105eb576040517f08c379a00000000000000000000000000000000000000000000000000000000081526004016105e29061327b565b60405180910390fd5b600073ffffffffffffffffffffffffffffffffffffffff168173ffffffffffffffffffffffffffffffffffffffff16141561065b576040517f08c379a00000000000000000000000000000000000000000000000000000000081526004016106529061325b565b60405180910390fd5b8060cc60006101000a81548173ffffffffffffffffffffffffffffffffffffffff021916908373ffffffffffffffffffffffffffffffffffffffff16021790555050565b6000603360009054906101000a900473ffffffffffffffffffffffffffffffffffffffff16905090565b6002606554141561070f576040517f08c379a00000000000000000000000000000000000000000000000000000000081526004016107069061337b565b60405180910390fd5b600260658190555061071f6104d0565b1561075f576040517f08c379a00000000000000000000000000000000000000000000000000000000081526004016107569061321b565b60405180910390fd5b60006107b66107b186868080601f016020809104026020016040519081016040528093929190818152602001838380828437600081840152601f19601f82011690508083019250505050505050611980565b6119ae565b90506000610804826001815181106107f7577f4e487b7100000000000000000000000000000000000000000000000000000000600052603260045260246000fd5b60200260200101516119ae565b90507f2ca3f6854fee214a56bd76ec94840aa5c9623e048dde9b73b47b0e5709faf5d661087182600081518110610864577f4e487b7100000000000000000000000000000000000000000000000000000000600052603260045260246000fd5b6020026020010151611b0f565b60001b146108b4576040517f08c379a00000000000000000000000000000000000000000000000000000000081526004016108ab9061339b565b60405180910390fd5b6000610900826001815181106108f3577f4e487b7100000000000000000000000000000000000000000000000000000000600052603260045260246000fd5b6020026020010151611b69565b9050600061094e83600281518110610941577f4e487b7100000000000000000000000000000000000000000000000000000000600052603260045260246000fd5b6020026020010151611b69565b90506109586118b2565b73ffffffffffffffffffffffffffffffffffffffff168173ffffffffffffffffffffffffffffffffffffffff16146109c5576040517f08c379a00000000000000000000000000000000000000000000000000000000081526004016109bc9061315b565b60405180910390fd5b6000610a1185600281518110610a04577f4e487b7100000000000000000000000000000000000000000000000000000000600052603260045260246000fd5b6020026020010151611b0f565b90506000811415610a57576040517f08c379a0000000000000000000000000000000000000000000000000000000008152600401610a4e906132fb565b60405180910390fd5b6000610aa386600381518110610a96577f4e487b7100000000000000000000000000000000000000000000000000000000600052603260045260246000fd5b6020026020010151611b0f565b905060cd54811415610aea576040517f08c379a0000000000000000000000000000000000000000000000000000000008152600401610ae19061329b565b60405180910390fd5b6000610b3687600481518110610b29577f4e487b7100000000000000000000000000000000000000000000000000000000600052603260045260246000fd5b6020026020010151611b0f565b905060cd548114610b7c576040517f08c379a0000000000000000000000000000000000000000000000000000000008152600401610b73906132bb565b60405180910390fd5b60008b8b604051610b8e92919061301e565b6040518091039020905060ca600082815260200190815260200160002060009054906101000a900460ff1615610bf9576040517f08c379a0000000000000000000000000000000000000000000000000000000008152600401610bf09061333b565b60405180910390fd5b60cb60009054906101000a900473ffffffffffffffffffffffffffffffffffffffff1673ffffffffffffffffffffffffffffffffffffffff16633e6e8f6882858d8d6040518563ffffffff1660e01b8152600401610c5a94939291906130f9565b60206040518083038186803b158015610c7257600080fd5b505afa158015610c86573d6000803e3d6000fd5b505050506040513d601f19601f82011682018060405250810190610caa9190612a90565b610ce9576040517f08c379a0000000000000000000000000000000000000000000000000000000008152600401610ce09061319b565b60405180910390fd5b600160ca600083815260200190815260200160002060006101000a81548160ff02191690831515021790555060008060cc60009054906101000a900473ffffffffffffffffffffffffffffffffffffffff1673ffffffffffffffffffffffffffffffffffffffff1663e0f5ee328960cd546040518363ffffffff1660e01b8152600401610d779291906130b5565b60a06040518083038186803b158015610d8f57600080fd5b505afa158015610da3573d6000803e3d6000fd5b505050506040513d601f19601f82011682018060405250810190610dc79190612b6a565b9150915080610e0b576040517f08c379a0000000000000000000000000000000000000000000000000000000008152600401610e02906131db565b60405180910390fd5b610e16828888611b8c565b610e27826000015188858989611db4565b50505050505050505050600160658190555050505050565b610e476118b2565b73ffffffffffffffffffffffffffffffffffffffff16610e6561069f565b73ffffffffffffffffffffffffffffffffffffffff1614610ebb576040517f08c379a0000000000000000000000000000000000000000000000000000000008152600401610eb29061327b565b60405180910390fd5b600073ffffffffffffffffffffffffffffffffffffffff168173ffffffffffffffffffffffffffffffffffffffff161415610f2b576040517f08c379a0000000000000000000000000000000000000000000000000000000008152600401610f229061325b565b60405180910390fd5b8060cb60006101000a81548173ffffffffffffffffffffffffffffffffffffffff021916908373ffffffffffffffffffffffffffffffffffffffff16021790555050565b600060cc60009054906101000a900473ffffffffffffffffffffffffffffffffffffffff16905090565b60026065541415610fdf576040517f08c379a0000000000000000000000000000000000000000000000000000000008152600401610fd69061337b565b60405180910390fd5b6002606581905550610fef6104d0565b1561102f576040517f08c379a00000000000000000000000000000000000000000000000000000000081526004016110269061321b565b60405180910390fd5b6000341415611073576040517f08c379a000000000000000000000000000000000000000000000000000000000815260040161106a906132fb565b60405180910390fd5b600060cc60009054906101000a900473ffffffffffffffffffffffffffffffffffffffff1673ffffffffffffffffffffffffffffffffffffffff1663e0f5ee326000846040518363ffffffff1660e01b81526004016110d39291906130b5565b60a06040518083038186803b1580156110eb57600080fd5b505afa1580156110ff573d6000803e3d6000fd5b505050506040513d601f19601f820116820180604052508101906111239190612b6a565b91505080611166576040517f08c379a000000000000000000000000000000000000000000000000000000000815260040161115d906131db565b60405180910390fd5b61117a60006111736118b2565b3485611e28565b50600160658190555050565b600260655414156111cc576040517f08c379a00000000000000000000000000000000000000000000000000000000081526004016111c39061337b565b60405180910390fd5b60026065819055506111dc6104d0565b1561121c576040517f08c379a00000000000000000000000000000000000000000000000000000000081526004016112139061321b565b60405180910390fd5b600073ffffffffffffffffffffffffffffffffffffffff168373ffffffffffffffffffffffffffffffffffffffff16141561128c576040517f08c379a00000000000000000000000000000000000000000000000000000000081526004016112839061325b565b60405180910390fd5b60008214156112d0576040517f08c379a00000000000000000000000000000000000000000000000000000000081526004016112c7906132fb565b60405180910390fd5b60008060cc60009054906101000a900473ffffffffffffffffffffffffffffffffffffffff1673ffffffffffffffffffffffffffffffffffffffff1663e0f5ee3286856040518363ffffffff1660e01b81526004016113309291906130b5565b60a06040518083038186803b15801561134857600080fd5b505afa15801561135c573d6000803e3d6000fd5b505050506040513d601f19601f820116820180604052508101906113809190612b6a565b91509150806113c4576040517f08c379a00000000000000000000000000000000000000000000000000000000081526004016113bb906131db565b60405180910390fd5b6113ce8285611f2f565b6113e582600001516113de6118b2565b8686611e28565b50506001606581905550505050565b600060cb60009054906101000a900473ffffffffffffffffffffffffffffffffffffffff16905090565b6114266118b2565b73ffffffffffffffffffffffffffffffffffffffff1661144461069f565b73ffffffffffffffffffffffffffffffffffffffff161461149a576040517f08c379a00000000000000000000000000000000000000000000000000000000081526004016114919061327b565b60405180910390fd5b600073ffffffffffffffffffffffffffffffffffffffff168173ffffffffffffffffffffffffffffffffffffffff16141561150a576040517f08c379a00000000000000000000000000000000000000000000000000000000081526004016115019061317b565b60405180910390fd5b611513816118ba565b50565b600081565b600060019054906101000a900460ff1680611541575060008054906101000a900460ff16155b611580576040517f08c379a00000000000000000000000000000000000000000000000000000000081526004016115779061323b565b60405180910390fd5b60008060019054906101000a900460ff1615905080156115d0576001600060016101000a81548160ff02191690831515021790555060016000806101000a81548160ff0219169083151502179055505b80156115f15760008060016101000a81548160ff0219169083151502179055505b50565b600060019054906101000a900460ff168061161a575060008054906101000a900460ff16155b611659576040517f08c379a00000000000000000000000000000000000000000000000000000000081526004016116509061323b565b60405180910390fd5b60008060019054906101000a900460ff1615905080156116a9576001600060016101000a81548160ff02191690831515021790555060016000806101000a81548160ff0219169083151502179055505b6116b96116b46118b2565b6118ba565b80156116da5760008060016101000a81548160ff0219169083151502179055505b50565b600060019054906101000a900460ff1680611703575060008054906101000a900460ff16155b611742576040517f08c379a00000000000000000000000000000000000000000000000000000000081526004016117399061323b565b60405180910390fd5b60008060019054906101000a900460ff161590508015611792576001600060016101000a81548160ff02191690831515021790555060016000806101000a81548160ff0219169083151502179055505b6000609760006101000a81548160ff02191690831515021790555080156117ce5760008060016101000a81548160ff0219169083151502179055505b50565b600060019054906101000a900460ff16806117f7575060008054906101000a900460ff16155b611836576040517f08c379a000000000000000000000000000000000000000000000000000000000815260040161182d9061323b565b60405180910390fd5b60008060019054906101000a900460ff161590508015611886576001600060016101000a81548160ff02191690831515021790555060016000806101000a81548160ff0219169083151502179055505b600160658190555080156118af5760008060016101000a81548160ff0219169083151502179055505b50565b600033905090565b6000603360009054906101000a900473ffffffffffffffffffffffffffffffffffffffff16905081603360006101000a81548173ffffffffffffffffffffffffffffffffffffffff021916908373ffffffffffffffffffffffffffffffffffffffff1602179055508173ffffffffffffffffffffffffffffffffffffffff168173ffffffffffffffffffffffffffffffffffffffff167f8be0079c531659141344cd1fd0a4f28419497f9722a3daafe3b4186f6b6457e060405160405180910390a35050565b61198861284e565b600060208301905060405180604001604052808451815260200182815250915050919050565b60606119b98261211d565b6119c257600080fd5b60006119cd8361216b565b905060008167ffffffffffffffff811115611a11577f4e487b7100000000000000000000000000000000000000000000000000000000600052604160045260246000fd5b604051908082528060200260200182016040528015611a4a57816020015b611a3761284e565b815260200190600190039081611a2f5790505b5090506000611a5c85602001516121f9565b8560200151611a6b9190613562565b9050600080600090505b84811015611b0257611a86836122b8565b9150604051806040016040528083815260200184815250848281518110611ad6577f4e487b7100000000000000000000000000000000000000000000000000000000600052603260045260246000fd5b60200260200101819052508183611aed9190613562565b92508080611afa90613716565b915050611a75565b5082945050505050919050565b6000808260000151118015611b2957506021826000015111155b611b3257600080fd5b600080611b3e84612394565b915091506000825190506020821015611b5e57816020036101000a810490505b809350505050919050565b60006015826000015114611b7c57600080fd5b611b8582611b0f565b9050919050565b600073ffffffffffffffffffffffffffffffffffffffff16836000015173ffffffffffffffffffffffffffffffffffffffff161415611bd457611bcf82826123de565b611daf565b600180811115611c0d577f4e487b7100000000000000000000000000000000000000000000000000000000600052602160045260246000fd5b83604001516001811115611c4a577f4e487b7100000000000000000000000000000000000000000000000000000000600052602160045260246000fd5b1415611cc657826000015173ffffffffffffffffffffffffffffffffffffffff166340c10f1983836040518363ffffffff1660e01b8152600401611c8f9291906130b5565b600060405180830381600087803b158015611ca957600080fd5b505af1158015611cbd573d6000803e3d6000fd5b50505050611dae565b60006001811115611d00577f4e487b7100000000000000000000000000000000000000000000000000000000600052602160045260246000fd5b83604001516001811115611d3d577f4e487b7100000000000000000000000000000000000000000000000000000000600052602160045260246000fd5b1415611d7757611d728282856000015173ffffffffffffffffffffffffffffffffffffffff166124d29092919063ffffffff16565b611dad565b6000611dac577f4e487b7100000000000000000000000000000000000000000000000000000000600052600160045260246000fd5b5b5b5b505050565b8373ffffffffffffffffffffffffffffffffffffffff168573ffffffffffffffffffffffffffffffffffffffff167f812815d6ddc266545cbe93cd74cdaec6517a81842a230a1773c976e78389ad2e848660cd5486604051611e1994939291906133d6565b60405180910390a35050505050565b8273ffffffffffffffffffffffffffffffffffffffff168473ffffffffffffffffffffffffffffffffffffffff167f553685c68db2f1e0adf08d56c06ec87ff411232298a59276dbdb1b032c38151e8460c960008873ffffffffffffffffffffffffffffffffffffffff1673ffffffffffffffffffffffffffffffffffffffff1681526020019081526020016000205460cd5486604051611ecc949392919061341b565b60405180910390a360c960008473ffffffffffffffffffffffffffffffffffffffff1673ffffffffffffffffffffffffffffffffffffffff1681526020019081526020016000206000815480929190611f2490613716565b919050555050505050565b600180811115611f68577f4e487b7100000000000000000000000000000000000000000000000000000000600052602160045260246000fd5b82604001516001811115611fa5577f4e487b7100000000000000000000000000000000000000000000000000000000600052602160045260246000fd5b141561202857816000015173ffffffffffffffffffffffffffffffffffffffff16639dc29fac611fd36118b2565b836040518363ffffffff1660e01b8152600401611ff19291906130b5565b600060405180830381600087803b15801561200b57600080fd5b505af115801561201f573d6000803e3d6000fd5b50505050612119565b60006001811115612062577f4e487b7100000000000000000000000000000000000000000000000000000000600052602160045260246000fd5b8260400151600181111561209f577f4e487b7100000000000000000000000000000000000000000000000000000000600052602160045260246000fd5b14156120e2576120dd6120b06118b2565b3083856000015173ffffffffffffffffffffffffffffffffffffffff16612558909392919063ffffffff16565b612118565b6000612117577f4e487b7100000000000000000000000000000000000000000000000000000000600052600160045260246000fd5b5b5b5050565b600080826000015114156121345760009050612166565b60008083602001519050805160001a915060c060ff168260ff16101561215f57600092505050612166565b6001925050505b919050565b6000808260000151141561218257600090506121f4565b60008061219284602001516121f9565b84602001516121a19190613562565b90506000846000015185602001516121b99190613562565b90505b808210156121ed576121cd826122b8565b826121d89190613562565b915082806121e590613716565b9350506121bc565b8293505050505b919050565b600080825160001a9050608060ff168110156122195760009150506122b3565b60b860ff1681108061223e575060c060ff16811015801561223d575060f860ff1681105b5b1561224d5760019150506122b3565b60c060ff168110156122885760018060b861226891906135ec565b60ff168261227691906135b8565b6122809190613562565b9150506122b3565b60018060f861229791906135ec565b60ff16826122a591906135b8565b6122af9190613562565b9150505b919050565b6000806000835160001a9050608060ff168110156122d9576001915061238a565b60b860ff16811015612308576001608060ff16826122f791906135b8565b6123019190613562565b9150612389565b60c060ff168110156123385760b78103600185019450806020036101000a85510460018201810193505050612388565b60f860ff1681101561236757600160c060ff168261235691906135b8565b6123609190613562565b9150612387565b60f78103600185019450806020036101000a855104600182018101935050505b5b5b5b8192505050919050565b60008060006123a684602001516121f9565b905060008185602001516123ba9190613562565b905060008286600001516123ce91906135b8565b9050818194509450505050915091565b80471015612421576040517f08c379a0000000000000000000000000000000000000000000000000000000008152600401612418906132db565b60405180910390fd5b60008273ffffffffffffffffffffffffffffffffffffffff16826040516124479061304e565b60006040518083038185875af1925050503d8060008114612484576040519150601f19603f3d011682016040523d82523d6000602084013e612489565b606091505b50509050806124cd576040517f08c379a00000000000000000000000000000000000000000000000000000000081526004016124c4906131bb565b60405180910390fd5b505050565b6125538363a9059cbb60e01b84846040516024016124f19291906130b5565b604051602081830303815290604052907bffffffffffffffffffffffffffffffffffffffffffffffffffffffff19166020820180517bffffffffffffffffffffffffffffffffffffffffffffffffffffffff83818316178352505050506125e1565b505050565b6125db846323b872dd60e01b8585856040516024016125799392919061307e565b604051602081830303815290604052907bffffffffffffffffffffffffffffffffffffffffffffffffffffffff19166020820180517bffffffffffffffffffffffffffffffffffffffffffffffffffffffff83818316178352505050506125e1565b50505050565b6000612643826040518060400160405280602081526020017f5361666545524332303a206c6f772d6c6576656c2063616c6c206661696c65648152508573ffffffffffffffffffffffffffffffffffffffff166126a89092919063ffffffff16565b90506000815111156126a357808060200190518101906126639190612a90565b6126a2576040517f08c379a00000000000000000000000000000000000000000000000000000000081526004016126999061335b565b60405180910390fd5b5b505050565b60606126b784846000856126c0565b90509392505050565b606082471015612705576040517f08c379a00000000000000000000000000000000000000000000000000000000081526004016126fc906131fb565b60405180910390fd5b61270e856127d4565b61274d576040517f08c379a00000000000000000000000000000000000000000000000000000000081526004016127449061331b565b60405180910390fd5b6000808673ffffffffffffffffffffffffffffffffffffffff1685876040516127769190613037565b60006040518083038185875af1925050503d80600081146127b3576040519150601f19603f3d011682016040523d82523d6000602084013e6127b8565b606091505b50915091506127c88282866127e7565b92505050949350505050565b600080823b905060008111915050919050565b606083156127f757829050612847565b60008351111561280a5782518084602001fd5b816040517f08c379a000000000000000000000000000000000000000000000000000000000815260040161283e9190613139565b60405180910390fd5b9392505050565b604051806040016040528060008152602001600081525090565b60008135905061287781613b74565b92915050565b60008151905061288c81613b74565b92915050565b60008083601f8401126128a457600080fd5b8235905067ffffffffffffffff8111156128bd57600080fd5b6020830191508360208202830111156128d557600080fd5b9250929050565b6000815190506128eb81613b8b565b92915050565b60008083601f84011261290357600080fd5b8235905067ffffffffffffffff81111561291c57600080fd5b60208301915083600182028301111561293457600080fd5b9250929050565b60008135905061294a81613ba2565b92915050565b60008135905061295f81613bb9565b92915050565b60008151905061297481613bd0565b92915050565b60006080828403121561298c57600080fd5b612996608061347b565b905060006129a68482850161287d565b60008301525060206129ba84828501612a03565b60208301525060406129ce84828501612965565b60408301525060606129e2848285016128dc565b60608301525092915050565b6000813590506129fd81613be0565b92915050565b600081519050612a1281613be0565b92915050565b600060208284031215612a2a57600080fd5b6000612a3884828501612868565b91505092915050565b600080600060608486031215612a5657600080fd5b6000612a6486828701612868565b9350506020612a75868287016129ee565b9250506040612a86868287016129ee565b9150509250925092565b600060208284031215612aa257600080fd5b6000612ab0848285016128dc565b91505092915050565b60008060008060408587031215612acf57600080fd5b600085013567ffffffffffffffff811115612ae957600080fd5b612af5878288016128f1565b9450945050602085013567ffffffffffffffff811115612b1457600080fd5b612b2087828801612892565b925092505092959194509250565b60008060408385031215612b4157600080fd5b6000612b4f8582860161293b565b9250506020612b6085828601612950565b9150509250929050565b60008060a08385031215612b7d57600080fd5b6000612b8b8582860161297a565b9250506080612b9c858286016128dc565b9150509250929050565b600060208284031215612bb857600080fd5b6000612bc6848285016129ee565b91505092915050565b6000612bdc848484612c88565b90509392505050565b612bee81613620565b82525050565b6000612c0083856134cd565b935083602084028501612c12846134a0565b8060005b87811015612c58578484038952612c2d828461350b565b612c38868284612bcf565b9550612c43846134c0565b935060208b019a505050600181019050612c16565b50829750879450505050509392505050565b612c7381613632565b82525050565b612c828161363e565b82525050565b6000612c9483856134de565b9350612ca18385846136a3565b612caa836137bd565b840190509392505050565b6000612cc183856134ef565b9350612cce8385846136a3565b82840190509392505050565b6000612ce5826134aa565b612cef81856134ef565b9350612cff8185602086016136b2565b80840191505092915050565b6000612d16826134b5565b612d2081856134fa565b9350612d308185602086016136b2565b612d39816137bd565b840191505092915050565b6000612d51600d836134fa565b9150612d5c826137ce565b602082019050919050565b6000612d746026836134fa565b9150612d7f826137f7565b604082019050919050565b6000612d976016836134fa565b9150612da282613846565b602082019050919050565b6000612dba600f836134fa565b9150612dc58261386f565b602082019050919050565b6000612ddd6014836134fa565b9150612de882613898565b602082019050919050565b6000612e006026836134fa565b9150612e0b826138c1565b604082019050919050565b6000612e236010836134fa565b9150612e2e82613910565b602082019050919050565b6000612e46602e836134fa565b9150612e5182613939565b604082019050919050565b6000612e696010836134fa565b9150612e7482613988565b602082019050919050565b6000612e8c6020836134fa565b9150612e97826139b1565b602082019050919050565b6000612eaf6016836134fa565b9150612eba826139da565b602082019050919050565b6000612ed26016836134fa565b9150612edd82613a03565b602082019050919050565b6000612ef56018836134fa565b9150612f0082613a2c565b602082019050919050565b6000612f18600f836134fa565b9150612f2382613a55565b602082019050919050565b6000612f3b6000836134ef565b9150612f4682613a7e565b600082019050919050565b6000612f5e601d836134fa565b9150612f6982613a81565b602082019050919050565b6000612f816014836134fa565b9150612f8c82613aaa565b602082019050919050565b6000612fa4602a836134fa565b9150612faf82613ad3565b604082019050919050565b6000612fc7601f836134fa565b9150612fd282613b22565b602082019050919050565b6000612fea600f836134fa565b9150612ff582613b4b565b602082019050919050565b6130098161368c565b82525050565b61301881613696565b82525050565b600061302b828486612cb5565b91508190509392505050565b60006130438284612cda565b915081905092915050565b600061305982612f2e565b9150819050919050565b60006020820190506130786000830184612be5565b92915050565b60006060820190506130936000830186612be5565b6130a06020830185612be5565b6130ad6040830184613000565b949350505050565b60006040820190506130ca6000830185612be5565b6130d76020830184613000565b9392505050565b60006020820190506130f36000830184612c6a565b92915050565b600060608201905061310e6000830187612c79565b61311b6020830186613000565b818103604083015261312e818486612bf4565b905095945050505050565b600060208201905081810360008301526131538184612d0b565b905092915050565b6000602082019050818103600083015261317481612d44565b9050919050565b6000602082019050818103600083015261319481612d67565b9050919050565b600060208201905081810360008301526131b481612d8a565b9050919050565b600060208201905081810360008301526131d481612dad565b9050919050565b600060208201905081810360008301526131f481612dd0565b9050919050565b6000602082019050818103600083015261321481612df3565b9050919050565b6000602082019050818103600083015261323481612e16565b9050919050565b6000602082019050818103600083015261325481612e39565b9050919050565b6000602082019050818103600083015261327481612e5c565b9050919050565b6000602082019050818103600083015261329481612e7f565b9050919050565b600060208201905081810360008301526132b481612ea2565b9050919050565b600060208201905081810360008301526132d481612ec5565b9050919050565b600060208201905081810360008301526132f481612ee8565b9050919050565b6000602082019050818103600083015261331481612f0b565b9050919050565b6000602082019050818103600083015261333481612f51565b9050919050565b6000602082019050818103600083015261335481612f74565b9050919050565b6000602082019050818103600083015261337481612f97565b9050919050565b6000602082019050818103600083015261339481612fba565b9050919050565b600060208201905081810360008301526133b481612fdd565b9050919050565b60006020820190506133d06000830184613000565b92915050565b60006080820190506133eb6000830187613000565b6133f86020830186612c79565b6134056040830185613000565b6134126060830184613000565b95945050505050565b60006080820190506134306000830187613000565b61343d6020830186613000565b61344a6040830185613000565b6134576060830184613000565b95945050505050565b6000602082019050613475600083018461300f565b92915050565b6000613485613496565b905061349182826136e5565b919050565b6000604051905090565b6000819050919050565b600081519050919050565b600081519050919050565b6000602082019050919050565b600082825260208201905092915050565b600082825260208201905092915050565b600081905092915050565b600082825260208201905092915050565b6000808335600160200384360303811261352457600080fd5b83810192508235915060208301925067ffffffffffffffff82111561354857600080fd5b60018202360384131561355a57600080fd5b509250929050565b600061356d8261368c565b91506135788361368c565b9250827fffffffffffffffffffffffffffffffffffffffffffffffffffffffffffffffff038211156135ad576135ac61375f565b5b828201905092915050565b60006135c38261368c565b91506135ce8361368c565b9250828210156135e1576135e061375f565b5b828203905092915050565b60006135f782613696565b915061360283613696565b9250828210156136155761361461375f565b5b828203905092915050565b600061362b8261366c565b9050919050565b60008115159050919050565b6000819050919050565b600061365382613620565b9050919050565b600061366582613620565b9050919050565b600073ffffffffffffffffffffffffffffffffffffffff82169050919050565b6000819050919050565b600060ff82169050919050565b82818337600083830152505050565b60005b838110156136d05780820151818401526020810190506136b5565b838111156136df576000848401525b50505050565b6136ee826137bd565b810181811067ffffffffffffffff8211171561370d5761370c61378e565b5b80604052505050565b60006137218261368c565b91507fffffffffffffffffffffffffffffffffffffffffffffffffffffffffffffffff8214156137545761375361375f565b5b600182019050919050565b7f4e487b7100000000000000000000000000000000000000000000000000000000600052601160045260246000fd5b7f4e487b7100000000000000000000000000000000000000000000000000000000600052604160045260246000fd5b6000601f19601f8301169050919050565b7f42523a204e4f545f4f4e57455200000000000000000000000000000000000000600082015250565b7f4f776e61626c653a206e6577206f776e657220697320746865207a65726f206160008201527f6464726573730000000000000000000000000000000000000000000000000000602082015250565b7f42523a20494e56414c49445f5349474e41545552455300000000000000000000600082015250565b7f42523a2053454e445f5245564552540000000000000000000000000000000000600082015250565b7f42523a20544f4b454e5f4e4f545f4c4953544544000000000000000000000000600082015250565b7f416464726573733a20696e73756666696369656e742062616c616e636520666f60008201527f722063616c6c0000000000000000000000000000000000000000000000000000602082015250565b7f5061757361626c653a2070617573656400000000000000000000000000000000600082015250565b7f496e697469616c697a61626c653a20636f6e747261637420697320616c72656160008201527f647920696e697469616c697a6564000000000000000000000000000000000000602082015250565b7f42523a205a45524f5f4144445245535300000000000000000000000000000000600082015250565b7f4f776e61626c653a2063616c6c6572206973206e6f7420746865206f776e6572600082015250565b7f42523a2057524f4e475f534f555243455f434841494e00000000000000000000600082015250565b7f42523a2057524f4e475f5441524745545f434841494e00000000000000000000600082015250565b7f42523a20494e53554646494349454e545f42414c414e43450000000000000000600082015250565b7f42523a205a45524f5f414d4f554e540000000000000000000000000000000000600082015250565b50565b7f416464726573733a2063616c6c20746f206e6f6e2d636f6e7472616374000000600082015250565b7f42523a20434f4d4d49544d454e545f4b4e4f574e000000000000000000000000600082015250565b7f5361666545524332303a204552433230206f7065726174696f6e20646964206e60008201527f6f74207375636365656400000000000000000000000000000000000000000000602082015250565b7f5265656e7472616e637947756172643a207265656e7472616e742063616c6c00600082015250565b7f42523a20494e56414c49445f4556540000000000000000000000000000000000600082015250565b613b7d81613620565b8114613b8857600080fd5b50565b613b9481613632565b8114613b9f57600080fd5b50565b613bab81613648565b8114613bb657600080fd5b50565b613bc28161365a565b8114613bcd57600080fd5b50565b60028110613bdd57600080fd5b50565b613be98161368c565b8114613bf457600080fd5b5056fea26469706673582212208ec5ac02b1b639416796755be07620b879e3b36ce734bbf0efa3aec0d5769ae764736f6c63430008040033",
  "devdoc": {
    "kind": "dev",
    "methods": {
      "cosignerManagerAddress()": {
        "returns": {
          "_0": "The address of cosigner manager contract"
        }
      },
      "owner()": {
        "details": "Returns the address of the current owner."
      },
      "paused()": {
        "details": "Returns true if the contract is paused, and false otherwise."
      },
      "renounceOwnership()": {
        "details": "Leaves the contract without owner. It will not be possible to call `onlyOwner` functions anymore. Can only be called by the current owner. NOTE: Renouncing ownership will leave the contract without an owner, thereby removing any functionality that is only available to the owner."
      },
      "setCosignerManager(address)": {
        "details": "This should be the contract responsible for sign by behalf of the payloads",
        "params": {
          "newCosignerManager": "address of cosigner manager contract"
        }
      },
      "setTokenManager(address)": {
        "details": "This should be the contract responsible for checking and add tokens to crosschain mapping",
        "params": {
          "newTokenManager": "address of token manager contract"
        }
      },
      "tokenManagerAddress()": {
        "returns": {
          "_0": "The address of token manager contract"
        }
      },
      "transferOwnership(address)": {
        "details": "Transfers ownership of the contract to a new account (`newOwner`). Can only be called by the current owner."
      }
    },
    "version": 1
  },
  "userdoc": {
    "kind": "user",
    "methods": {
      "cosignerManagerAddress()": {
        "notice": "Get the address of contract set as cosigner manager"
      },
      "setCosignerManager(address)": {
        "notice": "Set the cosigner manager, callable only by cosigners"
      },
      "setTokenManager(address)": {
        "notice": "Set the token manager, callable only by cosigners"
      },
      "tokenManagerAddress()": {
        "notice": "Get the address of contract set as token manager"
      }
    },
    "version": 1
  },
  "storageLayout": {
    "storage": [
      {
        "astId": 130,
        "contract": "contracts/BridgeRouter.sol:BridgeRouter",
        "label": "_initialized",
        "offset": 0,
        "slot": "0",
        "type": "t_bool"
      },
      {
        "astId": 133,
        "contract": "contracts/BridgeRouter.sol:BridgeRouter",
        "label": "_initializing",
        "offset": 1,
        "slot": "0",
        "type": "t_bool"
      },
      {
        "astId": 384,
        "contract": "contracts/BridgeRouter.sol:BridgeRouter",
        "label": "__gap",
        "offset": 0,
        "slot": "1",
        "type": "t_array(t_uint256)50_storage"
      },
      {
        "astId": 10,
        "contract": "contracts/BridgeRouter.sol:BridgeRouter",
        "label": "_owner",
        "offset": 0,
        "slot": "51",
        "type": "t_address"
      },
      {
        "astId": 123,
        "contract": "contracts/BridgeRouter.sol:BridgeRouter",
        "label": "__gap",
        "offset": 0,
        "slot": "52",
        "type": "t_array(t_uint256)49_storage"
      },
      {
        "astId": 297,
        "contract": "contracts/BridgeRouter.sol:BridgeRouter",
        "label": "_status",
        "offset": 0,
        "slot": "101",
        "type": "t_uint256"
      },
      {
        "astId": 340,
        "contract": "contracts/BridgeRouter.sol:BridgeRouter",
        "label": "__gap",
        "offset": 0,
        "slot": "102",
        "type": "t_array(t_uint256)49_storage"
      },
      {
        "astId": 191,
        "contract": "contracts/BridgeRouter.sol:BridgeRouter",
        "label": "_paused",
        "offset": 0,
        "slot": "151",
        "type": "t_bool"
      },
      {
        "astId": 282,
        "contract": "contracts/BridgeRouter.sol:BridgeRouter",
        "label": "__gap",
        "offset": 0,
        "slot": "152",
        "type": "t_array(t_uint256)49_storage"
      },
      {
        "astId": 1854,
        "contract": "contracts/BridgeRouter.sol:BridgeRouter",
        "label": "_nonces",
        "offset": 0,
        "slot": "201",
        "type": "t_mapping(t_address,t_uint256)"
      },
      {
        "astId": 1858,
        "contract": "contracts/BridgeRouter.sol:BridgeRouter",
        "label": "_commitments",
        "offset": 0,
        "slot": "202",
        "type": "t_mapping(t_bytes32,t_bool)"
      },
      {
        "astId": 1867,
        "contract": "contracts/BridgeRouter.sol:BridgeRouter",
        "label": "_cosignerManager",
        "offset": 0,
        "slot": "203",
        "type": "t_contract(IBridgeCosignerManager)2624"
      },
      {
        "astId": 1870,
        "contract": "contracts/BridgeRouter.sol:BridgeRouter",
        "label": "_tokenManager",
        "offset": 0,
        "slot": "204",
        "type": "t_contract(IBridgeTokenManager)2721"
      },
      {
        "astId": 1872,
        "contract": "contracts/BridgeRouter.sol:BridgeRouter",
        "label": "_chainId",
        "offset": 0,
        "slot": "205",
        "type": "t_uint256"
      },
      {
        "astId": 1881,
        "contract": "contracts/BridgeRouter.sol:BridgeRouter",
        "label": "__gap",
        "offset": 0,
        "slot": "206",
        "type": "t_array(t_uint256)49_storage"
      }
    ],
    "types": {
      "t_address": {
        "encoding": "inplace",
        "label": "address",
        "numberOfBytes": "20"
      },
      "t_array(t_uint256)49_storage": {
        "base": "t_uint256",
        "encoding": "inplace",
        "label": "uint256[49]",
        "numberOfBytes": "1568"
      },
      "t_array(t_uint256)50_storage": {
        "base": "t_uint256",
        "encoding": "inplace",
        "label": "uint256[50]",
        "numberOfBytes": "1600"
      },
      "t_bool": {
        "encoding": "inplace",
        "label": "bool",
        "numberOfBytes": "1"
      },
      "t_bytes32": {
        "encoding": "inplace",
        "label": "bytes32",
        "numberOfBytes": "32"
      },
      "t_contract(IBridgeCosignerManager)2624": {
        "encoding": "inplace",
        "label": "contract IBridgeCosignerManager",
        "numberOfBytes": "20"
      },
      "t_contract(IBridgeTokenManager)2721": {
        "encoding": "inplace",
        "label": "contract IBridgeTokenManager",
        "numberOfBytes": "20"
      },
      "t_mapping(t_address,t_uint256)": {
        "encoding": "mapping",
        "key": "t_address",
        "label": "mapping(address => uint256)",
        "numberOfBytes": "32",
        "value": "t_uint256"
      },
      "t_mapping(t_bytes32,t_bool)": {
        "encoding": "mapping",
        "key": "t_bytes32",
        "label": "mapping(bytes32 => bool)",
        "numberOfBytes": "32",
        "value": "t_bool"
      },
      "t_uint256": {
        "encoding": "inplace",
        "label": "uint256",
        "numberOfBytes": "32"
      }
    }
  }
}