{
  "address": "0xF6D1A495e04616f80AAe18c61a8A96438AFe1B2e",
  "abi": [
    {
      "anonymous": false,
      "inputs": [
        {
          "indexed": true,
          "internalType": "address",
          "name": "token",
          "type": "address"
        },
        {
          "indexed": true,
          "internalType": "address",
          "name": "exitor",
          "type": "address"
        },
        {
          "indexed": false,
          "internalType": "uint256",
          "name": "amount",
          "type": "uint256"
        },
        {
          "indexed": false,
          "internalType": "uint256",
          "name": "nonce",
          "type": "uint256"
        },
        {
          "indexed": false,
          "internalType": "uint256",
          "name": "localChainId",
          "type": "uint256"
        },
        {
          "indexed": false,
          "internalType": "uint256",
          "name": "targetChainId",
          "type": "uint256"
        }
      ],
      "name": "Enter",
      "type": "event"
    },
    {
      "anonymous": false,
      "inputs": [
        {
          "indexed": true,
          "internalType": "address",
          "name": "token",
          "type": "address"
        },
        {
          "indexed": true,
          "internalType": "address",
          "name": "exitor",
          "type": "address"
        },
        {
          "indexed": false,
          "internalType": "uint256",
          "name": "amount",
          "type": "uint256"
        },
        {
          "indexed": false,
          "internalType": "bytes32",
          "name": "commitment",
          "type": "bytes32"
        },
        {
          "indexed": false,
          "internalType": "uint256",
          "name": "localChainId",
          "type": "uint256"
        },
        {
          "indexed": false,
          "internalType": "uint256",
          "name": "extChainId",
          "type": "uint256"
        }
      ],
      "name": "Exit",
      "type": "event"
    },
    {
      "anonymous": false,
      "inputs": [
        {
          "indexed": true,
          "internalType": "address",
          "name": "previousOwner",
          "type": "address"
        },
        {
          "indexed": true,
          "internalType": "address",
          "name": "newOwner",
          "type": "address"
        }
      ],
      "name": "OwnershipTransferred",
      "type": "event"
    },
    {
      "anonymous": false,
      "inputs": [
        {
          "indexed": false,
          "internalType": "address",
          "name": "account",
          "type": "address"
        }
      ],
      "name": "Paused",
      "type": "event"
    },
    {
      "anonymous": false,
      "inputs": [
        {
          "indexed": false,
          "internalType": "address",
          "name": "account",
          "type": "address"
        }
      ],
      "name": "Unpaused",
      "type": "event"
    },
    {
      "inputs": [],
      "name": "VERSION",
      "outputs": [
        {
          "internalType": "uint8",
          "name": "",
          "type": "uint8"
        }
      ],
      "stateMutability": "view",
      "type": "function"
    },
    {
      "inputs": [],
      "name": "cosignerManager",
      "outputs": [
        {
          "internalType": "contract IBridgeCosignerManager",
          "name": "",
          "type": "address"
        }
      ],
      "stateMutability": "view",
      "type": "function"
    },
    {
      "inputs": [
        {
          "internalType": "address",
          "name": "token",
          "type": "address"
        },
        {
          "internalType": "uint256",
          "name": "amount",
          "type": "uint256"
        },
        {
          "internalType": "uint256",
          "name": "targetChainId",
          "type": "uint256"
        }
      ],
      "name": "enter",
      "outputs": [],
      "stateMutability": "nonpayable",
      "type": "function"
    },
    {
      "inputs": [
        {
          "internalType": "uint256",
          "name": "targetChainId",
          "type": "uint256"
        }
      ],
      "name": "enterETH",
      "outputs": [],
      "stateMutability": "payable",
      "type": "function"
    },
    {
      "inputs": [
        {
          "internalType": "bytes",
          "name": "data",
          "type": "bytes"
        },
        {
          "internalType": "bytes[]",
          "name": "signatures",
          "type": "bytes[]"
        }
      ],
      "name": "exit",
      "outputs": [],
      "stateMutability": "nonpayable",
      "type": "function"
    },
    {
      "inputs": [
        {
          "internalType": "contract IBridgeCosignerManager",
          "name": "cosignerManager_",
          "type": "address"
        },
        {
          "internalType": "contract IBridgeTokenManager",
          "name": "tokenManager_",
          "type": "address"
        }
      ],
      "name": "initialize",
      "outputs": [],
      "stateMutability": "nonpayable",
      "type": "function"
    },
    {
      "inputs": [],
      "name": "owner",
      "outputs": [
        {
          "internalType": "address",
          "name": "",
          "type": "address"
        }
      ],
      "stateMutability": "view",
      "type": "function"
    },
    {
      "inputs": [],
      "name": "paused",
      "outputs": [
        {
          "internalType": "bool",
          "name": "",
          "type": "bool"
        }
      ],
      "stateMutability": "view",
      "type": "function"
    },
    {
      "inputs": [],
      "name": "renounceOwnership",
      "outputs": [],
      "stateMutability": "nonpayable",
      "type": "function"
    },
    {
      "inputs": [
        {
          "internalType": "address",
          "name": "newCosignerManager",
          "type": "address"
        }
      ],
      "name": "setCosignerManager",
      "outputs": [],
      "stateMutability": "nonpayable",
      "type": "function"
    },
    {
      "inputs": [
        {
          "internalType": "address",
          "name": "newTokenManager",
          "type": "address"
        }
      ],
      "name": "setTokenManager",
      "outputs": [],
      "stateMutability": "nonpayable",
      "type": "function"
    },
    {
      "inputs": [],
      "name": "tokenManager",
      "outputs": [
        {
          "internalType": "contract IBridgeTokenManager",
          "name": "",
          "type": "address"
        }
      ],
      "stateMutability": "view",
      "type": "function"
    },
    {
      "inputs": [
        {
          "internalType": "address",
          "name": "newOwner",
          "type": "address"
        }
      ],
      "name": "transferOwnership",
      "outputs": [],
      "stateMutability": "nonpayable",
      "type": "function"
    },
    {
      "stateMutability": "payable",
      "type": "receive"
    }
  ],
  "transactionHash": "0xe6b5522a587dd76e9ceea1a9ef8b7a2a8316a4611d3392b5f0bdc3c4f40df84f",
  "args": [],
  "solcInputHash": "8dda494b066e0ce03323feed232af508",
  "bytecode": "0x608060405234801561001057600080fd5b50611f2f806100206000396000f3fe6080604052600436106100c65760003560e01c8063ac7cffa61161007f578063ce18acd411610059578063ce18acd414610207578063d5804bd41461021a578063f2fde38b1461023a578063ffa1ad741461025a57600080fd5b8063ac7cffa6146101a7578063ae8f4f3a146101c7578063b0c8bd04146101e757600080fd5b80632a709b14146100d2578063485cc9551461010f5780635c975abb14610131578063715018a6146101545780637cb2b79c146101695780638da5cb5b1461018957600080fd5b366100cd57005b600080fd5b3480156100de57600080fd5b5060cc546100f2906001600160a01b031681565b6040516001600160a01b0390911681526020015b60405180910390f35b34801561011b57600080fd5b5061012f61012a366004611af4565b610281565b005b34801561013d57600080fd5b5060975460ff166040519015158152602001610106565b34801561016057600080fd5b5061012f61034c565b34801561017557600080fd5b5061012f6101843660046119ce565b610382565b34801561019557600080fd5b506033546001600160a01b03166100f2565b3480156101b357600080fd5b5060cb546100f2906001600160a01b031681565b3480156101d357600080fd5b5061012f6101e2366004611a38565b6103f4565b3480156101f357600080fd5b5061012f6102023660046119ce565b61093c565b61012f610215366004611bb4565b6109ae565b34801561022657600080fd5b5061012f6102353660046119ea565b610ae3565b34801561024657600080fd5b5061012f6102553660046119ce565b610c22565b34801561026657600080fd5b5061026f600081565b60405160ff9091168152602001610106565b600054610100900460ff168061029a575060005460ff16155b6102bf5760405162461bcd60e51b81526004016102b690611d28565b60405180910390fd5b600054610100900460ff161580156102e1576000805461ffff19166101011790555b60cb80546001600160a01b038086166001600160a01b03199283161790925560cc8054928516929091169190911790554660cd5561031d610cbd565b610325610d28565b61032d610d88565b610335610dfd565b8015610347576000805461ff00191690555b505050565b6033546001600160a01b031633146103765760405162461bcd60e51b81526004016102b690611da0565b6103806000610e6d565b565b6033546001600160a01b031633146103ac5760405162461bcd60e51b81526004016102b690611da0565b6001600160a01b0381166103d25760405162461bcd60e51b81526004016102b690611d76565b60cc80546001600160a01b0319166001600160a01b0392909216919091179055565b600260655414156104175760405162461bcd60e51b81526004016102b690611dfe565b600260655560975460ff161561043f5760405162461bcd60e51b81526004016102b690611cfe565b600061048861048386868080601f016020809104026020016040519081016040528093929190818152602001838380828437600092019190915250610ebf92505050565b610eec565b905060006104bd826001815181106104b057634e487b7160e01b600052603260045260246000fd5b6020026020010151610eec565b90507f553685c68db2f1e0adf08d56c06ec87ff411232298a59276dbdb1b032c38151e6105118260008151811061050457634e487b7160e01b600052603260045260246000fd5b602002602001015161101e565b146105505760405162461bcd60e51b815260206004820152600f60248201526e10948e881253959053125117d15595608a1b60448201526064016102b6565b60006105838260018151811061057657634e487b7160e01b600052603260045260246000fd5b602002602001015161106c565b905060006105ab8360028151811061057657634e487b7160e01b600052603260045260246000fd5b90506001600160a01b03811633146105f55760405162461bcd60e51b815260206004820152600d60248201526c21291d102727aa2fa7a72ba2a960991b60448201526064016102b6565b600061061b8560028151811061050457634e487b7160e01b600052603260045260246000fd5b90508061063a5760405162461bcd60e51b81526004016102b690611dd5565b60006106608660058151811061050457634e487b7160e01b600052603260045260246000fd5b905060cd5481146106ac5760405162461bcd60e51b815260206004820152601660248201527521291d102ba927a723afaa20a923a2aa2fa1a420a4a760511b60448201526064016102b6565b60006106d28760048151811061050457634e487b7160e01b600052603260045260246000fd5b905060cd5481141561071f5760405162461bcd60e51b815260206004820152601660248201527521291d102ba927a723afa9a7aaa921a2afa1a420a4a760511b60448201526064016102b6565b60008b8b604051610731929190611bf5565b6040805191829003909120600081815260ca602052919091205490915060ff16156107955760405162461bcd60e51b815260206004820152601460248201527321291d1021a7a6a6a4aa26a2a72a2fa5a727aba760611b60448201526064016102b6565b600081815260ca602052604090819020805460ff1916600117905560cb5490516307cdd1ed60e31b81526001600160a01b0390911690633e6e8f68906107e590849086908f908f90600401611c21565b60206040518083038186803b1580156107fd57600080fd5b505afa158015610811573d6000803e3d6000fd5b505050506040513d601f19601f820116820180604052508101906108359190611a1e565b61087a5760405162461bcd60e51b815260206004820152601660248201527542523a20494e56414c49445f5349474e41545552455360501b60448201526064016102b6565b60cc5460cd5460405163707af71960e11b81526001600160a01b03898116600483015260248201929092526000926109159230928a928a92169063e0f5ee329060440160806040518083038186803b1580156108d557600080fd5b505afa1580156108e9573d6000803e3d6000fd5b505050506040513d601f19601f8201168201806040525081019061090d9190611b2c565b92919061108c565b9050610928816000015187848887611209565b505060016065555050505050505050505050565b6033546001600160a01b031633146109665760405162461bcd60e51b81526004016102b690611da0565b6001600160a01b03811661098c5760405162461bcd60e51b81526004016102b690611d76565b60cb80546001600160a01b0319166001600160a01b0392909216919091179055565b600260655414156109d15760405162461bcd60e51b81526004016102b690611dfe565b600260655560975460ff16156109f95760405162461bcd60e51b81526004016102b690611cfe565b34610a165760405162461bcd60e51b81526004016102b690611dd5565b60cc54604051637a38f9eb60e01b8152600481018390526001600160a01b0390911690637a38f9eb9060240160206040518083038186803b158015610a5a57600080fd5b505afa158015610a6e573d6000803e3d6000fd5b505050506040513d601f19601f82011682018060405250810190610a929190611a1e565b610ace5760405162461bcd60e51b815260206004820152600d60248201526c10948e881393d517d193d55391609a1b60448201526064016102b6565b610adb6000333484611279565b506001606555565b60026065541415610b065760405162461bcd60e51b81526004016102b690611dfe565b600260655560975460ff1615610b2e5760405162461bcd60e51b81526004016102b690611cfe565b6001600160a01b038316610b545760405162461bcd60e51b81526004016102b690611d76565b81610b715760405162461bcd60e51b81526004016102b690611dd5565b6000610c063360cc5460405163707af71960e11b81526001600160a01b038881166004830152602482018790523092889291169063e0f5ee329060440160806040518083038186803b158015610bc657600080fd5b505afa158015610bda573d6000803e3d6000fd5b505050506040513d601f19601f82011682018060405250810190610bfe9190611b2c565b929190611311565b8051909150610c1790338585611279565b505060016065555050565b6033546001600160a01b03163314610c4c5760405162461bcd60e51b81526004016102b690611da0565b6001600160a01b038116610cb15760405162461bcd60e51b815260206004820152602660248201527f4f776e61626c653a206e6577206f776e657220697320746865207a65726f206160448201526564647265737360d01b60648201526084016102b6565b610cba81610e6d565b50565b600054610100900460ff1680610cd6575060005460ff16155b610cf25760405162461bcd60e51b81526004016102b690611d28565b600054610100900460ff16158015610d14576000805461ffff19166101011790555b8015610cba576000805461ff001916905550565b600054610100900460ff1680610d41575060005460ff16155b610d5d5760405162461bcd60e51b81526004016102b690611d28565b600054610100900460ff16158015610d7f576000805461ffff19166101011790555b610d1433610e6d565b600054610100900460ff1680610da1575060005460ff16155b610dbd5760405162461bcd60e51b81526004016102b690611d28565b600054610100900460ff16158015610ddf576000805461ffff19166101011790555b6097805460ff191690558015610cba576000805461ff001916905550565b600054610100900460ff1680610e16575060005460ff16155b610e325760405162461bcd60e51b81526004016102b690611d28565b600054610100900460ff16158015610e54576000805461ffff19166101011790555b60016065558015610cba576000805461ff001916905550565b603380546001600160a01b038381166001600160a01b0319831681179093556040519116919082907f8be0079c531659141344cd1fd0a4f28419497f9722a3daafe3b4186f6b6457e090600090a35050565b60408051808201825260008082526020918201528151808301909252825182529182019181019190915290565b6060610ef78261141e565b610f0057600080fd5b6000610f0b83611457565b905060008167ffffffffffffffff811115610f3657634e487b7160e01b600052604160045260246000fd5b604051908082528060200260200182016040528015610f7b57816020015b6040805180820190915260008082526020820152815260200190600190039081610f545790505b5090506000610f8d85602001516114da565b8560200151610f9c9190611e35565b90506000805b8481101561101357610fb38361155c565b9150604051806040016040528083815260200184815250848281518110610fea57634e487b7160e01b600052603260045260246000fd5b6020908102919091010152610fff8284611e35565b92508061100b81611eb3565b915050610fa2565b509195945050505050565b80516000901580159061103357508151602110155b61103c57600080fd5b60008061104884611605565b8151919350915060208210156110645760208290036101000a90045b949350505050565b805160009060151461107d57600080fd5b6110868261101e565b92915050565b60408051608081018252600080825260208201819052918101829052606081019190915284606001516110f25760405162461bcd60e51b815260206004820152600e60248201526d14950e881393d517d31254d5115160921b60448201526064016102b6565b84516001600160a01b03166111115761110c84848461164c565b611200565b60018560400151600181111561113757634e487b7160e01b600052602160045260246000fd5b14156111a85784516040516340c10f1960e01b81526001600160a01b03858116600483015260248201859052909116906340c10f19906044015b600060405180830381600087803b15801561118b57600080fd5b505af115801561119f573d6000803e3d6000fd5b50505050611200565b6000856040015160018111156111ce57634e487b7160e01b600052602160045260246000fd5b14156111ea57845161110c906001600160a01b03168484611741565b634e487b7160e01b600052600160045260246000fd5b50929392505050565b836001600160a01b0316856001600160a01b03167f812815d6ddc266545cbe93cd74cdaec6517a81842a230a1773c976e78389ad2e848660cd548660405161126a949392919093845260208401929092526040830152606082015260800190565b60405180910390a35050505050565b6001600160a01b03838116600081815260c960209081526040918290205460cd548351888152928301919091528183015260608101859052905191928716917f553685c68db2f1e0adf08d56c06ec87ff411232298a59276dbdb1b032c38151e9181900360800190a36001600160a01b038316600090815260c96020526040812080549161130683611eb3565b919050555050505050565b60408051608081018252600080825260208201819052918101829052606081019190915284606001516113775760405162461bcd60e51b815260206004820152600e60248201526d14950e881393d517d31254d5115160921b60448201526064016102b6565b60018560400151600181111561139d57634e487b7160e01b600052602160045260246000fd5b14156113db578451604051632770a7eb60e21b81526001600160a01b0386811660048301526024820185905290911690639dc29fac90604401611171565b60008560400151600181111561140157634e487b7160e01b600052602160045260246000fd5b14156111ea57845161110c906001600160a01b03168585856117a4565b805160009061142f57506000919050565b6020820151805160001a9060c082101561144d575060009392505050565b5060019392505050565b805160009061146857506000919050565b60008061147884602001516114da565b84602001516114879190611e35565b905060008460000151856020015161149f9190611e35565b90505b808210156114d1576114b38261155c565b6114bd9083611e35565b9150826114c981611eb3565b9350506114a2565b50909392505050565b8051600090811a60808110156114f35750600092915050565b60b881108061150e575060c0811080159061150e575060f881105b1561151c5750600192915050565b60c081101561155057611531600160b8611e64565b61153e9060ff1682611e4d565b611549906001611e35565b9392505050565b611531600160f8611e64565b80516000908190811a608081101561157757600191506115fe565b60b881101561159d5761158b608082611e4d565b611596906001611e35565b91506115fe565b60c08110156115ca5760b78103600185019450806020036101000a855104600182018101935050506115fe565b60f88110156115de5761158b60c082611e4d565b60f78103600185019450806020036101000a855104600182018101935050505b5092915050565b600080600061161784602001516114da565b9050600081856020015161162b9190611e35565b9050600082866000015161163f9190611e4d565b9196919550909350505050565b80836001600160a01b03163110156116a65760405162461bcd60e51b815260206004820152601860248201527f52543a20494e53554646494349454e545f42414c414e4345000000000000000060448201526064016102b6565b6000826001600160a01b03168260405160006040518083038185875af1925050503d80600081146116f3576040519150601f19603f3d011682016040523d82523d6000602084013e6116f8565b606091505b505090508061173b5760405162461bcd60e51b815260206004820152600f60248201526e14950e8814d1539117d49155915495608a1b60448201526064016102b6565b50505050565b6040516001600160a01b03831660248201526044810182905261034790849063a9059cbb60e01b906064015b60408051601f198184030181529190526020810180516001600160e01b03166001600160e01b0319909316929092179091526117dc565b6040516001600160a01b038085166024830152831660448201526064810182905261173b9085906323b872dd60e01b9060840161176d565b6000611831826040518060400160405280602081526020017f5361666545524332303a206c6f772d6c6576656c2063616c6c206661696c6564815250856001600160a01b03166118ae9092919063ffffffff16565b805190915015610347578080602001905181019061184f9190611a1e565b6103475760405162461bcd60e51b815260206004820152602a60248201527f5361666545524332303a204552433230206f7065726174696f6e20646964206e6044820152691bdd081cdd58d8d9595960b21b60648201526084016102b6565b6060611064848460008585843b6119075760405162461bcd60e51b815260206004820152601d60248201527f416464726573733a2063616c6c20746f206e6f6e2d636f6e747261637400000060448201526064016102b6565b600080866001600160a01b031685876040516119239190611c05565b60006040518083038185875af1925050503d8060008114611960576040519150601f19603f3d011682016040523d82523d6000602084013e611965565b606091505b5091509150611975828286611980565b979650505050505050565b6060831561198f575081611549565b82511561199f5782518084602001fd5b8160405162461bcd60e51b81526004016102b69190611ccb565b805180151581146119c957600080fd5b919050565b6000602082840312156119df578081fd5b813561154981611ee4565b6000806000606084860312156119fe578182fd5b8335611a0981611ee4565b95602085013595506040909401359392505050565b600060208284031215611a2f578081fd5b611549826119b9565b60008060008060408587031215611a4d578081fd5b843567ffffffffffffffff80821115611a64578283fd5b818701915087601f830112611a77578283fd5b813581811115611a85578384fd5b886020828501011115611a96578384fd5b602092830196509450908601359080821115611ab0578283fd5b818701915087601f830112611ac3578283fd5b813581811115611ad1578384fd5b8860208260051b8501011115611ae5578384fd5b95989497505060200194505050565b60008060408385031215611b06578182fd5b8235611b1181611ee4565b91506020830135611b2181611ee4565b809150509250929050565b600060808284031215611b3d578081fd5b6040516080810181811067ffffffffffffffff82111715611b6c57634e487b7160e01b83526041600452602483fd5b6040528251611b7a81611ee4565b815260208381015190820152604083015160028110611b97578283fd5b6040820152611ba8606084016119b9565b60608201529392505050565b600060208284031215611bc5578081fd5b5035919050565b81835281816020850137506000828201602090810191909152601f909101601f19169091010190565b8183823760009101908152919050565b60008251611c17818460208701611e87565b9190910192915050565b60006060820186835260208681850152606060408501528185835260808501905060808660051b860101925086845b87811015611cbc57868503607f190183528135368a9003601e19018112611c75578687fd5b8901803567ffffffffffffffff811115611c8d578788fd5b8036038b1315611c9b578788fd5b611ca88782888501611bcc565b965050509183019190830190600101611c50565b50929998505050505050505050565b6020815260008251806020840152611cea816040850160208701611e87565b601f01601f19169190910160400192915050565b60208082526010908201526f14185d5cd8589b194e881c185d5cd95960821b604082015260600190565b6020808252602e908201527f496e697469616c697a61626c653a20636f6e747261637420697320616c72656160408201526d191e481a5b9a5d1a585b1a5e995960921b606082015260800190565b60208082526010908201526f42523a205a45524f5f4144445245535360801b604082015260600190565b6020808252818101527f4f776e61626c653a2063616c6c6572206973206e6f7420746865206f776e6572604082015260600190565b6020808252600f908201526e10948e8816915493d7d05353d55395608a1b604082015260600190565b6020808252601f908201527f5265656e7472616e637947756172643a207265656e7472616e742063616c6c00604082015260600190565b60008219821115611e4857611e48611ece565b500190565b600082821015611e5f57611e5f611ece565b500390565b600060ff821660ff841680821015611e7e57611e7e611ece565b90039392505050565b60005b83811015611ea2578181015183820152602001611e8a565b8381111561173b5750506000910152565b6000600019821415611ec757611ec7611ece565b5060010190565b634e487b7160e01b600052601160045260246000fd5b6001600160a01b0381168114610cba57600080fdfea2646970667358221220c8cad0ae4595676d9661867f0bc301ee652537e7076290993666cf0e9b47820564736f6c63430008040033",
  "devdoc": {
    "kind": "dev",
    "methods": {
      "owner()": {
        "details": "Returns the address of the current owner."
      },
      "paused()": {
        "details": "Returns true if the contract is paused, and false otherwise."
      },
      "renounceOwnership()": {
        "details": "Leaves the contract without owner. It will not be possible to call `onlyOwner` functions anymore. Can only be called by the current owner. NOTE: Renouncing ownership will leave the contract without an owner, thereby removing any functionality that is only available to the owner."
      },
      "setCosignerManager(address)": {
        "details": "This should be the contract responsible for sign by behalf of the payloads",
        "params": {
          "newCosignerManager": "address of cosigner manager contract"
        }
      },
      "setTokenManager(address)": {
        "details": "This should be the contract responsible for checking and add tokens to crosschain mapping",
        "params": {
          "newTokenManager": "address of token manager contract"
        }
      },
      "transferOwnership(address)": {
        "details": "Transfers ownership of the contract to a new account (`newOwner`). Can only be called by the current owner."
      }
    },
    "version": 1
  },
  "userdoc": {
    "kind": "user",
    "methods": {
      "setCosignerManager(address)": {
        "notice": "Set the cosigner manager, callable only by cosigners"
      },
      "setTokenManager(address)": {
        "notice": "Set the token manager, callable only by cosigners"
      }
    },
    "version": 1
  },
  "storageLayout": {
    "storage": [
      {
        "astId": 130,
        "contract": "contracts/BridgeRouter.sol:BridgeRouter",
        "label": "_initialized",
        "offset": 0,
        "slot": "0",
        "type": "t_bool"
      },
      {
        "astId": 133,
        "contract": "contracts/BridgeRouter.sol:BridgeRouter",
        "label": "_initializing",
        "offset": 1,
        "slot": "0",
        "type": "t_bool"
      },
      {
        "astId": 1060,
        "contract": "contracts/BridgeRouter.sol:BridgeRouter",
        "label": "__gap",
        "offset": 0,
        "slot": "1",
        "type": "t_array(t_uint256)50_storage"
      },
      {
        "astId": 10,
        "contract": "contracts/BridgeRouter.sol:BridgeRouter",
        "label": "_owner",
        "offset": 0,
        "slot": "51",
        "type": "t_address"
      },
      {
        "astId": 123,
        "contract": "contracts/BridgeRouter.sol:BridgeRouter",
        "label": "__gap",
        "offset": 0,
        "slot": "52",
        "type": "t_array(t_uint256)49_storage"
      },
      {
        "astId": 297,
        "contract": "contracts/BridgeRouter.sol:BridgeRouter",
        "label": "_status",
        "offset": 0,
        "slot": "101",
        "type": "t_uint256"
      },
      {
        "astId": 340,
        "contract": "contracts/BridgeRouter.sol:BridgeRouter",
        "label": "__gap",
        "offset": 0,
        "slot": "102",
        "type": "t_array(t_uint256)49_storage"
      },
      {
        "astId": 191,
        "contract": "contracts/BridgeRouter.sol:BridgeRouter",
        "label": "_paused",
        "offset": 0,
        "slot": "151",
        "type": "t_bool"
      },
      {
        "astId": 282,
        "contract": "contracts/BridgeRouter.sol:BridgeRouter",
        "label": "__gap",
        "offset": 0,
        "slot": "152",
        "type": "t_array(t_uint256)49_storage"
      },
      {
        "astId": 2538,
        "contract": "contracts/BridgeRouter.sol:BridgeRouter",
        "label": "_nonces",
        "offset": 0,
        "slot": "201",
        "type": "t_mapping(t_address,t_uint256)"
      },
      {
        "astId": 2542,
        "contract": "contracts/BridgeRouter.sol:BridgeRouter",
        "label": "_commitments",
        "offset": 0,
        "slot": "202",
        "type": "t_mapping(t_bytes32,t_bool)"
      },
      {
        "astId": 2545,
        "contract": "contracts/BridgeRouter.sol:BridgeRouter",
        "label": "cosignerManager",
        "offset": 0,
        "slot": "203",
        "type": "t_contract(IBridgeCosignerManager)3079"
      },
      {
        "astId": 2548,
        "contract": "contracts/BridgeRouter.sol:BridgeRouter",
        "label": "tokenManager",
        "offset": 0,
        "slot": "204",
        "type": "t_contract(IBridgeTokenManager)3151"
      },
      {
        "astId": 2550,
        "contract": "contracts/BridgeRouter.sol:BridgeRouter",
        "label": "_chainId",
        "offset": 0,
        "slot": "205",
        "type": "t_uint256"
      },
      {
        "astId": 2559,
        "contract": "contracts/BridgeRouter.sol:BridgeRouter",
        "label": "__gap",
        "offset": 0,
        "slot": "206",
        "type": "t_array(t_uint256)49_storage"
      }
    ],
    "types": {
      "t_address": {
        "encoding": "inplace",
        "label": "address",
        "numberOfBytes": "20"
      },
      "t_array(t_uint256)49_storage": {
        "base": "t_uint256",
        "encoding": "inplace",
        "label": "uint256[49]",
        "numberOfBytes": "1568"
      },
      "t_array(t_uint256)50_storage": {
        "base": "t_uint256",
        "encoding": "inplace",
        "label": "uint256[50]",
        "numberOfBytes": "1600"
      },
      "t_bool": {
        "encoding": "inplace",
        "label": "bool",
        "numberOfBytes": "1"
      },
      "t_bytes32": {
        "encoding": "inplace",
        "label": "bytes32",
        "numberOfBytes": "32"
      },
      "t_contract(IBridgeCosignerManager)3079": {
        "encoding": "inplace",
        "label": "contract IBridgeCosignerManager",
        "numberOfBytes": "20"
      },
      "t_contract(IBridgeTokenManager)3151": {
        "encoding": "inplace",
        "label": "contract IBridgeTokenManager",
        "numberOfBytes": "20"
      },
      "t_mapping(t_address,t_uint256)": {
        "encoding": "mapping",
        "key": "t_address",
        "label": "mapping(address => uint256)",
        "numberOfBytes": "32",
        "value": "t_uint256"
      },
      "t_mapping(t_bytes32,t_bool)": {
        "encoding": "mapping",
        "key": "t_bytes32",
        "label": "mapping(bytes32 => bool)",
        "numberOfBytes": "32",
        "value": "t_bool"
      },
      "t_uint256": {
        "encoding": "inplace",
        "label": "uint256",
        "numberOfBytes": "32"
      }
    }
  }
}