{
  "address": "0x624cC7D092545c58C3DD25FDa92Ba157f6DD0098",
  "abi": [
    {
      "anonymous": false,
      "inputs": [
        {
          "indexed": true,
          "internalType": "address",
          "name": "token",
          "type": "address"
        },
        {
          "indexed": true,
          "internalType": "address",
          "name": "exitor",
          "type": "address"
        },
        {
          "indexed": false,
          "internalType": "uint256",
          "name": "amount",
          "type": "uint256"
        },
        {
          "indexed": false,
          "internalType": "uint256",
          "name": "nonce",
          "type": "uint256"
        },
        {
          "indexed": false,
          "internalType": "uint256",
          "name": "localChainId",
          "type": "uint256"
        },
        {
          "indexed": false,
          "internalType": "uint256",
          "name": "targetChainId",
          "type": "uint256"
        }
      ],
      "name": "Enter",
      "type": "event"
    },
    {
      "anonymous": false,
      "inputs": [
        {
          "indexed": true,
          "internalType": "address",
          "name": "token",
          "type": "address"
        },
        {
          "indexed": true,
          "internalType": "address",
          "name": "exitor",
          "type": "address"
        },
        {
          "indexed": false,
          "internalType": "uint256",
          "name": "amount",
          "type": "uint256"
        },
        {
          "indexed": false,
          "internalType": "bytes32",
          "name": "commitment",
          "type": "bytes32"
        },
        {
          "indexed": false,
          "internalType": "uint256",
          "name": "localChainId",
          "type": "uint256"
        },
        {
          "indexed": false,
          "internalType": "uint256",
          "name": "extChainId",
          "type": "uint256"
        }
      ],
      "name": "Exit",
      "type": "event"
    },
    {
      "anonymous": false,
      "inputs": [
        {
          "indexed": true,
          "internalType": "address",
          "name": "previousOwner",
          "type": "address"
        },
        {
          "indexed": true,
          "internalType": "address",
          "name": "newOwner",
          "type": "address"
        }
      ],
      "name": "OwnershipTransferred",
      "type": "event"
    },
    {
      "anonymous": false,
      "inputs": [
        {
          "indexed": false,
          "internalType": "address",
          "name": "account",
          "type": "address"
        }
      ],
      "name": "Paused",
      "type": "event"
    },
    {
      "anonymous": false,
      "inputs": [
        {
          "indexed": false,
          "internalType": "address",
          "name": "account",
          "type": "address"
        }
      ],
      "name": "Unpaused",
      "type": "event"
    },
    {
      "inputs": [],
      "name": "VERSION",
      "outputs": [
        {
          "internalType": "uint8",
          "name": "",
          "type": "uint8"
        }
      ],
      "stateMutability": "view",
      "type": "function"
    },
    {
      "inputs": [],
      "name": "cosignerManager",
      "outputs": [
        {
          "internalType": "contract IBridgeCosignerManager",
          "name": "",
          "type": "address"
        }
      ],
      "stateMutability": "view",
      "type": "function"
    },
    {
      "inputs": [
        {
          "internalType": "address",
          "name": "token",
          "type": "address"
        },
        {
          "internalType": "uint256",
          "name": "amount",
          "type": "uint256"
        },
        {
          "internalType": "uint256",
          "name": "targetChainId",
          "type": "uint256"
        }
      ],
      "name": "enter",
      "outputs": [],
      "stateMutability": "nonpayable",
      "type": "function"
    },
    {
      "inputs": [
        {
          "internalType": "uint256",
          "name": "targetChainId",
          "type": "uint256"
        }
      ],
      "name": "enterETH",
      "outputs": [],
      "stateMutability": "payable",
      "type": "function"
    },
    {
      "inputs": [
        {
          "internalType": "bytes",
          "name": "data",
          "type": "bytes"
        },
        {
          "internalType": "bytes[]",
          "name": "signatures",
          "type": "bytes[]"
        }
      ],
      "name": "exit",
      "outputs": [],
      "stateMutability": "nonpayable",
      "type": "function"
    },
    {
      "inputs": [
        {
          "internalType": "contract IBridgeCosignerManager",
          "name": "cosignerManager_",
          "type": "address"
        },
        {
          "internalType": "contract IBridgeTokenManager",
          "name": "tokenManager_",
          "type": "address"
        }
      ],
      "name": "initialize",
      "outputs": [],
      "stateMutability": "nonpayable",
      "type": "function"
    },
    {
      "inputs": [],
      "name": "owner",
      "outputs": [
        {
          "internalType": "address",
          "name": "",
          "type": "address"
        }
      ],
      "stateMutability": "view",
      "type": "function"
    },
    {
      "inputs": [],
      "name": "paused",
      "outputs": [
        {
          "internalType": "bool",
          "name": "",
          "type": "bool"
        }
      ],
      "stateMutability": "view",
      "type": "function"
    },
    {
      "inputs": [],
      "name": "renounceOwnership",
      "outputs": [],
      "stateMutability": "nonpayable",
      "type": "function"
    },
    {
      "inputs": [
        {
          "internalType": "address",
          "name": "newCosignerManager",
          "type": "address"
        }
      ],
      "name": "setCosignerManager",
      "outputs": [],
      "stateMutability": "nonpayable",
      "type": "function"
    },
    {
      "inputs": [
        {
          "internalType": "address",
          "name": "newTokenManager",
          "type": "address"
        }
      ],
      "name": "setTokenManager",
      "outputs": [],
      "stateMutability": "nonpayable",
      "type": "function"
    },
    {
      "inputs": [],
      "name": "tokenManager",
      "outputs": [
        {
          "internalType": "contract IBridgeTokenManager",
          "name": "",
          "type": "address"
        }
      ],
      "stateMutability": "view",
      "type": "function"
    },
    {
      "inputs": [
        {
          "internalType": "address",
          "name": "newOwner",
          "type": "address"
        }
      ],
      "name": "transferOwnership",
      "outputs": [],
      "stateMutability": "nonpayable",
      "type": "function"
    },
    {
      "inputs": [
        {
          "internalType": "address",
          "name": "token",
          "type": "address"
        },
        {
          "internalType": "address",
          "name": "newOwner",
          "type": "address"
        }
      ],
      "name": "transferTokenOwnership",
      "outputs": [],
      "stateMutability": "nonpayable",
      "type": "function"
    },
    {
      "inputs": [
        {
          "internalType": "address",
          "name": "token",
          "type": "address"
        },
        {
          "internalType": "string",
          "name": "newName",
          "type": "string"
        },
        {
          "internalType": "string",
          "name": "newSymbol",
          "type": "string"
        },
        {
          "internalType": "uint8",
          "name": "newDecimals",
          "type": "uint8"
        }
      ],
      "name": "updateTokenInfo",
      "outputs": [],
      "stateMutability": "nonpayable",
      "type": "function"
    },
    {
      "stateMutability": "payable",
      "type": "receive"
    }
  ],
  "transactionHash": "0x5035caab011fa7cba7b1f38e745367179376dfdf2107f3d4ac33aeaf23109d9e",
  "args": [],
  "solcInputHash": "0f010f4a7ed19b66013c87622f48eae2",
  "bytecode": "0x608060405234801561001057600080fd5b506121bb806100206000396000f3fe6080604052600436106100ec5760003560e01c80638da5cb5b1161008a578063ce18acd411610059578063ce18acd41461026d578063d5804bd414610280578063f2fde38b146102a0578063ffa1ad74146102c057600080fd5b80638da5cb5b146101ef578063ac7cffa61461020d578063ae8f4f3a1461022d578063b0c8bd041461024d57600080fd5b8063485cc955116100c6578063485cc955146101775780635c975abb14610197578063715018a6146101ba5780637cb2b79c146101cf57600080fd5b8063271f7b99146100f85780632a709b141461011a578063383fe4671461015757600080fd5b366100f357005b600080fd5b34801561010457600080fd5b50610118610113366004611bf0565b6102e7565b005b34801561012657600080fd5b5060cc5461013a906001600160a01b031681565b6040516001600160a01b0390911681526020015b60405180910390f35b34801561016357600080fd5b50610118610172366004611bb8565b610388565b34801561018357600080fd5b50610118610192366004611d69565b610411565b3480156101a357600080fd5b5060975460ff16604051901515815260200161014e565b3480156101c657600080fd5b506101186104d3565b3480156101db57600080fd5b506101186101ea366004611b9c565b610509565b3480156101fb57600080fd5b506033546001600160a01b031661013a565b34801561021957600080fd5b5060cb5461013a906001600160a01b031681565b34801561023957600080fd5b50610118610248366004611cd5565b61057b565b34801561025957600080fd5b50610118610268366004611b9c565b610ac3565b61011861027b366004611e03565b610b35565b34801561028c57600080fd5b5061011861029b366004611c87565b610c6a565b3480156102ac57600080fd5b506101186102bb366004611b9c565b610da9565b3480156102cc57600080fd5b506102d5600081565b60405160ff909116815260200161014e565b6033546001600160a01b0316331461031a5760405162461bcd60e51b81526004016103119061202c565b60405180910390fd5b604051632ef18fbd60e11b81526001600160a01b03871690635de31f7a9061034e9088908890889088908890600401611f1a565b600060405180830381600087803b15801561036857600080fd5b505af115801561037c573d6000803e3d6000fd5b50505050505050505050565b6033546001600160a01b031633146103b25760405162461bcd60e51b81526004016103119061202c565b60405163f2fde38b60e01b81526001600160a01b03828116600483015283169063f2fde38b90602401600060405180830381600087803b1580156103f557600080fd5b505af1158015610409573d6000803e3d6000fd5b505050505050565b600054610100900460ff168061042a575060005460ff16155b6104465760405162461bcd60e51b815260040161031190611fb4565b600054610100900460ff16158015610468576000805461ffff19166101011790555b60cb80546001600160a01b038086166001600160a01b03199283161790925560cc8054928516929091169190911790554660cd556104a4610e44565b6104ac610eaf565b6104b4610f0f565b6104bc610f84565b80156104ce576000805461ff00191690555b505050565b6033546001600160a01b031633146104fd5760405162461bcd60e51b81526004016103119061202c565b6105076000610ff4565b565b6033546001600160a01b031633146105335760405162461bcd60e51b81526004016103119061202c565b6001600160a01b0381166105595760405162461bcd60e51b815260040161031190612002565b60cc80546001600160a01b0319166001600160a01b0392909216919091179055565b6002606554141561059e5760405162461bcd60e51b81526004016103119061208a565b600260655560975460ff16156105c65760405162461bcd60e51b815260040161031190611f8a565b600061060f61060a86868080601f01602080910402602001604051908101604052809392919081815260200183838082843760009201919091525061104692505050565b611073565b905060006106448260018151811061063757634e487b7160e01b600052603260045260246000fd5b6020026020010151611073565b90507f553685c68db2f1e0adf08d56c06ec87ff411232298a59276dbdb1b032c38151e6106988260008151811061068b57634e487b7160e01b600052603260045260246000fd5b60200260200101516111a5565b146106d75760405162461bcd60e51b815260206004820152600f60248201526e10948e881253959053125117d15595608a1b6044820152606401610311565b600061070a826001815181106106fd57634e487b7160e01b600052603260045260246000fd5b60200260200101516111f3565b90506000610732836002815181106106fd57634e487b7160e01b600052603260045260246000fd5b90506001600160a01b038116331461077c5760405162461bcd60e51b815260206004820152600d60248201526c21291d102727aa2fa7a72ba2a960991b6044820152606401610311565b60006107a28560028151811061068b57634e487b7160e01b600052603260045260246000fd5b9050806107c15760405162461bcd60e51b815260040161031190612061565b60006107e78660058151811061068b57634e487b7160e01b600052603260045260246000fd5b905060cd5481146108335760405162461bcd60e51b815260206004820152601660248201527521291d102ba927a723afaa20a923a2aa2fa1a420a4a760511b6044820152606401610311565b60006108598760048151811061068b57634e487b7160e01b600052603260045260246000fd5b905060cd548114156108a65760405162461bcd60e51b815260206004820152601660248201527521291d102ba927a723afa9a7aaa921a2afa1a420a4a760511b6044820152606401610311565b60008b8b6040516108b8929190611e44565b6040805191829003909120600081815260ca602052919091205490915060ff161561091c5760405162461bcd60e51b815260206004820152601460248201527321291d1021a7a6a6a4aa26a2a72a2fa5a727aba760611b6044820152606401610311565b600081815260ca602052604090819020805460ff1916600117905560cb5490516307cdd1ed60e31b81526001600160a01b0390911690633e6e8f689061096c90849086908f908f90600401611e70565b60206040518083038186803b15801561098457600080fd5b505afa158015610998573d6000803e3d6000fd5b505050506040513d601f19601f820116820180604052508101906109bc9190611cbb565b610a015760405162461bcd60e51b815260206004820152601660248201527542523a20494e56414c49445f5349474e41545552455360501b6044820152606401610311565b60cc5460cd5460405163707af71960e11b81526001600160a01b0389811660048301526024820192909252600092610a9c9230928a928a92169063e0f5ee329060440160806040518083038186803b158015610a5c57600080fd5b505afa158015610a70573d6000803e3d6000fd5b505050506040513d601f19601f82011682018060405250810190610a949190611d7b565b929190611213565b9050610aaf816000015187848887611390565b505060016065555050505050505050505050565b6033546001600160a01b03163314610aed5760405162461bcd60e51b81526004016103119061202c565b6001600160a01b038116610b135760405162461bcd60e51b815260040161031190612002565b60cb80546001600160a01b0319166001600160a01b0392909216919091179055565b60026065541415610b585760405162461bcd60e51b81526004016103119061208a565b600260655560975460ff1615610b805760405162461bcd60e51b815260040161031190611f8a565b34610b9d5760405162461bcd60e51b815260040161031190612061565b60cc54604051637a38f9eb60e01b8152600481018390526001600160a01b0390911690637a38f9eb9060240160206040518083038186803b158015610be157600080fd5b505afa158015610bf5573d6000803e3d6000fd5b505050506040513d601f19601f82011682018060405250810190610c199190611cbb565b610c555760405162461bcd60e51b815260206004820152600d60248201526c10948e881393d517d193d55391609a1b6044820152606401610311565b610c626000333484611400565b506001606555565b60026065541415610c8d5760405162461bcd60e51b81526004016103119061208a565b600260655560975460ff1615610cb55760405162461bcd60e51b815260040161031190611f8a565b6001600160a01b038316610cdb5760405162461bcd60e51b815260040161031190612002565b81610cf85760405162461bcd60e51b815260040161031190612061565b6000610d8d3360cc5460405163707af71960e11b81526001600160a01b038881166004830152602482018790523092889291169063e0f5ee329060440160806040518083038186803b158015610d4d57600080fd5b505afa158015610d61573d6000803e3d6000fd5b505050506040513d601f19601f82011682018060405250810190610d859190611d7b565b929190611498565b8051909150610d9e90338585611400565b505060016065555050565b6033546001600160a01b03163314610dd35760405162461bcd60e51b81526004016103119061202c565b6001600160a01b038116610e385760405162461bcd60e51b815260206004820152602660248201527f4f776e61626c653a206e6577206f776e657220697320746865207a65726f206160448201526564647265737360d01b6064820152608401610311565b610e4181610ff4565b50565b600054610100900460ff1680610e5d575060005460ff16155b610e795760405162461bcd60e51b815260040161031190611fb4565b600054610100900460ff16158015610e9b576000805461ffff19166101011790555b8015610e41576000805461ff001916905550565b600054610100900460ff1680610ec8575060005460ff16155b610ee45760405162461bcd60e51b815260040161031190611fb4565b600054610100900460ff16158015610f06576000805461ffff19166101011790555b610e9b33610ff4565b600054610100900460ff1680610f28575060005460ff16155b610f445760405162461bcd60e51b815260040161031190611fb4565b600054610100900460ff16158015610f66576000805461ffff19166101011790555b6097805460ff191690558015610e41576000805461ff001916905550565b600054610100900460ff1680610f9d575060005460ff16155b610fb95760405162461bcd60e51b815260040161031190611fb4565b600054610100900460ff16158015610fdb576000805461ffff19166101011790555b60016065558015610e41576000805461ff001916905550565b603380546001600160a01b038381166001600160a01b0319831681179093556040519116919082907f8be0079c531659141344cd1fd0a4f28419497f9722a3daafe3b4186f6b6457e090600090a35050565b60408051808201825260008082526020918201528151808301909252825182529182019181019190915290565b606061107e826115a5565b61108757600080fd5b6000611092836115de565b905060008167ffffffffffffffff8111156110bd57634e487b7160e01b600052604160045260246000fd5b60405190808252806020026020018201604052801561110257816020015b60408051808201909152600080825260208201528152602001906001900390816110db5790505b50905060006111148560200151611661565b856020015161112391906120c1565b90506000805b8481101561119a5761113a836116e3565b915060405180604001604052808381526020018481525084828151811061117157634e487b7160e01b600052603260045260246000fd5b602090810291909101015261118682846120c1565b9250806111928161213f565b915050611129565b509195945050505050565b8051600090158015906111ba57508151602110155b6111c357600080fd5b6000806111cf8461178c565b8151919350915060208210156111eb5760208290036101000a90045b949350505050565b805160009060151461120457600080fd5b61120d826111a5565b92915050565b60408051608081018252600080825260208201819052918101829052606081019190915284606001516112795760405162461bcd60e51b815260206004820152600e60248201526d14950e881393d517d31254d5115160921b6044820152606401610311565b84516001600160a01b0316611298576112938484846117d3565b611387565b6001856040015160018111156112be57634e487b7160e01b600052602160045260246000fd5b141561132f5784516040516340c10f1960e01b81526001600160a01b03858116600483015260248201859052909116906340c10f19906044015b600060405180830381600087803b15801561131257600080fd5b505af1158015611326573d6000803e3d6000fd5b50505050611387565b60008560400151600181111561135557634e487b7160e01b600052602160045260246000fd5b1415611371578451611293906001600160a01b031684846118c8565b634e487b7160e01b600052600160045260246000fd5b50929392505050565b836001600160a01b0316856001600160a01b03167f812815d6ddc266545cbe93cd74cdaec6517a81842a230a1773c976e78389ad2e848660cd54866040516113f1949392919093845260208401929092526040830152606082015260800190565b60405180910390a35050505050565b6001600160a01b03838116600081815260c960209081526040918290205460cd548351888152928301919091528183015260608101859052905191928716917f553685c68db2f1e0adf08d56c06ec87ff411232298a59276dbdb1b032c38151e9181900360800190a36001600160a01b038316600090815260c96020526040812080549161148d8361213f565b919050555050505050565b60408051608081018252600080825260208201819052918101829052606081019190915284606001516114fe5760405162461bcd60e51b815260206004820152600e60248201526d14950e881393d517d31254d5115160921b6044820152606401610311565b60018560400151600181111561152457634e487b7160e01b600052602160045260246000fd5b1415611562578451604051632770a7eb60e21b81526001600160a01b0386811660048301526024820185905290911690639dc29fac906044016112f8565b60008560400151600181111561158857634e487b7160e01b600052602160045260246000fd5b1415611371578451611293906001600160a01b031685858561192b565b80516000906115b657506000919050565b6020820151805160001a9060c08210156115d4575060009392505050565b5060019392505050565b80516000906115ef57506000919050565b6000806115ff8460200151611661565b846020015161160e91906120c1565b905060008460000151856020015161162691906120c1565b90505b808210156116585761163a826116e3565b61164490836120c1565b9150826116508161213f565b935050611629565b50909392505050565b8051600090811a608081101561167a5750600092915050565b60b8811080611695575060c08110801590611695575060f881105b156116a35750600192915050565b60c08110156116d7576116b8600160b86120f0565b6116c59060ff16826120d9565b6116d09060016120c1565b9392505050565b6116b8600160f86120f0565b80516000908190811a60808110156116fe5760019150611785565b60b8811015611724576117126080826120d9565b61171d9060016120c1565b9150611785565b60c08110156117515760b78103600185019450806020036101000a85510460018201810193505050611785565b60f88110156117655761171260c0826120d9565b60f78103600185019450806020036101000a855104600182018101935050505b5092915050565b600080600061179e8460200151611661565b905060008185602001516117b291906120c1565b905060008286600001516117c691906120d9565b9196919550909350505050565b80836001600160a01b031631101561182d5760405162461bcd60e51b815260206004820152601860248201527f52543a20494e53554646494349454e545f42414c414e434500000000000000006044820152606401610311565b6000826001600160a01b03168260405160006040518083038185875af1925050503d806000811461187a576040519150601f19603f3d011682016040523d82523d6000602084013e61187f565b606091505b50509050806118c25760405162461bcd60e51b815260206004820152600f60248201526e14950e8814d1539117d49155915495608a1b6044820152606401610311565b50505050565b6040516001600160a01b0383166024820152604481018290526104ce90849063a9059cbb60e01b906064015b60408051601f198184030181529190526020810180516001600160e01b03166001600160e01b031990931692909217909152611963565b6040516001600160a01b03808516602483015283166044820152606481018290526118c29085906323b872dd60e01b906084016118f4565b60006119b8826040518060400160405280602081526020017f5361666545524332303a206c6f772d6c6576656c2063616c6c206661696c6564815250856001600160a01b0316611a359092919063ffffffff16565b8051909150156104ce57808060200190518101906119d69190611cbb565b6104ce5760405162461bcd60e51b815260206004820152602a60248201527f5361666545524332303a204552433230206f7065726174696f6e20646964206e6044820152691bdd081cdd58d8d9595960b21b6064820152608401610311565b60606111eb848460008585843b611a8e5760405162461bcd60e51b815260206004820152601d60248201527f416464726573733a2063616c6c20746f206e6f6e2d636f6e74726163740000006044820152606401610311565b600080866001600160a01b03168587604051611aaa9190611e54565b60006040518083038185875af1925050503d8060008114611ae7576040519150601f19603f3d011682016040523d82523d6000602084013e611aec565b606091505b5091509150611afc828286611b07565b979650505050505050565b60608315611b165750816116d0565b825115611b265782518084602001fd5b8160405162461bcd60e51b81526004016103119190611f57565b80518015158114611b5057600080fd5b919050565b60008083601f840112611b66578182fd5b50813567ffffffffffffffff811115611b7d578182fd5b602083019150836020828501011115611b9557600080fd5b9250929050565b600060208284031215611bad578081fd5b81356116d081612170565b60008060408385031215611bca578081fd5b8235611bd581612170565b91506020830135611be581612170565b809150509250929050565b60008060008060008060808789031215611c08578182fd5b8635611c1381612170565b9550602087013567ffffffffffffffff80821115611c2f578384fd5b611c3b8a838b01611b55565b90975095506040890135915080821115611c53578384fd5b50611c6089828a01611b55565b909450925050606087013560ff81168114611c79578182fd5b809150509295509295509295565b600080600060608486031215611c9b578283fd5b8335611ca681612170565b95602085013595506040909401359392505050565b600060208284031215611ccc578081fd5b6116d082611b40565b60008060008060408587031215611cea578384fd5b843567ffffffffffffffff80821115611d01578586fd5b611d0d88838901611b55565b90965094506020870135915080821115611d25578384fd5b818701915087601f830112611d38578384fd5b813581811115611d46578485fd5b8860208260051b8501011115611d5a578485fd5b95989497505060200194505050565b60008060408385031215611bca578182fd5b600060808284031215611d8c578081fd5b6040516080810181811067ffffffffffffffff82111715611dbb57634e487b7160e01b83526041600452602483fd5b6040528251611dc981612170565b815260208381015190820152604083015160028110611de6578283fd5b6040820152611df760608401611b40565b60608201529392505050565b600060208284031215611e14578081fd5b5035919050565b81835281816020850137506000828201602090810191909152601f909101601f19169091010190565b8183823760009101908152919050565b60008251611e66818460208701612113565b9190910192915050565b60006060820186835260208681850152606060408501528185835260808501905060808660051b860101925086845b87811015611f0b57868503607f190183528135368a9003601e19018112611ec4578687fd5b8901803567ffffffffffffffff811115611edc578788fd5b8036038b1315611eea578788fd5b611ef78782888501611e1b565b965050509183019190830190600101611e9f565b50929998505050505050505050565b606081526000611f2e606083018789611e1b565b8281036020840152611f41818688611e1b565b91505060ff831660408301529695505050505050565b6020815260008251806020840152611f76816040850160208701612113565b601f01601f19169190910160400192915050565b60208082526010908201526f14185d5cd8589b194e881c185d5cd95960821b604082015260600190565b6020808252602e908201527f496e697469616c697a61626c653a20636f6e747261637420697320616c72656160408201526d191e481a5b9a5d1a585b1a5e995960921b606082015260800190565b60208082526010908201526f42523a205a45524f5f4144445245535360801b604082015260600190565b6020808252818101527f4f776e61626c653a2063616c6c6572206973206e6f7420746865206f776e6572604082015260600190565b6020808252600f908201526e10948e8816915493d7d05353d55395608a1b604082015260600190565b6020808252601f908201527f5265656e7472616e637947756172643a207265656e7472616e742063616c6c00604082015260600190565b600082198211156120d4576120d461215a565b500190565b6000828210156120eb576120eb61215a565b500390565b600060ff821660ff84168082101561210a5761210a61215a565b90039392505050565b60005b8381101561212e578181015183820152602001612116565b838111156118c25750506000910152565b60006000198214156121535761215361215a565b5060010190565b634e487b7160e01b600052601160045260246000fd5b6001600160a01b0381168114610e4157600080fdfea2646970667358221220dc1be1a24e20792b5641cc582ed1a4109a77a5c8235cc92db739a455a4ebee0f64736f6c63430008040033",
  "devdoc": {
    "kind": "dev",
    "methods": {
      "owner()": {
        "details": "Returns the address of the current owner."
      },
      "paused()": {
        "details": "Returns true if the contract is paused, and false otherwise."
      },
      "renounceOwnership()": {
        "details": "Leaves the contract without owner. It will not be possible to call `onlyOwner` functions anymore. Can only be called by the current owner. NOTE: Renouncing ownership will leave the contract without an owner, thereby removing any functionality that is only available to the owner."
      },
      "setCosignerManager(address)": {
        "details": "This should be the contract responsible for sign by behalf of the payloads",
        "params": {
          "newCosignerManager": "address of cosigner manager contract"
        }
      },
      "setTokenManager(address)": {
        "details": "This should be the contract responsible for checking and add tokens to crosschain mapping",
        "params": {
          "newTokenManager": "address of token manager contract"
        }
      },
      "transferOwnership(address)": {
        "details": "Transfers ownership of the contract to a new account (`newOwner`). Can only be called by the current owner."
      },
      "transferTokenOwnership(address,address)": {
        "details": "This token should be ownable in order to do this",
        "params": {
          "newOwner": "new token owner",
          "token": "address of bridged token"
        }
      },
      "updateTokenInfo(address,string,string,uint8)": {
        "details": "This token should be bridged in order to do this",
        "params": {
          "newDecimals": "a new decimal of token",
          "newName": "a new name of token",
          "newSymbol": "a new symbol of token",
          "token": "address of bridged token"
        }
      }
    },
    "version": 1
  },
  "userdoc": {
    "kind": "user",
    "methods": {
      "setCosignerManager(address)": {
        "notice": "Set the cosigner manager, callable only by cosigners"
      },
      "setTokenManager(address)": {
        "notice": "Set the token manager, callable only by cosigners"
      },
      "transferTokenOwnership(address,address)": {
        "notice": "Update token ownership (bor token upgrade and maintenance)"
      },
      "updateTokenInfo(address,string,string,uint8)": {
        "notice": "Update token info in case of mistake or name re-branding"
      }
    },
    "version": 1
  },
  "storageLayout": {
    "storage": [
      {
        "astId": 130,
        "contract": "contracts/BridgeRouter.sol:BridgeRouter",
        "label": "_initialized",
        "offset": 0,
        "slot": "0",
        "type": "t_bool"
      },
      {
        "astId": 133,
        "contract": "contracts/BridgeRouter.sol:BridgeRouter",
        "label": "_initializing",
        "offset": 1,
        "slot": "0",
        "type": "t_bool"
      },
      {
        "astId": 1060,
        "contract": "contracts/BridgeRouter.sol:BridgeRouter",
        "label": "__gap",
        "offset": 0,
        "slot": "1",
        "type": "t_array(t_uint256)50_storage"
      },
      {
        "astId": 10,
        "contract": "contracts/BridgeRouter.sol:BridgeRouter",
        "label": "_owner",
        "offset": 0,
        "slot": "51",
        "type": "t_address"
      },
      {
        "astId": 123,
        "contract": "contracts/BridgeRouter.sol:BridgeRouter",
        "label": "__gap",
        "offset": 0,
        "slot": "52",
        "type": "t_array(t_uint256)49_storage"
      },
      {
        "astId": 297,
        "contract": "contracts/BridgeRouter.sol:BridgeRouter",
        "label": "_status",
        "offset": 0,
        "slot": "101",
        "type": "t_uint256"
      },
      {
        "astId": 340,
        "contract": "contracts/BridgeRouter.sol:BridgeRouter",
        "label": "__gap",
        "offset": 0,
        "slot": "102",
        "type": "t_array(t_uint256)49_storage"
      },
      {
        "astId": 191,
        "contract": "contracts/BridgeRouter.sol:BridgeRouter",
        "label": "_paused",
        "offset": 0,
        "slot": "151",
        "type": "t_bool"
      },
      {
        "astId": 282,
        "contract": "contracts/BridgeRouter.sol:BridgeRouter",
        "label": "__gap",
        "offset": 0,
        "slot": "152",
        "type": "t_array(t_uint256)49_storage"
      },
      {
        "astId": 2262,
        "contract": "contracts/BridgeRouter.sol:BridgeRouter",
        "label": "_nonces",
        "offset": 0,
        "slot": "201",
        "type": "t_mapping(t_address,t_uint256)"
      },
      {
        "astId": 2266,
        "contract": "contracts/BridgeRouter.sol:BridgeRouter",
        "label": "_commitments",
        "offset": 0,
        "slot": "202",
        "type": "t_mapping(t_bytes32,t_bool)"
      },
      {
        "astId": 2269,
        "contract": "contracts/BridgeRouter.sol:BridgeRouter",
        "label": "cosignerManager",
        "offset": 0,
        "slot": "203",
        "type": "t_contract(IBridgeCosignerManager)2845"
      },
      {
        "astId": 2272,
        "contract": "contracts/BridgeRouter.sol:BridgeRouter",
        "label": "tokenManager",
        "offset": 0,
        "slot": "204",
        "type": "t_contract(IBridgeTokenManager)2921"
      },
      {
        "astId": 2274,
        "contract": "contracts/BridgeRouter.sol:BridgeRouter",
        "label": "_chainId",
        "offset": 0,
        "slot": "205",
        "type": "t_uint256"
      },
      {
        "astId": 2283,
        "contract": "contracts/BridgeRouter.sol:BridgeRouter",
        "label": "__gap",
        "offset": 0,
        "slot": "206",
        "type": "t_array(t_uint256)49_storage"
      }
    ],
    "types": {
      "t_address": {
        "encoding": "inplace",
        "label": "address",
        "numberOfBytes": "20"
      },
      "t_array(t_uint256)49_storage": {
        "base": "t_uint256",
        "encoding": "inplace",
        "label": "uint256[49]",
        "numberOfBytes": "1568"
      },
      "t_array(t_uint256)50_storage": {
        "base": "t_uint256",
        "encoding": "inplace",
        "label": "uint256[50]",
        "numberOfBytes": "1600"
      },
      "t_bool": {
        "encoding": "inplace",
        "label": "bool",
        "numberOfBytes": "1"
      },
      "t_bytes32": {
        "encoding": "inplace",
        "label": "bytes32",
        "numberOfBytes": "32"
      },
      "t_contract(IBridgeCosignerManager)2845": {
        "encoding": "inplace",
        "label": "contract IBridgeCosignerManager",
        "numberOfBytes": "20"
      },
      "t_contract(IBridgeTokenManager)2921": {
        "encoding": "inplace",
        "label": "contract IBridgeTokenManager",
        "numberOfBytes": "20"
      },
      "t_mapping(t_address,t_uint256)": {
        "encoding": "mapping",
        "key": "t_address",
        "label": "mapping(address => uint256)",
        "numberOfBytes": "32",
        "value": "t_uint256"
      },
      "t_mapping(t_bytes32,t_bool)": {
        "encoding": "mapping",
        "key": "t_bytes32",
        "label": "mapping(bytes32 => bool)",
        "numberOfBytes": "32",
        "value": "t_bool"
      },
      "t_uint256": {
        "encoding": "inplace",
        "label": "uint256",
        "numberOfBytes": "32"
      }
    }
  }
}